{
  "_format": "hh-sol-artifact-1",
  "contractName": "LBSFragment",
  "sourceName": "contracts/LBSFragment.sol",
  "abi": [
    {
      "inputs": [
        {
          "internalType": "string",
          "name": "_name",
          "type": "string"
        },
        {
          "internalType": "string",
          "name": "_symbol",
          "type": "string"
        },
        {
          "internalType": "string",
          "name": "_baseUri",
          "type": "string"
        },
        {
          "internalType": "address",
          "name": "_usdcAddress",
          "type": "address"
        },
        {
          "internalType": "address",
          "name": "_treasuryHolder",
          "type": "address"
        }
      ],
      "stateMutability": "nonpayable",
      "type": "constructor"
    },
    {
      "anonymous": false,
      "inputs": [
        {
          "indexed": true,
          "internalType": "address",
          "name": "account",
          "type": "address"
        },
        {
          "indexed": true,
          "internalType": "address",
          "name": "operator",
          "type": "address"
        },
        {
          "indexed": false,
          "internalType": "bool",
          "name": "approved",
          "type": "bool"
        }
      ],
      "name": "ApprovalForAll",
      "type": "event"
    },
    {
      "anonymous": false,
      "inputs": [
        {
          "indexed": true,
          "internalType": "address",
          "name": "previousOwner",
          "type": "address"
        },
        {
          "indexed": true,
          "internalType": "address",
          "name": "newOwner",
          "type": "address"
        }
      ],
      "name": "OwnershipTransferred",
      "type": "event"
    },
    {
      "anonymous": false,
      "inputs": [
        {
          "indexed": true,
          "internalType": "address",
          "name": "operator",
          "type": "address"
        },
        {
          "indexed": true,
          "internalType": "address",
          "name": "from",
          "type": "address"
        },
        {
          "indexed": true,
          "internalType": "address",
          "name": "to",
          "type": "address"
        },
        {
          "indexed": false,
          "internalType": "uint256[]",
          "name": "ids",
          "type": "uint256[]"
        },
        {
          "indexed": false,
          "internalType": "uint256[]",
          "name": "values",
          "type": "uint256[]"
        }
      ],
      "name": "TransferBatch",
      "type": "event"
    },
    {
      "anonymous": false,
      "inputs": [
        {
          "indexed": true,
          "internalType": "address",
          "name": "operator",
          "type": "address"
        },
        {
          "indexed": true,
          "internalType": "address",
          "name": "from",
          "type": "address"
        },
        {
          "indexed": true,
          "internalType": "address",
          "name": "to",
          "type": "address"
        },
        {
          "indexed": false,
          "internalType": "uint256",
          "name": "id",
          "type": "uint256"
        },
        {
          "indexed": false,
          "internalType": "uint256",
          "name": "value",
          "type": "uint256"
        }
      ],
      "name": "TransferSingle",
      "type": "event"
    },
    {
      "anonymous": false,
      "inputs": [
        {
          "indexed": false,
          "internalType": "string",
          "name": "value",
          "type": "string"
        },
        {
          "indexed": true,
          "internalType": "uint256",
          "name": "id",
          "type": "uint256"
        }
      ],
      "name": "URI",
      "type": "event"
    },
    {
      "inputs": [],
      "name": "MAX_QTY_PER_MINTER",
      "outputs": [
        {
          "internalType": "uint256",
          "name": "",
          "type": "uint256"
        }
      ],
      "stateMutability": "view",
      "type": "function"
    },
    {
      "inputs": [],
      "name": "STAGE_1_MAX_SUPPLY",
      "outputs": [
        {
          "internalType": "uint256",
          "name": "",
          "type": "uint256"
        }
      ],
      "stateMutability": "view",
      "type": "function"
    },
    {
      "inputs": [],
      "name": "STAGE_1_TOKEN_ID",
      "outputs": [
        {
          "internalType": "uint256",
          "name": "",
          "type": "uint256"
        }
      ],
      "stateMutability": "view",
      "type": "function"
    },
    {
      "inputs": [],
      "name": "STAGE_2_MAX_SUPPLY",
      "outputs": [
        {
          "internalType": "uint256",
          "name": "",
          "type": "uint256"
        }
      ],
      "stateMutability": "view",
      "type": "function"
    },
    {
      "inputs": [],
      "name": "STAGE_2_TOKEN_ID",
      "outputs": [
        {
          "internalType": "uint256",
          "name": "",
          "type": "uint256"
        }
      ],
      "stateMutability": "view",
      "type": "function"
    },
    {
      "inputs": [],
      "name": "STAGE_3_MAX_SUPPLY",
      "outputs": [
        {
          "internalType": "uint256",
          "name": "",
          "type": "uint256"
        }
      ],
      "stateMutability": "view",
      "type": "function"
    },
    {
      "inputs": [],
      "name": "STAGE_3_TOKEN_ID",
      "outputs": [
        {
          "internalType": "uint256",
          "name": "",
          "type": "uint256"
        }
      ],
      "stateMutability": "view",
      "type": "function"
    },
    {
      "inputs": [],
      "name": "STAGE_4_MAX_SUPPLY",
      "outputs": [
        {
          "internalType": "uint256",
          "name": "",
          "type": "uint256"
        }
      ],
      "stateMutability": "view",
      "type": "function"
    },
    {
      "inputs": [],
      "name": "STAGE_4_SALE_MAX_QTY",
      "outputs": [
        {
          "internalType": "uint256",
          "name": "",
          "type": "uint256"
        }
      ],
      "stateMutability": "view",
      "type": "function"
    },
    {
      "inputs": [],
      "name": "STAGE_4_TOKEN_ID",
      "outputs": [
        {
          "internalType": "uint256",
          "name": "",
          "type": "uint256"
        }
      ],
      "stateMutability": "view",
      "type": "function"
    },
    {
      "inputs": [],
      "name": "STAGE_4_TREASURY_MAX_QTY",
      "outputs": [
        {
          "internalType": "uint256",
          "name": "",
          "type": "uint256"
        }
      ],
      "stateMutability": "view",
      "type": "function"
    },
    {
      "inputs": [],
      "name": "TOTAL_TOKEN_QTY",
      "outputs": [
        {
          "internalType": "uint256",
          "name": "",
          "type": "uint256"
        }
      ],
      "stateMutability": "view",
      "type": "function"
    },
    {
      "inputs": [],
      "name": "activeStage",
      "outputs": [
        {
          "internalType": "uint256",
          "name": "",
          "type": "uint256"
        }
      ],
      "stateMutability": "view",
      "type": "function"
    },
    {
      "inputs": [
        {
          "internalType": "address",
          "name": "account",
          "type": "address"
        },
        {
          "internalType": "uint256",
          "name": "id",
          "type": "uint256"
        }
      ],
      "name": "balanceOf",
      "outputs": [
        {
          "internalType": "uint256",
          "name": "",
          "type": "uint256"
        }
      ],
      "stateMutability": "view",
      "type": "function"
    },
    {
      "inputs": [
        {
          "internalType": "address[]",
          "name": "accounts",
          "type": "address[]"
        },
        {
          "internalType": "uint256[]",
          "name": "ids",
          "type": "uint256[]"
        }
      ],
      "name": "balanceOfBatch",
      "outputs": [
        {
          "internalType": "uint256[]",
          "name": "",
          "type": "uint256[]"
        }
      ],
      "stateMutability": "view",
      "type": "function"
    },
    {
      "inputs": [],
      "name": "baseUri",
      "outputs": [
        {
          "internalType": "string",
          "name": "",
          "type": "string"
        }
      ],
      "stateMutability": "view",
      "type": "function"
    },
    {
      "inputs": [
        {
          "internalType": "uint256",
          "name": "_tokenId",
          "type": "uint256"
        }
      ],
      "name": "getMaxSaleSupply",
      "outputs": [
        {
          "internalType": "uint256",
          "name": "",
          "type": "uint256"
        }
      ],
      "stateMutability": "pure",
      "type": "function"
    },
    {
      "inputs": [
        {
          "internalType": "uint256",
          "name": "_tokenId",
          "type": "uint256"
        }
      ],
      "name": "getPrice",
      "outputs": [
        {
          "internalType": "uint256",
          "name": "",
          "type": "uint256"
        }
      ],
      "stateMutability": "view",
      "type": "function"
    },
    {
      "inputs": [
        {
          "internalType": "address",
          "name": "account",
          "type": "address"
        },
        {
          "internalType": "address",
          "name": "operator",
          "type": "address"
        }
      ],
      "name": "isApprovedForAll",
      "outputs": [
        {
          "internalType": "bool",
          "name": "",
          "type": "bool"
        }
      ],
      "stateMutability": "view",
      "type": "function"
    },
    {
      "inputs": [
        {
          "internalType": "uint256",
          "name": "_tokenId",
          "type": "uint256"
        },
        {
          "internalType": "uint256",
          "name": "_quantity",
          "type": "uint256"
        },
        {
          "internalType": "bytes",
          "name": "_data",
          "type": "bytes"
        }
      ],
      "name": "mint",
      "outputs": [],
      "stateMutability": "nonpayable",
      "type": "function"
    },
    {
      "inputs": [],
      "name": "mintTreasury",
      "outputs": [],
      "stateMutability": "nonpayable",
      "type": "function"
    },
    {
      "inputs": [],
      "name": "name",
      "outputs": [
        {
          "internalType": "string",
          "name": "",
          "type": "string"
        }
      ],
      "stateMutability": "view",
      "type": "function"
    },
    {
      "inputs": [],
      "name": "owner",
      "outputs": [
        {
          "internalType": "address",
          "name": "",
          "type": "address"
        }
      ],
      "stateMutability": "view",
      "type": "function"
    },
    {
      "inputs": [],
      "name": "renounceOwnership",
      "outputs": [],
      "stateMutability": "nonpayable",
      "type": "function"
    },
    {
      "inputs": [
        {
          "internalType": "address",
          "name": "from",
          "type": "address"
        },
        {
          "internalType": "address",
          "name": "to",
          "type": "address"
        },
        {
          "internalType": "uint256[]",
          "name": "ids",
          "type": "uint256[]"
        },
        {
          "internalType": "uint256[]",
          "name": "amounts",
          "type": "uint256[]"
        },
        {
          "internalType": "bytes",
          "name": "data",
          "type": "bytes"
        }
      ],
      "name": "safeBatchTransferFrom",
      "outputs": [],
      "stateMutability": "nonpayable",
      "type": "function"
    },
    {
      "inputs": [
        {
          "internalType": "address",
          "name": "from",
          "type": "address"
        },
        {
          "internalType": "address",
          "name": "to",
          "type": "address"
        },
        {
          "internalType": "uint256",
          "name": "id",
          "type": "uint256"
        },
        {
          "internalType": "uint256",
          "name": "amount",
          "type": "uint256"
        },
        {
          "internalType": "bytes",
          "name": "data",
          "type": "bytes"
        }
      ],
      "name": "safeTransferFrom",
      "outputs": [],
      "stateMutability": "nonpayable",
      "type": "function"
    },
    {
      "inputs": [
        {
          "internalType": "uint256",
          "name": "_tokenId",
          "type": "uint256"
        }
      ],
      "name": "setActiveStage",
      "outputs": [],
      "stateMutability": "nonpayable",
      "type": "function"
    },
    {
      "inputs": [
        {
          "internalType": "address",
          "name": "operator",
          "type": "address"
        },
        {
          "internalType": "bool",
          "name": "approved",
          "type": "bool"
        }
      ],
      "name": "setApprovalForAll",
      "outputs": [],
      "stateMutability": "nonpayable",
      "type": "function"
    },
    {
      "inputs": [
        {
          "internalType": "uint256",
          "name": "_tokenId",
          "type": "uint256"
        },
        {
          "internalType": "string",
          "name": "_uri",
          "type": "string"
        }
      ],
      "name": "setCustomURI",
      "outputs": [],
      "stateMutability": "nonpayable",
      "type": "function"
    },
    {
      "inputs": [
        {
          "internalType": "uint256",
          "name": "_tokenId",
          "type": "uint256"
        },
        {
          "internalType": "uint256",
          "name": "_price",
          "type": "uint256"
        }
      ],
      "name": "setPrice",
      "outputs": [],
      "stateMutability": "nonpayable",
      "type": "function"
    },
    {
      "inputs": [
        {
          "internalType": "string",
          "name": "_uri",
          "type": "string"
        }
      ],
      "name": "setURI",
      "outputs": [],
      "stateMutability": "nonpayable",
      "type": "function"
    },
    {
      "inputs": [
        {
          "internalType": "bytes4",
          "name": "interfaceId",
          "type": "bytes4"
        }
      ],
      "name": "supportsInterface",
      "outputs": [
        {
          "internalType": "bool",
          "name": "",
          "type": "bool"
        }
      ],
      "stateMutability": "view",
      "type": "function"
    },
    {
      "inputs": [],
      "name": "symbol",
      "outputs": [
        {
          "internalType": "string",
          "name": "",
          "type": "string"
        }
      ],
      "stateMutability": "view",
      "type": "function"
    },
    {
      "inputs": [
        {
          "internalType": "uint256",
          "name": "",
          "type": "uint256"
        }
      ],
      "name": "tokenToCurtomUri",
      "outputs": [
        {
          "internalType": "string",
          "name": "",
          "type": "string"
        }
      ],
      "stateMutability": "view",
      "type": "function"
    },
    {
      "inputs": [
        {
          "internalType": "uint256",
          "name": "",
          "type": "uint256"
        }
      ],
      "name": "tokenToMintedQty",
      "outputs": [
        {
          "internalType": "uint256",
          "name": "",
          "type": "uint256"
        }
      ],
      "stateMutability": "view",
      "type": "function"
    },
    {
      "inputs": [
        {
          "internalType": "uint256",
          "name": "",
          "type": "uint256"
        },
        {
          "internalType": "address",
          "name": "",
          "type": "address"
        }
      ],
      "name": "tokenToMinterBalance",
      "outputs": [
        {
          "internalType": "uint256",
          "name": "",
          "type": "uint256"
        }
      ],
      "stateMutability": "view",
      "type": "function"
    },
    {
      "inputs": [
        {
          "internalType": "uint256",
          "name": "",
          "type": "uint256"
        }
      ],
      "name": "tokenToPrice",
      "outputs": [
        {
          "internalType": "uint256",
          "name": "",
          "type": "uint256"
        }
      ],
      "stateMutability": "view",
      "type": "function"
    },
    {
      "inputs": [
        {
          "internalType": "address",
          "name": "newOwner",
          "type": "address"
        }
      ],
      "name": "transferOwnership",
      "outputs": [],
      "stateMutability": "nonpayable",
      "type": "function"
    },
    {
      "inputs": [],
      "name": "treasuryHolder",
      "outputs": [
        {
          "internalType": "address",
          "name": "",
          "type": "address"
        }
      ],
      "stateMutability": "view",
      "type": "function"
    },
    {
      "inputs": [],
      "name": "treasuryMinted",
      "outputs": [
        {
          "internalType": "bool",
          "name": "",
          "type": "bool"
        }
      ],
      "stateMutability": "view",
      "type": "function"
    },
    {
      "inputs": [
        {
          "internalType": "uint256",
          "name": "_tokenId",
          "type": "uint256"
        }
      ],
      "name": "uri",
      "outputs": [
        {
          "internalType": "string",
          "name": "",
          "type": "string"
        }
      ],
      "stateMutability": "view",
      "type": "function"
    },
    {
      "inputs": [],
      "name": "usdc",
      "outputs": [
        {
          "internalType": "contract IERC20",
          "name": "",
          "type": "address"
        }
      ],
      "stateMutability": "view",
      "type": "function"
    }
  ],
  "bytecode": "0x60806040523480156200001157600080fd5b5060405162005d0438038062005d04833981810160405281019062000037919062000908565b6040518060200160405280600081525062000058816200030a60201b60201c565b50620000796200006d6200032660201b60201c565b6200032e60201b60201c565b846004908051906020019062000091929190620007cf565b508360059080519060200190620000aa929190620007cf565b50620000dd83604051602001620000c2919062000b10565b604051602081830303815290604052620003f460201b60201c565b62000129600184620000fb60016200049760201b62001ed71760201c565b6040516020016200010e92919062000b36565b6040516020818303038152906040526200065960201b60201c565b620001756002846200014760026200049760201b62001ed71760201c565b6040516020016200015a92919062000b36565b6040516020818303038152906040526200065960201b60201c565b620001c16003846200019360036200049760201b62001ed71760201c565b604051602001620001a692919062000b36565b6040516020818303038152906040526200065960201b60201c565b6200020d600484620001df60046200049760201b62001ed71760201c565b604051602001620001f292919062000b36565b6040516020818303038152906040526200065960201b60201c565b81600760006101000a81548173ffffffffffffffffffffffffffffffffffffffff021916908373ffffffffffffffffffffffffffffffffffffffff160217905550620f4240600b60006001815260200190815260200160002081905550621e8480600b60006002815260200190815260200160002081905550622dc6c0600b60006003815260200190815260200160002081905550623d0900600b6000600481526020019081526020016000208190555080600960016101000a81548173ffffffffffffffffffffffffffffffffffffffff021916908373ffffffffffffffffffffffffffffffffffffffff160217905550505050505062001050565b806002908051906020019062000322929190620007cf565b5050565b600033905090565b6000600360009054906101000a900473ffffffffffffffffffffffffffffffffffffffff16905081600360006101000a81548173ffffffffffffffffffffffffffffffffffffffff021916908373ffffffffffffffffffffffffffffffffffffffff1602179055508173ffffffffffffffffffffffffffffffffffffffff168173ffffffffffffffffffffffffffffffffffffffff167f8be0079c531659141344cd1fd0a4f28419497f9722a3daafe3b4186f6b6457e060405160405180910390a35050565b620004046200032660201b60201c565b73ffffffffffffffffffffffffffffffffffffffff166200042a620007a560201b60201c565b73ffffffffffffffffffffffffffffffffffffffff161462000483576040517f08c379a00000000000000000000000000000000000000000000000000000000081526004016200047a9062000bbe565b60405180910390fd5b62000494816200030a60201b60201c565b50565b60606000821415620004e1576040518060400160405280600181526020017f3000000000000000000000000000000000000000000000000000000000000000815250905062000654565b600082905060005b6000821462000519578080620004ff9062000e16565b915050600a8262000511919062000cc3565b9150620004e9565b60008167ffffffffffffffff8111156200055c577f4e487b7100000000000000000000000000000000000000000000000000000000600052604160045260246000fd5b6040519080825280601f01601f1916602001820160405280156200058f5781602001600182028036833780820191505090505b5090505b600085146200064d57600182620005ab919062000cfb565b9150600a85620005bc919062000e64565b6030620005ca919062000c66565b60f81b81838151811062000607577f4e487b7100000000000000000000000000000000000000000000000000000000600052603260045260246000fd5b60200101907effffffffffffffffffffffffffffffffffffffffffffffffffffffffffffff1916908160001a905350600a8562000645919062000cc3565b945062000593565b8093505050505b919050565b620006696200032660201b60201c565b73ffffffffffffffffffffffffffffffffffffffff166200068f620007a560201b60201c565b73ffffffffffffffffffffffffffffffffffffffff1614620006e8576040517f08c379a0000000000000000000000000000000000000000000000000000000008152600401620006df9062000bbe565b60405180910390fd5b60018210158015620006fb575060048211155b6200073d576040517f08c379a0000000000000000000000000000000000000000000000000000000008152600401620007349062000b9c565b60405180910390fd5b80600a6000848152602001908152602001600020908051906020019062000766929190620007cf565b50817f6bb7ff708619ba0610cba295a58592e0451dee2622938c8755667688daf3529b8260405162000799919062000b78565b60405180910390a25050565b6000600360009054906101000a900473ffffffffffffffffffffffffffffffffffffffff16905090565b828054620007dd9062000daa565b90600052602060002090601f0160209004810192826200080157600085556200084d565b82601f106200081c57805160ff19168380011785556200084d565b828001600101855582156200084d579182015b828111156200084c5782518255916020019190600101906200082f565b5b5090506200085c919062000860565b5090565b5b808211156200087b57600081600090555060010162000861565b5090565b600062000896620008908462000c09565b62000be0565b905082815260208101848484011115620008af57600080fd5b620008bc84828562000d74565b509392505050565b600081519050620008d58162001036565b92915050565b600082601f830112620008ed57600080fd5b8151620008ff8482602086016200087f565b91505092915050565b600080600080600060a086880312156200092157600080fd5b600086015167ffffffffffffffff8111156200093c57600080fd5b6200094a88828901620008db565b955050602086015167ffffffffffffffff8111156200096857600080fd5b6200097688828901620008db565b945050604086015167ffffffffffffffff8111156200099457600080fd5b620009a288828901620008db565b9350506060620009b588828901620008c4565b9250506080620009c888828901620008c4565b9150509295509295909350565b6000620009e28262000c3f565b620009ee818562000c4a565b935062000a0081856020860162000d74565b62000a0b8162000f58565b840191505092915050565b600062000a238262000c3f565b62000a2f818562000c5b565b935062000a4181856020860162000d74565b80840191505092915050565b600062000a5c600a8362000c5b565b915062000a698262000f69565b600a82019050919050565b600062000a8360118362000c4a565b915062000a908262000f92565b602082019050919050565b600062000aaa60058362000c5b565b915062000ab78262000fbb565b600582019050919050565b600062000ad160208362000c4a565b915062000ade8262000fe4565b602082019050919050565b600062000af860018362000c5b565b915062000b05826200100d565b600182019050919050565b600062000b1e828462000a16565b915062000b2b8262000a4d565b915081905092915050565b600062000b44828562000a16565b915062000b518262000ae9565b915062000b5f828462000a16565b915062000b6c8262000a9b565b91508190509392505050565b6000602082019050818103600083015262000b948184620009d5565b905092915050565b6000602082019050818103600083015262000bb78162000a74565b9050919050565b6000602082019050818103600083015262000bd98162000ac2565b9050919050565b600062000bec62000bff565b905062000bfa828262000de0565b919050565b6000604051905090565b600067ffffffffffffffff82111562000c275762000c2662000f29565b5b62000c328262000f58565b9050602081019050919050565b600081519050919050565b600082825260208201905092915050565b600081905092915050565b600062000c738262000d6a565b915062000c808362000d6a565b9250827fffffffffffffffffffffffffffffffffffffffffffffffffffffffffffffffff0382111562000cb85762000cb762000e9c565b5b828201905092915050565b600062000cd08262000d6a565b915062000cdd8362000d6a565b92508262000cf05762000cef62000ecb565b5b828204905092915050565b600062000d088262000d6a565b915062000d158362000d6a565b92508282101562000d2b5762000d2a62000e9c565b5b828203905092915050565b600062000d438262000d4a565b9050919050565b600073ffffffffffffffffffffffffffffffffffffffff82169050919050565b6000819050919050565b60005b8381101562000d9457808201518184015260208101905062000d77565b8381111562000da4576000848401525b50505050565b6000600282049050600182168062000dc357607f821691505b6020821081141562000dda5762000dd962000efa565b5b50919050565b62000deb8262000f58565b810181811067ffffffffffffffff8211171562000e0d5762000e0c62000f29565b5b80604052505050565b600062000e238262000d6a565b91507fffffffffffffffffffffffffffffffffffffffffffffffffffffffffffffffff82141562000e595762000e5862000e9c565b5b600182019050919050565b600062000e718262000d6a565b915062000e7e8362000d6a565b92508262000e915762000e9062000ecb565b5b828206905092915050565b7f4e487b7100000000000000000000000000000000000000000000000000000000600052601160045260246000fd5b7f4e487b7100000000000000000000000000000000000000000000000000000000600052601260045260246000fd5b7f4e487b7100000000000000000000000000000000000000000000000000000000600052602260045260246000fd5b7f4e487b7100000000000000000000000000000000000000000000000000000000600052604160045260246000fd5b6000601f19601f8301169050919050565b7f2f7b69647d2e6a736f6e00000000000000000000000000000000000000000000600082015250565b7f4e6f6e6578697374656e7420746f6b656e000000000000000000000000000000600082015250565b7f2e6a736f6e000000000000000000000000000000000000000000000000000000600082015250565b7f4f776e61626c653a2063616c6c6572206973206e6f7420746865206f776e6572600082015250565b7f2f00000000000000000000000000000000000000000000000000000000000000600082015250565b620010418162000d36565b81146200104d57600080fd5b50565b614ca480620010606000396000f3fe608060405234801561001057600080fd5b506004361061025d5760003560e01c806388da457e11610146578063c5cdff8c116100c3578063eb642c8e11610087578063eb642c8e1461072c578063f242432a1461074a578063f2fde38b14610766578063f7d9757714610782578063f85fd0a81461079e578063fdd0f3ca146107bc5761025d565b8063c5cdff8c14610674578063cdc9273b14610692578063e3e35062146106c2578063e7572230146106cc578063e985e9c5146106fc5761025d565b80639949fb841161010a5780639949fb84146105ce5780639abc8320146105ec578063a22cb4651461060a578063a726f59b14610626578063ac501c41146106565761025d565b806388da457e1461053a578063896086de146105585780638cd6976e146105745780638da5cb5b1461059257806395d89b41146105b05761025d565b80632b66d7cf116101df578063458db8b7116101a3578063458db8b7146104645780634864d8d9146104945780634e1273f4146104b257806351debc44146104e2578063715018a614610500578063843dde201461050a5761025d565b80632b66d7cf146103d25780632eb2c2d6146103f057806331271f961461040c5780633adf80b41461042a5780633e413bee146104465761025d565b80630e89341c116102265780630e89341c146103185780630f55be0c146103485780630f7d26151461036657806319c9b7361461039657806328f0d90a146103b45761025d565b8062fdd58e1461026257806301ffc9a71461029257806302fe5305146102c257806306fdde03146102de57806308dc9f42146102fc575b600080fd5b61027c6004803603810190610277919061352f565b6107da565b60405161028991906140d2565b60405180910390f35b6102ac60048036038101906102a79190613600565b6108a3565b6040516102b99190613dba565b60405180910390f35b6102dc60048036038101906102d79190613652565b610985565b005b6102e6610a0d565b6040516102f39190613df0565b60405180910390f35b610316600480360381019061031191906137b1565b610a9b565b005b610332600480360381019061032d9190613693565b610ee3565b60405161033f9190613df0565b60405180910390f35b610350611096565b60405161035d91906140d2565b60405180910390f35b610380600480360381019061037b9190613693565b61109b565b60405161038d9190613df0565b60405180910390f35b61039e61113b565b6040516103ab91906140d2565b60405180910390f35b6103bc611140565b6040516103c991906140d2565b60405180910390f35b6103da611145565b6040516103e791906140d2565b60405180910390f35b61040a600480360381019061040591906133a5565b61114a565b005b6104146111eb565b60405161042191906140d2565b60405180910390f35b610444600480360381019061043f9190613721565b6111f1565b005b61044e611322565b60405161045b9190613dd5565b60405180910390f35b61047e60048036038101906104799190613693565b611348565b60405161048b91906140d2565b60405180910390f35b61049c611360565b6040516104a991906140d2565b60405180910390f35b6104cc60048036038101906104c7919061356b565b611366565b6040516104d99190613d61565b60405180910390f35b6104ea611517565b6040516104f791906140d2565b60405180910390f35b61050861151c565b005b610524600480360381019061051f9190613693565b6115a4565b60405161053191906140d2565b60405180910390f35b6105426115bc565b60405161054f91906140d2565b60405180910390f35b610572600480360381019061056d9190613693565b6115ce565b005b61057c6116a5565b60405161058991906140d2565b60405180910390f35b61059a6116aa565b6040516105a79190613c4d565b60405180910390f35b6105b86116d4565b6040516105c59190613df0565b60405180910390f35b6105d6611762565b6040516105e391906140d2565b60405180910390f35b6105f4611767565b6040516106019190613df0565b60405180910390f35b610624600480360381019061061f91906134f3565b6117f5565b005b610640600480360381019061063b9190613693565b61180b565b60405161064d91906140d2565b60405180910390f35b61065e61189e565b60405161066b91906140d2565b60405180910390f35b61067c6118a3565b60405161068991906140d2565b60405180910390f35b6106ac60048036038101906106a791906136e5565b6118a8565b6040516106b991906140d2565b60405180910390f35b6106ca6118cd565b005b6106e660048036038101906106e19190613693565b611ad2565b6040516106f391906140d2565b60405180910390f35b61071660048036038101906107119190613369565b611b40565b6040516107239190613dba565b60405180910390f35b610734611bd4565b60405161074191906140d2565b60405180910390f35b610764600480360381019061075f9190613464565b611bd9565b005b610780600480360381019061077b9190613340565b611c7a565b005b61079c60048036038101906107979190613775565b611d72565b005b6107a6611e9e565b6040516107b39190613c4d565b60405180910390f35b6107c4611ec4565b6040516107d19190613dba565b60405180910390f35b60008073ffffffffffffffffffffffffffffffffffffffff168373ffffffffffffffffffffffffffffffffffffffff16141561084b576040517f08c379a000000000000000000000000000000000000000000000000000000000815260040161084290613e52565b60405180910390fd5b60008083815260200190815260200160002060008473ffffffffffffffffffffffffffffffffffffffff1673ffffffffffffffffffffffffffffffffffffffff16815260200190815260200160002054905092915050565b60007fd9b67a26000000000000000000000000000000000000000000000000000000007bffffffffffffffffffffffffffffffffffffffffffffffffffffffff1916827bffffffffffffffffffffffffffffffffffffffffffffffffffffffff1916148061096e57507f0e89341c000000000000000000000000000000000000000000000000000000007bffffffffffffffffffffffffffffffffffffffffffffffffffffffff1916827bffffffffffffffffffffffffffffffffffffffffffffffffffffffff1916145b8061097e575061097d82612084565b5b9050919050565b61098d6120ee565b73ffffffffffffffffffffffffffffffffffffffff166109ab6116aa565b73ffffffffffffffffffffffffffffffffffffffff1614610a01576040517f08c379a00000000000000000000000000000000000000000000000000000000081526004016109f890613f72565b60405180910390fd5b610a0a816120f6565b50565b60048054610a1a90614455565b80601f0160208091040260200160405190810160405280929190818152602001828054610a4690614455565b8015610a935780601f10610a6857610100808354040283529160200191610a93565b820191906000526020600020905b815481529060010190602001808311610a7657829003601f168201915b505050505081565b60018310158015610aad575060048311155b610aec576040517f08c379a0000000000000000000000000000000000000000000000000000000008152600401610ae390613ef2565b60405180910390fd5b8260085414610b30576040517f08c379a0000000000000000000000000000000000000000000000000000000008152600401610b2790614092565b60405180910390fd5b610b398361180b565b82600c600086815260200190815260200160002054610b589190614266565b1115610b99576040517f08c379a0000000000000000000000000000000000000000000000000000000008152600401610b90906140b2565b60405180910390fd5b600582600d600086815260200190815260200160002060003373ffffffffffffffffffffffffffffffffffffffff1673ffffffffffffffffffffffffffffffffffffffff16815260200190815260200160002054610bf79190614266565b1115610c38576040517f08c379a0000000000000000000000000000000000000000000000000000000008152600401610c2f90613f92565b60405180910390fd5b600082610c4485611ad2565b610c4e91906142ed565b90506000600760009054906101000a900473ffffffffffffffffffffffffffffffffffffffff1673ffffffffffffffffffffffffffffffffffffffff166370a08231336040518263ffffffff1660e01b8152600401610cad9190613c4d565b60206040518083038186803b158015610cc557600080fd5b505afa158015610cd9573d6000803e3d6000fd5b505050506040513d601f19601f82011682018060405250810190610cfd91906136bc565b905081811015610d42576040517f08c379a0000000000000000000000000000000000000000000000000000000008152600401610d3990613eb2565b60405180910390fd5b6000600760009054906101000a900473ffffffffffffffffffffffffffffffffffffffff1673ffffffffffffffffffffffffffffffffffffffff166323b872dd33610d8b6116aa565b866040518463ffffffff1660e01b8152600401610daa93929190613cd0565b602060405180830381600087803b158015610dc457600080fd5b505af1158015610dd8573d6000803e3d6000fd5b505050506040513d601f19601f82011682018060405250810190610dfc91906135d7565b905080610e3e576040517f08c379a0000000000000000000000000000000000000000000000000000000008152600401610e3590613f32565b60405180910390fd5b610e4a33878787612110565b84600c60008881526020019081526020016000206000828254610e6d9190614266565b9250508190555084600d600088815260200190815260200160002060003373ffffffffffffffffffffffffffffffffffffffff1673ffffffffffffffffffffffffffffffffffffffff1681526020019081526020016000206000828254610ed49190614266565b92505081905550505050505050565b606060018210158015610ef7575060048211155b610f36576040517f08c379a0000000000000000000000000000000000000000000000000000000008152600401610f2d90613ef2565b60405180910390fd5b6000600a60008481526020019081526020016000208054610f5690614455565b80601f0160208091040260200160405190810160405280929190818152602001828054610f8290614455565b8015610fcf5780601f10610fa457610100808354040283529160200191610fcf565b820191906000526020600020905b815481529060010190602001808311610fb257829003601f168201915b5050505050905060008151111561108457600a60008481526020019081526020016000208054610ffe90614455565b80601f016020809104026020016040519081016040528092919081815260200182805461102a90614455565b80156110775780601f1061104c57610100808354040283529160200191611077565b820191906000526020600020905b81548152906001019060200180831161105a57829003601f168201915b5050505050915050611091565b61108d836122a6565b9150505b919050565b600381565b600a60205280600052604060002060009150905080546110ba90614455565b80601f01602080910402602001604051908101604052809291908181526020018280546110e690614455565b80156111335780601f1061110857610100808354040283529160200191611133565b820191906000526020600020905b81548152906001019060200180831161111657829003601f168201915b505050505081565b600481565b60a081565b600281565b6111526120ee565b73ffffffffffffffffffffffffffffffffffffffff168573ffffffffffffffffffffffffffffffffffffffff1614806111985750611197856111926120ee565b611b40565b5b6111d7576040517f08c379a00000000000000000000000000000000000000000000000000000000081526004016111ce90613f12565b60405180910390fd5b6111e4858585858561233a565b5050505050565b6102bc81565b6111f96120ee565b73ffffffffffffffffffffffffffffffffffffffff166112176116aa565b73ffffffffffffffffffffffffffffffffffffffff161461126d576040517f08c379a000000000000000000000000000000000000000000000000000000000815260040161126490613f72565b60405180910390fd5b6001821015801561127f575060048211155b6112be576040517f08c379a00000000000000000000000000000000000000000000000000000000081526004016112b590613ef2565b60405180910390fd5b80600a600084815260200190815260200160002090805190602001906112e592919061300e565b50817f6bb7ff708619ba0610cba295a58592e0451dee2622938c8755667688daf3529b826040516113169190613df0565b60405180910390a25050565b600760009054906101000a900473ffffffffffffffffffffffffffffffffffffffff1681565b600c6020528060005260406000206000915090505481565b60085481565b606081518351146113ac576040517f08c379a00000000000000000000000000000000000000000000000000000000081526004016113a390614012565b60405180910390fd5b6000835167ffffffffffffffff8111156113ef577f4e487b7100000000000000000000000000000000000000000000000000000000600052604160045260246000fd5b60405190808252806020026020018201604052801561141d5781602001602082028036833780820191505090505b50905060005b845181101561150c576114b6858281518110611468577f4e487b7100000000000000000000000000000000000000000000000000000000600052603260045260246000fd5b60200260200101518583815181106114a9577f4e487b7100000000000000000000000000000000000000000000000000000000600052603260045260246000fd5b60200260200101516107da565b8282815181106114ef577f4e487b7100000000000000000000000000000000000000000000000000000000600052603260045260246000fd5b60200260200101818152505080611505906144b8565b9050611423565b508091505092915050565b600481565b6115246120ee565b73ffffffffffffffffffffffffffffffffffffffff166115426116aa565b73ffffffffffffffffffffffffffffffffffffffff1614611598576040517f08c379a000000000000000000000000000000000000000000000000000000000815260040161158f90613f72565b60405180910390fd5b6115a2600061269a565b565b600b6020528060005260406000206000915090505481565b6102bc60a06115cb9190614266565b81565b6115d66120ee565b73ffffffffffffffffffffffffffffffffffffffff166115f46116aa565b73ffffffffffffffffffffffffffffffffffffffff161461164a576040517f08c379a000000000000000000000000000000000000000000000000000000000815260040161164190613f72565b60405180910390fd5b6001811015801561165c575060048111155b61169b576040517f08c379a000000000000000000000000000000000000000000000000000000000815260040161169290613ef2565b60405180910390fd5b8060088190555050565b60be81565b6000600360009054906101000a900473ffffffffffffffffffffffffffffffffffffffff16905090565b600580546116e190614455565b80601f016020809104026020016040519081016040528092919081815260200182805461170d90614455565b801561175a5780601f1061172f5761010080835404028352916020019161175a565b820191906000526020600020905b81548152906001019060200180831161173d57829003601f168201915b505050505081565b608781565b6006805461177490614455565b80601f01602080910402602001604051908101604052809291908181526020018280546117a090614455565b80156117ed5780601f106117c2576101008083540402835291602001916117ed565b820191906000526020600020905b8154815290600101906020018083116117d057829003601f168201915b505050505081565b6118076118006120ee565b8383612760565b5050565b60006001821015801561181f575060048211155b61185e576040517f08c379a000000000000000000000000000000000000000000000000000000000815260040161185590613ef2565b60405180910390fd5b60018214156118705760509050611899565b60028214156118825760879050611899565b60038214156118945760be9050611899565b60a090505b919050565b600581565b600181565b600d602052816000526040600020602052806000526040600020600091509150505481565b6118d56120ee565b73ffffffffffffffffffffffffffffffffffffffff166118f36116aa565b73ffffffffffffffffffffffffffffffffffffffff1614611949576040517f08c379a000000000000000000000000000000000000000000000000000000000815260040161194090613f72565b60405180910390fd5b60046008541461198e576040517f08c379a000000000000000000000000000000000000000000000000000000000815260040161198590613fb2565b60405180910390fd5b600960009054906101000a900460ff16156119de576040517f08c379a00000000000000000000000000000000000000000000000000000000081526004016119d590614032565b60405180910390fd5b611a1e600960019054906101000a900473ffffffffffffffffffffffffffffffffffffffff1660046102bc60405180602001604052806000815250612110565b6102bc600c6000600481526020019081526020016000206000828254611a449190614266565b925050819055506102bc600d60006004815260200190815260200160002060003373ffffffffffffffffffffffffffffffffffffffff1673ffffffffffffffffffffffffffffffffffffffff1681526020019081526020016000206000828254611aae9190614266565b925050819055506001600960006101000a81548160ff021916908315150217905550565b600060018210158015611ae6575060048211155b611b25576040517f08c379a0000000000000000000000000000000000000000000000000000000008152600401611b1c90613ef2565b60405180910390fd5b600b6000838152602001908152602001600020549050919050565b6000600160008473ffffffffffffffffffffffffffffffffffffffff1673ffffffffffffffffffffffffffffffffffffffff16815260200190815260200160002060008373ffffffffffffffffffffffffffffffffffffffff1673ffffffffffffffffffffffffffffffffffffffff16815260200190815260200160002060009054906101000a900460ff16905092915050565b605081565b611be16120ee565b73ffffffffffffffffffffffffffffffffffffffff168573ffffffffffffffffffffffffffffffffffffffff161480611c275750611c2685611c216120ee565b611b40565b5b611c66576040517f08c379a0000000000000000000000000000000000000000000000000000000008152600401611c5d90613e92565b60405180910390fd5b611c7385858585856128cd565b5050505050565b611c826120ee565b73ffffffffffffffffffffffffffffffffffffffff16611ca06116aa565b73ffffffffffffffffffffffffffffffffffffffff1614611cf6576040517f08c379a0000000000000000000000000000000000000000000000000000000008152600401611ced90613f72565b60405180910390fd5b600073ffffffffffffffffffffffffffffffffffffffff168173ffffffffffffffffffffffffffffffffffffffff161415611d66576040517f08c379a0000000000000000000000000000000000000000000000000000000008152600401611d5d90613e72565b60405180910390fd5b611d6f8161269a565b50565b611d7a6120ee565b73ffffffffffffffffffffffffffffffffffffffff16611d986116aa565b73ffffffffffffffffffffffffffffffffffffffff1614611dee576040517f08c379a0000000000000000000000000000000000000000000000000000000008152600401611de590613f72565b60405180910390fd5b60018210158015611e00575060048211155b611e3f576040517f08c379a0000000000000000000000000000000000000000000000000000000008152600401611e3690613ef2565b60405180910390fd5b60008111611e82576040517f08c379a0000000000000000000000000000000000000000000000000000000008152600401611e7990613fd2565b60405180910390fd5b80600b6000848152602001908152602001600020819055505050565b600960019054906101000a900473ffffffffffffffffffffffffffffffffffffffff1681565b600960009054906101000a900460ff1681565b60606000821415611f1f576040518060400160405280600181526020017f3000000000000000000000000000000000000000000000000000000000000000815250905061207f565b600082905060005b60008214611f51578080611f3a906144b8565b915050600a82611f4a91906142bc565b9150611f27565b60008167ffffffffffffffff811115611f93577f4e487b7100000000000000000000000000000000000000000000000000000000600052604160045260246000fd5b6040519080825280601f01601f191660200182016040528015611fc55781602001600182028036833780820191505090505b5090505b6000851461207857600182611fde9190614347565b9150600a85611fed9190614501565b6030611ff99190614266565b60f81b818381518110612035577f4e487b7100000000000000000000000000000000000000000000000000000000600052603260045260246000fd5b60200101907effffffffffffffffffffffffffffffffffffffffffffffffffffffffffffff1916908160001a905350600a8561207191906142bc565b9450611fc9565b8093505050505b919050565b60007f01ffc9a7000000000000000000000000000000000000000000000000000000007bffffffffffffffffffffffffffffffffffffffffffffffffffffffff1916827bffffffffffffffffffffffffffffffffffffffffffffffffffffffff1916149050919050565b600033905090565b806002908051906020019061210c92919061300e565b5050565b600073ffffffffffffffffffffffffffffffffffffffff168473ffffffffffffffffffffffffffffffffffffffff161415612180576040517f08c379a000000000000000000000000000000000000000000000000000000000815260040161217790614072565b60405180910390fd5b600061218a6120ee565b90506121ab8160008761219c88612b4f565b6121a588612b4f565b87612c15565b8260008086815260200190815260200160002060008773ffffffffffffffffffffffffffffffffffffffff1673ffffffffffffffffffffffffffffffffffffffff168152602001908152602001600020600082825461220a9190614266565b925050819055508473ffffffffffffffffffffffffffffffffffffffff16600073ffffffffffffffffffffffffffffffffffffffff168273ffffffffffffffffffffffffffffffffffffffff167fc3d58168c5ae7397731d063d5bbf3d657854427343f4c083240f7aacaa2d0f6287876040516122889291906140ed565b60405180910390a461229f81600087878787612c1d565b5050505050565b6060600280546122b590614455565b80601f01602080910402602001604051908101604052809291908181526020018280546122e190614455565b801561232e5780601f106123035761010080835404028352916020019161232e565b820191906000526020600020905b81548152906001019060200180831161231157829003601f168201915b50505050509050919050565b815183511461237e576040517f08c379a000000000000000000000000000000000000000000000000000000000815260040161237590614052565b60405180910390fd5b600073ffffffffffffffffffffffffffffffffffffffff168473ffffffffffffffffffffffffffffffffffffffff1614156123ee576040517f08c379a00000000000000000000000000000000000000000000000000000000081526004016123e590613ed2565b60405180910390fd5b60006123f86120ee565b9050612408818787878787612c15565b60005b845181101561260557600085828151811061244f577f4e487b7100000000000000000000000000000000000000000000000000000000600052603260045260246000fd5b602002602001015190506000858381518110612494577f4e487b7100000000000000000000000000000000000000000000000000000000600052603260045260246000fd5b60200260200101519050600080600084815260200190815260200160002060008b73ffffffffffffffffffffffffffffffffffffffff1673ffffffffffffffffffffffffffffffffffffffff16815260200190815260200160002054905081811015612535576040517f08c379a000000000000000000000000000000000000000000000000000000000815260040161252c90613f52565b60405180910390fd5b81810360008085815260200190815260200160002060008c73ffffffffffffffffffffffffffffffffffffffff1673ffffffffffffffffffffffffffffffffffffffff168152602001908152602001600020819055508160008085815260200190815260200160002060008b73ffffffffffffffffffffffffffffffffffffffff1673ffffffffffffffffffffffffffffffffffffffff16815260200190815260200160002060008282546125ea9190614266565b92505081905550505050806125fe906144b8565b905061240b565b508473ffffffffffffffffffffffffffffffffffffffff168673ffffffffffffffffffffffffffffffffffffffff168273ffffffffffffffffffffffffffffffffffffffff167f4a39dc06d4c0dbc64b70af90fd698a233a518aa5d07e595d983b8c0526c8f7fb878760405161267c929190613d83565b60405180910390a4612692818787878787612e04565b505050505050565b6000600360009054906101000a900473ffffffffffffffffffffffffffffffffffffffff16905081600360006101000a81548173ffffffffffffffffffffffffffffffffffffffff021916908373ffffffffffffffffffffffffffffffffffffffff1602179055508173ffffffffffffffffffffffffffffffffffffffff168173ffffffffffffffffffffffffffffffffffffffff167f8be0079c531659141344cd1fd0a4f28419497f9722a3daafe3b4186f6b6457e060405160405180910390a35050565b8173ffffffffffffffffffffffffffffffffffffffff168373ffffffffffffffffffffffffffffffffffffffff1614156127cf576040517f08c379a00000000000000000000000000000000000000000000000000000000081526004016127c690613ff2565b60405180910390fd5b80600160008573ffffffffffffffffffffffffffffffffffffffff1673ffffffffffffffffffffffffffffffffffffffff16815260200190815260200160002060008473ffffffffffffffffffffffffffffffffffffffff1673ffffffffffffffffffffffffffffffffffffffff16815260200190815260200160002060006101000a81548160ff0219169083151502179055508173ffffffffffffffffffffffffffffffffffffffff168373ffffffffffffffffffffffffffffffffffffffff167f17307eab39ab6107e8899845ad3d59bd9653f200f220920489ca2b5937696c31836040516128c09190613dba565b60405180910390a3505050565b600073ffffffffffffffffffffffffffffffffffffffff168473ffffffffffffffffffffffffffffffffffffffff16141561293d576040517f08c379a000000000000000000000000000000000000000000000000000000000815260040161293490613ed2565b60405180910390fd5b60006129476120ee565b905061296781878761295888612b4f565b61296188612b4f565b87612c15565b600080600086815260200190815260200160002060008873ffffffffffffffffffffffffffffffffffffffff1673ffffffffffffffffffffffffffffffffffffffff168152602001908152602001600020549050838110156129fe576040517f08c379a00000000000000000000000000000000000000000000000000000000081526004016129f590613f52565b60405180910390fd5b83810360008087815260200190815260200160002060008973ffffffffffffffffffffffffffffffffffffffff1673ffffffffffffffffffffffffffffffffffffffff168152602001908152602001600020819055508360008087815260200190815260200160002060008873ffffffffffffffffffffffffffffffffffffffff1673ffffffffffffffffffffffffffffffffffffffff1681526020019081526020016000206000828254612ab39190614266565b925050819055508573ffffffffffffffffffffffffffffffffffffffff168773ffffffffffffffffffffffffffffffffffffffff168373ffffffffffffffffffffffffffffffffffffffff167fc3d58168c5ae7397731d063d5bbf3d657854427343f4c083240f7aacaa2d0f628888604051612b309291906140ed565b60405180910390a4612b46828888888888612c1d565b50505050505050565b60606000600167ffffffffffffffff811115612b94577f4e487b7100000000000000000000000000000000000000000000000000000000600052604160045260246000fd5b604051908082528060200260200182016040528015612bc25781602001602082028036833780820191505090505b5090508281600081518110612c00577f4e487b7100000000000000000000000000000000000000000000000000000000600052603260045260246000fd5b60200260200101818152505080915050919050565b505050505050565b612c3c8473ffffffffffffffffffffffffffffffffffffffff16612feb565b15612dfc578373ffffffffffffffffffffffffffffffffffffffff1663f23a6e6187878686866040518663ffffffff1660e01b8152600401612c82959493929190613d07565b602060405180830381600087803b158015612c9c57600080fd5b505af1925050508015612ccd57506040513d601f19601f82011682018060405250810190612cca9190613629565b60015b612d7357612cd96145ee565b806308c379a01415612d365750612cee614b7c565b80612cf95750612d38565b806040517f08c379a0000000000000000000000000000000000000000000000000000000008152600401612d2d9190613df0565b60405180910390fd5b505b6040517f08c379a0000000000000000000000000000000000000000000000000000000008152600401612d6a90613e12565b60405180910390fd5b63f23a6e6160e01b7bffffffffffffffffffffffffffffffffffffffffffffffffffffffff1916817bffffffffffffffffffffffffffffffffffffffffffffffffffffffff191614612dfa576040517f08c379a0000000000000000000000000000000000000000000000000000000008152600401612df190613e32565b60405180910390fd5b505b505050505050565b612e238473ffffffffffffffffffffffffffffffffffffffff16612feb565b15612fe3578373ffffffffffffffffffffffffffffffffffffffff1663bc197c8187878686866040518663ffffffff1660e01b8152600401612e69959493929190613c68565b602060405180830381600087803b158015612e8357600080fd5b505af1925050508015612eb457506040513d601f19601f82011682018060405250810190612eb19190613629565b60015b612f5a57612ec06145ee565b806308c379a01415612f1d5750612ed5614b7c565b80612ee05750612f1f565b806040517f08c379a0000000000000000000000000000000000000000000000000000000008152600401612f149190613df0565b60405180910390fd5b505b6040517f08c379a0000000000000000000000000000000000000000000000000000000008152600401612f5190613e12565b60405180910390fd5b63bc197c8160e01b7bffffffffffffffffffffffffffffffffffffffffffffffffffffffff1916817bffffffffffffffffffffffffffffffffffffffffffffffffffffffff191614612fe1576040517f08c379a0000000000000000000000000000000000000000000000000000000008152600401612fd890613e32565b60405180910390fd5b505b505050505050565b6000808273ffffffffffffffffffffffffffffffffffffffff163b119050919050565b82805461301a90614455565b90600052602060002090601f01602090048101928261303c5760008555613083565b82601f1061305557805160ff1916838001178555613083565b82800160010185558215613083579182015b82811115613082578251825591602001919060010190613067565b5b5090506130909190613094565b5090565b5b808211156130ad576000816000905550600101613095565b5090565b60006130c46130bf8461413b565b614116565b905080838252602082019050828560208602820111156130e357600080fd5b60005b8581101561311357816130f98882613205565b8452602084019350602083019250506001810190506130e6565b5050509392505050565b600061313061312b84614167565b614116565b9050808382526020820190508285602086028201111561314f57600080fd5b60005b8581101561317f57816131658882613316565b845260208401935060208301925050600181019050613152565b5050509392505050565b600061319c61319784614193565b614116565b9050828152602081018484840111156131b457600080fd5b6131bf848285614413565b509392505050565b60006131da6131d5846141c4565b614116565b9050828152602081018484840111156131f257600080fd5b6131fd848285614413565b509392505050565b60008135905061321481614c12565b92915050565b600082601f83011261322b57600080fd5b813561323b8482602086016130b1565b91505092915050565b600082601f83011261325557600080fd5b813561326584826020860161311d565b91505092915050565b60008135905061327d81614c29565b92915050565b60008151905061329281614c29565b92915050565b6000813590506132a781614c40565b92915050565b6000815190506132bc81614c40565b92915050565b600082601f8301126132d357600080fd5b81356132e3848260208601613189565b91505092915050565b600082601f8301126132fd57600080fd5b813561330d8482602086016131c7565b91505092915050565b60008135905061332581614c57565b92915050565b60008151905061333a81614c57565b92915050565b60006020828403121561335257600080fd5b600061336084828501613205565b91505092915050565b6000806040838503121561337c57600080fd5b600061338a85828601613205565b925050602061339b85828601613205565b9150509250929050565b600080600080600060a086880312156133bd57600080fd5b60006133cb88828901613205565b95505060206133dc88828901613205565b945050604086013567ffffffffffffffff8111156133f957600080fd5b61340588828901613244565b935050606086013567ffffffffffffffff81111561342257600080fd5b61342e88828901613244565b925050608086013567ffffffffffffffff81111561344b57600080fd5b613457888289016132c2565b9150509295509295909350565b600080600080600060a0868803121561347c57600080fd5b600061348a88828901613205565b955050602061349b88828901613205565b94505060406134ac88828901613316565b93505060606134bd88828901613316565b925050608086013567ffffffffffffffff8111156134da57600080fd5b6134e6888289016132c2565b9150509295509295909350565b6000806040838503121561350657600080fd5b600061351485828601613205565b92505060206135258582860161326e565b9150509250929050565b6000806040838503121561354257600080fd5b600061355085828601613205565b925050602061356185828601613316565b9150509250929050565b6000806040838503121561357e57600080fd5b600083013567ffffffffffffffff81111561359857600080fd5b6135a48582860161321a565b925050602083013567ffffffffffffffff8111156135c157600080fd5b6135cd85828601613244565b9150509250929050565b6000602082840312156135e957600080fd5b60006135f784828501613283565b91505092915050565b60006020828403121561361257600080fd5b600061362084828501613298565b91505092915050565b60006020828403121561363b57600080fd5b6000613649848285016132ad565b91505092915050565b60006020828403121561366457600080fd5b600082013567ffffffffffffffff81111561367e57600080fd5b61368a848285016132ec565b91505092915050565b6000602082840312156136a557600080fd5b60006136b384828501613316565b91505092915050565b6000602082840312156136ce57600080fd5b60006136dc8482850161332b565b91505092915050565b600080604083850312156136f857600080fd5b600061370685828601613316565b925050602061371785828601613205565b9150509250929050565b6000806040838503121561373457600080fd5b600061374285828601613316565b925050602083013567ffffffffffffffff81111561375f57600080fd5b61376b858286016132ec565b9150509250929050565b6000806040838503121561378857600080fd5b600061379685828601613316565b92505060206137a785828601613316565b9150509250929050565b6000806000606084860312156137c657600080fd5b60006137d486828701613316565b93505060206137e586828701613316565b925050604084013567ffffffffffffffff81111561380257600080fd5b61380e868287016132c2565b9150509250925092565b60006138248383613c2f565b60208301905092915050565b6138398161437b565b82525050565b600061384a82614205565b6138548185614233565b935061385f836141f5565b8060005b838110156138905781516138778882613818565b975061388283614226565b925050600181019050613863565b5085935050505092915050565b6138a68161438d565b82525050565b60006138b782614210565b6138c18185614244565b93506138d1818560208601614422565b6138da81614610565b840191505092915050565b6138ee816143ef565b82525050565b60006138ff8261421b565b6139098185614255565b9350613919818560208601614422565b61392281614610565b840191505092915050565b600061393a603483614255565b91506139458261462e565b604082019050919050565b600061395d602883614255565b91506139688261467d565b604082019050919050565b6000613980602b83614255565b915061398b826146cc565b604082019050919050565b60006139a3602683614255565b91506139ae8261471b565b604082019050919050565b60006139c6602983614255565b91506139d18261476a565b604082019050919050565b60006139e9601483614255565b91506139f4826147b9565b602082019050919050565b6000613a0c602583614255565b9150613a17826147e2565b604082019050919050565b6000613a2f601183614255565b9150613a3a82614831565b602082019050919050565b6000613a52603283614255565b9150613a5d8261485a565b604082019050919050565b6000613a75601283614255565b9150613a80826148a9565b602082019050919050565b6000613a98602a83614255565b9150613aa3826148d2565b604082019050919050565b6000613abb602083614255565b9150613ac682614921565b602082019050919050565b6000613ade601a83614255565b9150613ae98261494a565b602082019050919050565b6000613b01601f83614255565b9150613b0c82614973565b602082019050919050565b6000613b24601a83614255565b9150613b2f8261499c565b602082019050919050565b6000613b47602983614255565b9150613b52826149c5565b604082019050919050565b6000613b6a602983614255565b9150613b7582614a14565b604082019050919050565b6000613b8d601783614255565b9150613b9882614a63565b602082019050919050565b6000613bb0602883614255565b9150613bbb82614a8c565b604082019050919050565b6000613bd3602183614255565b9150613bde82614adb565b604082019050919050565b6000613bf6601b83614255565b9150613c0182614b2a565b602082019050919050565b6000613c19601783614255565b9150613c2482614b53565b602082019050919050565b613c38816143e5565b82525050565b613c47816143e5565b82525050565b6000602082019050613c626000830184613830565b92915050565b600060a082019050613c7d6000830188613830565b613c8a6020830187613830565b8181036040830152613c9c818661383f565b90508181036060830152613cb0818561383f565b90508181036080830152613cc481846138ac565b90509695505050505050565b6000606082019050613ce56000830186613830565b613cf26020830185613830565b613cff6040830184613c3e565b949350505050565b600060a082019050613d1c6000830188613830565b613d296020830187613830565b613d366040830186613c3e565b613d436060830185613c3e565b8181036080830152613d5581846138ac565b90509695505050505050565b60006020820190508181036000830152613d7b818461383f565b905092915050565b60006040820190508181036000830152613d9d818561383f565b90508181036020830152613db1818461383f565b90509392505050565b6000602082019050613dcf600083018461389d565b92915050565b6000602082019050613dea60008301846138e5565b92915050565b60006020820190508181036000830152613e0a81846138f4565b905092915050565b60006020820190508181036000830152613e2b8161392d565b9050919050565b60006020820190508181036000830152613e4b81613950565b9050919050565b60006020820190508181036000830152613e6b81613973565b9050919050565b60006020820190508181036000830152613e8b81613996565b9050919050565b60006020820190508181036000830152613eab816139b9565b9050919050565b60006020820190508181036000830152613ecb816139dc565b9050919050565b60006020820190508181036000830152613eeb816139ff565b9050919050565b60006020820190508181036000830152613f0b81613a22565b9050919050565b60006020820190508181036000830152613f2b81613a45565b9050919050565b60006020820190508181036000830152613f4b81613a68565b9050919050565b60006020820190508181036000830152613f6b81613a8b565b9050919050565b60006020820190508181036000830152613f8b81613aae565b9050919050565b60006020820190508181036000830152613fab81613ad1565b9050919050565b60006020820190508181036000830152613fcb81613af4565b9050919050565b60006020820190508181036000830152613feb81613b17565b9050919050565b6000602082019050818103600083015261400b81613b3a565b9050919050565b6000602082019050818103600083015261402b81613b5d565b9050919050565b6000602082019050818103600083015261404b81613b80565b9050919050565b6000602082019050818103600083015261406b81613ba3565b9050919050565b6000602082019050818103600083015261408b81613bc6565b9050919050565b600060208201905081810360008301526140ab81613be9565b9050919050565b600060208201905081810360008301526140cb81613c0c565b9050919050565b60006020820190506140e76000830184613c3e565b92915050565b60006040820190506141026000830185613c3e565b61410f6020830184613c3e565b9392505050565b6000614120614131565b905061412c8282614487565b919050565b6000604051905090565b600067ffffffffffffffff821115614156576141556145bf565b5b602082029050602081019050919050565b600067ffffffffffffffff821115614182576141816145bf565b5b602082029050602081019050919050565b600067ffffffffffffffff8211156141ae576141ad6145bf565b5b6141b782614610565b9050602081019050919050565b600067ffffffffffffffff8211156141df576141de6145bf565b5b6141e882614610565b9050602081019050919050565b6000819050602082019050919050565b600081519050919050565b600081519050919050565b600081519050919050565b6000602082019050919050565b600082825260208201905092915050565b600082825260208201905092915050565b600082825260208201905092915050565b6000614271826143e5565b915061427c836143e5565b9250827fffffffffffffffffffffffffffffffffffffffffffffffffffffffffffffffff038211156142b1576142b0614532565b5b828201905092915050565b60006142c7826143e5565b91506142d2836143e5565b9250826142e2576142e1614561565b5b828204905092915050565b60006142f8826143e5565b9150614303836143e5565b9250817fffffffffffffffffffffffffffffffffffffffffffffffffffffffffffffffff048311821515161561433c5761433b614532565b5b828202905092915050565b6000614352826143e5565b915061435d836143e5565b9250828210156143705761436f614532565b5b828203905092915050565b6000614386826143c5565b9050919050565b60008115159050919050565b60007fffffffff0000000000000000000000000000000000000000000000000000000082169050919050565b600073ffffffffffffffffffffffffffffffffffffffff82169050919050565b6000819050919050565b60006143fa82614401565b9050919050565b600061440c826143c5565b9050919050565b82818337600083830152505050565b60005b83811015614440578082015181840152602081019050614425565b8381111561444f576000848401525b50505050565b6000600282049050600182168061446d57607f821691505b6020821081141561448157614480614590565b5b50919050565b61449082614610565b810181811067ffffffffffffffff821117156144af576144ae6145bf565b5b80604052505050565b60006144c3826143e5565b91507fffffffffffffffffffffffffffffffffffffffffffffffffffffffffffffffff8214156144f6576144f5614532565b5b600182019050919050565b600061450c826143e5565b9150614517836143e5565b92508261452757614526614561565b5b828206905092915050565b7f4e487b7100000000000000000000000000000000000000000000000000000000600052601160045260246000fd5b7f4e487b7100000000000000000000000000000000000000000000000000000000600052601260045260246000fd5b7f4e487b7100000000000000000000000000000000000000000000000000000000600052602260045260246000fd5b7f4e487b7100000000000000000000000000000000000000000000000000000000600052604160045260246000fd5b600060033d111561460d5760046000803e61460a600051614621565b90505b90565b6000601f19601f8301169050919050565b60008160e01c9050919050565b7f455243313135353a207472616e7366657220746f206e6f6e204552433131353560008201527f526563656976657220696d706c656d656e746572000000000000000000000000602082015250565b7f455243313135353a204552433131353552656365697665722072656a6563746560008201527f6420746f6b656e73000000000000000000000000000000000000000000000000602082015250565b7f455243313135353a2062616c616e636520717565727920666f7220746865207a60008201527f65726f2061646472657373000000000000000000000000000000000000000000602082015250565b7f4f776e61626c653a206e6577206f776e657220697320746865207a65726f206160008201527f6464726573730000000000000000000000000000000000000000000000000000602082015250565b7f455243313135353a2063616c6c6572206973206e6f74206f776e6572206e6f7260008201527f20617070726f7665640000000000000000000000000000000000000000000000602082015250565b7f496e73756666696369656e742062616c616e6365000000000000000000000000600082015250565b7f455243313135353a207472616e7366657220746f20746865207a65726f20616460008201527f6472657373000000000000000000000000000000000000000000000000000000602082015250565b7f4e6f6e6578697374656e7420746f6b656e000000000000000000000000000000600082015250565b7f455243313135353a207472616e736665722063616c6c6572206973206e6f742060008201527f6f776e6572206e6f7220617070726f7665640000000000000000000000000000602082015250565b7f4661696c656420746f207472616e736665720000000000000000000000000000600082015250565b7f455243313135353a20696e73756666696369656e742062616c616e636520666f60008201527f72207472616e7366657200000000000000000000000000000000000000000000602082015250565b7f4f776e61626c653a2063616c6c6572206973206e6f7420746865206f776e6572600082015250565b7f457863656564206d6178206d696e7420706572206d696e746572000000000000600082015250565b7f5472656173757279207374616765206973206e6f742061637469766174656400600082015250565b7f546f6b656e2070726963652063616e6e6f74206265207a65726f000000000000600082015250565b7f455243313135353a2073657474696e6720617070726f76616c2073746174757360008201527f20666f722073656c660000000000000000000000000000000000000000000000602082015250565b7f455243313135353a206163636f756e747320616e6420696473206c656e67746860008201527f206d69736d617463680000000000000000000000000000000000000000000000602082015250565b7f547265617375727920616c7265616479206d696e746564000000000000000000600082015250565b7f455243313135353a2069647320616e6420616d6f756e7473206c656e6774682060008201527f6d69736d61746368000000000000000000000000000000000000000000000000602082015250565b7f455243313135353a206d696e7420746f20746865207a65726f2061646472657360008201527f7300000000000000000000000000000000000000000000000000000000000000602082015250565b7f53616c65207374616765206973206e6f74206163746976617465640000000000600082015250565b7f4578636565642073616c6573206d617820737570706c79000000000000000000600082015250565b600060443d1015614b8c57614c0f565b614b94614131565b60043d036004823e80513d602482011167ffffffffffffffff82111715614bbc575050614c0f565b808201805167ffffffffffffffff811115614bda5750505050614c0f565b80602083010160043d038501811115614bf7575050505050614c0f565b614c0682602001850186614487565b82955050505050505b90565b614c1b8161437b565b8114614c2657600080fd5b50565b614c328161438d565b8114614c3d57600080fd5b50565b614c4981614399565b8114614c5457600080fd5b50565b614c60816143e5565b8114614c6b57600080fd5b5056fea2646970667358221220ef8c612b1dc3eb315f0a42611900ae22950114d9006b8ed5cdb20c193b84471b64736f6c63430008040033",
  "linkReferences": {},
  "deployedLinkReferences": {}
}