{
  "_format": "hh-sol-artifact-1",
  "contractName": "LBSFragment",
  "sourceName": "contracts/LBSFragment.sol",
  "abi": [
    {
      "inputs": [
        {
          "internalType": "string",
          "name": "_name",
          "type": "string"
        },
        {
          "internalType": "string",
          "name": "_symbol",
          "type": "string"
        },
        {
          "internalType": "string",
          "name": "_baseUri",
          "type": "string"
        },
        {
          "internalType": "address",
          "name": "_usdcAddress",
          "type": "address"
        },
        {
          "internalType": "address",
          "name": "_beneficaryAddress",
          "type": "address"
        }
      ],
      "stateMutability": "nonpayable",
      "type": "constructor"
    },
    {
      "anonymous": false,
      "inputs": [
        {
          "indexed": true,
          "internalType": "address",
          "name": "account",
          "type": "address"
        },
        {
          "indexed": true,
          "internalType": "address",
          "name": "operator",
          "type": "address"
        },
        {
          "indexed": false,
          "internalType": "bool",
          "name": "approved",
          "type": "bool"
        }
      ],
      "name": "ApprovalForAll",
      "type": "event"
    },
    {
      "anonymous": false,
      "inputs": [
        {
          "indexed": true,
          "internalType": "address",
          "name": "previousOwner",
          "type": "address"
        },
        {
          "indexed": true,
          "internalType": "address",
          "name": "newOwner",
          "type": "address"
        }
      ],
      "name": "OwnershipTransferred",
      "type": "event"
    },
    {
      "anonymous": false,
      "inputs": [
        {
          "indexed": true,
          "internalType": "address",
          "name": "operator",
          "type": "address"
        },
        {
          "indexed": true,
          "internalType": "address",
          "name": "from",
          "type": "address"
        },
        {
          "indexed": true,
          "internalType": "address",
          "name": "to",
          "type": "address"
        },
        {
          "indexed": false,
          "internalType": "uint256[]",
          "name": "ids",
          "type": "uint256[]"
        },
        {
          "indexed": false,
          "internalType": "uint256[]",
          "name": "values",
          "type": "uint256[]"
        }
      ],
      "name": "TransferBatch",
      "type": "event"
    },
    {
      "anonymous": false,
      "inputs": [
        {
          "indexed": true,
          "internalType": "address",
          "name": "operator",
          "type": "address"
        },
        {
          "indexed": true,
          "internalType": "address",
          "name": "from",
          "type": "address"
        },
        {
          "indexed": true,
          "internalType": "address",
          "name": "to",
          "type": "address"
        },
        {
          "indexed": false,
          "internalType": "uint256",
          "name": "id",
          "type": "uint256"
        },
        {
          "indexed": false,
          "internalType": "uint256",
          "name": "value",
          "type": "uint256"
        }
      ],
      "name": "TransferSingle",
      "type": "event"
    },
    {
      "anonymous": false,
      "inputs": [
        {
          "indexed": false,
          "internalType": "string",
          "name": "value",
          "type": "string"
        },
        {
          "indexed": true,
          "internalType": "uint256",
          "name": "id",
          "type": "uint256"
        }
      ],
      "name": "URI",
      "type": "event"
    },
    {
      "inputs": [],
      "name": "MAX_QTY_PER_MINTER",
      "outputs": [
        {
          "internalType": "uint256",
          "name": "",
          "type": "uint256"
        }
      ],
      "stateMutability": "view",
      "type": "function"
    },
    {
      "inputs": [],
      "name": "STAGE_1_MAX_SUPPLY",
      "outputs": [
        {
          "internalType": "uint256",
          "name": "",
          "type": "uint256"
        }
      ],
      "stateMutability": "view",
      "type": "function"
    },
    {
      "inputs": [],
      "name": "STAGE_1_TOKEN_ID",
      "outputs": [
        {
          "internalType": "uint256",
          "name": "",
          "type": "uint256"
        }
      ],
      "stateMutability": "view",
      "type": "function"
    },
    {
      "inputs": [],
      "name": "STAGE_2_MAX_SUPPLY",
      "outputs": [
        {
          "internalType": "uint256",
          "name": "",
          "type": "uint256"
        }
      ],
      "stateMutability": "view",
      "type": "function"
    },
    {
      "inputs": [],
      "name": "STAGE_2_TOKEN_ID",
      "outputs": [
        {
          "internalType": "uint256",
          "name": "",
          "type": "uint256"
        }
      ],
      "stateMutability": "view",
      "type": "function"
    },
    {
      "inputs": [],
      "name": "STAGE_3_MAX_SUPPLY",
      "outputs": [
        {
          "internalType": "uint256",
          "name": "",
          "type": "uint256"
        }
      ],
      "stateMutability": "view",
      "type": "function"
    },
    {
      "inputs": [],
      "name": "STAGE_3_TOKEN_ID",
      "outputs": [
        {
          "internalType": "uint256",
          "name": "",
          "type": "uint256"
        }
      ],
      "stateMutability": "view",
      "type": "function"
    },
    {
      "inputs": [],
      "name": "STAGE_4_MAX_SUPPLY",
      "outputs": [
        {
          "internalType": "uint256",
          "name": "",
          "type": "uint256"
        }
      ],
      "stateMutability": "view",
      "type": "function"
    },
    {
      "inputs": [],
      "name": "STAGE_4_SALE_MAX_QTY",
      "outputs": [
        {
          "internalType": "uint256",
          "name": "",
          "type": "uint256"
        }
      ],
      "stateMutability": "view",
      "type": "function"
    },
    {
      "inputs": [],
      "name": "STAGE_4_TOKEN_ID",
      "outputs": [
        {
          "internalType": "uint256",
          "name": "",
          "type": "uint256"
        }
      ],
      "stateMutability": "view",
      "type": "function"
    },
    {
      "inputs": [],
      "name": "STAGE_4_TREASURY_MAX_QTY",
      "outputs": [
        {
          "internalType": "uint256",
          "name": "",
          "type": "uint256"
        }
      ],
      "stateMutability": "view",
      "type": "function"
    },
    {
      "inputs": [],
      "name": "TOTAL_TOKEN_QTY",
      "outputs": [
        {
          "internalType": "uint256",
          "name": "",
          "type": "uint256"
        }
      ],
      "stateMutability": "view",
      "type": "function"
    },
    {
      "inputs": [],
      "name": "activeStage",
      "outputs": [
        {
          "internalType": "uint256",
          "name": "",
          "type": "uint256"
        }
      ],
      "stateMutability": "view",
      "type": "function"
    },
    {
      "inputs": [
        {
          "internalType": "address",
          "name": "account",
          "type": "address"
        },
        {
          "internalType": "uint256",
          "name": "id",
          "type": "uint256"
        }
      ],
      "name": "balanceOf",
      "outputs": [
        {
          "internalType": "uint256",
          "name": "",
          "type": "uint256"
        }
      ],
      "stateMutability": "view",
      "type": "function"
    },
    {
      "inputs": [
        {
          "internalType": "address[]",
          "name": "accounts",
          "type": "address[]"
        },
        {
          "internalType": "uint256[]",
          "name": "ids",
          "type": "uint256[]"
        }
      ],
      "name": "balanceOfBatch",
      "outputs": [
        {
          "internalType": "uint256[]",
          "name": "",
          "type": "uint256[]"
        }
      ],
      "stateMutability": "view",
      "type": "function"
    },
    {
      "inputs": [],
      "name": "baseUri",
      "outputs": [
        {
          "internalType": "string",
          "name": "",
          "type": "string"
        }
      ],
      "stateMutability": "view",
      "type": "function"
    },
    {
      "inputs": [],
      "name": "beneficaryAddress",
      "outputs": [
        {
          "internalType": "address",
          "name": "",
          "type": "address"
        }
      ],
      "stateMutability": "view",
      "type": "function"
    },
    {
      "inputs": [
        {
          "internalType": "uint256",
          "name": "_tokenId",
          "type": "uint256"
        }
      ],
      "name": "getMaxSaleSupply",
      "outputs": [
        {
          "internalType": "uint256",
          "name": "",
          "type": "uint256"
        }
      ],
      "stateMutability": "pure",
      "type": "function"
    },
    {
      "inputs": [
        {
          "internalType": "uint256",
          "name": "_tokenId",
          "type": "uint256"
        }
      ],
      "name": "getPrice",
      "outputs": [
        {
          "internalType": "uint256",
          "name": "",
          "type": "uint256"
        }
      ],
      "stateMutability": "view",
      "type": "function"
    },
    {
      "inputs": [
        {
          "internalType": "address",
          "name": "account",
          "type": "address"
        },
        {
          "internalType": "address",
          "name": "operator",
          "type": "address"
        }
      ],
      "name": "isApprovedForAll",
      "outputs": [
        {
          "internalType": "bool",
          "name": "",
          "type": "bool"
        }
      ],
      "stateMutability": "view",
      "type": "function"
    },
    {
      "inputs": [
        {
          "internalType": "uint256",
          "name": "_tokenId",
          "type": "uint256"
        },
        {
          "internalType": "uint256",
          "name": "_quantity",
          "type": "uint256"
        },
        {
          "internalType": "bytes",
          "name": "_data",
          "type": "bytes"
        }
      ],
      "name": "mint",
      "outputs": [],
      "stateMutability": "nonpayable",
      "type": "function"
    },
    {
      "inputs": [],
      "name": "mintTreasury",
      "outputs": [],
      "stateMutability": "nonpayable",
      "type": "function"
    },
    {
      "inputs": [],
      "name": "name",
      "outputs": [
        {
          "internalType": "string",
          "name": "",
          "type": "string"
        }
      ],
      "stateMutability": "view",
      "type": "function"
    },
    {
      "inputs": [],
      "name": "owner",
      "outputs": [
        {
          "internalType": "address",
          "name": "",
          "type": "address"
        }
      ],
      "stateMutability": "view",
      "type": "function"
    },
    {
      "inputs": [],
      "name": "renounceOwnership",
      "outputs": [],
      "stateMutability": "nonpayable",
      "type": "function"
    },
    {
      "inputs": [
        {
          "internalType": "address",
          "name": "from",
          "type": "address"
        },
        {
          "internalType": "address",
          "name": "to",
          "type": "address"
        },
        {
          "internalType": "uint256[]",
          "name": "ids",
          "type": "uint256[]"
        },
        {
          "internalType": "uint256[]",
          "name": "amounts",
          "type": "uint256[]"
        },
        {
          "internalType": "bytes",
          "name": "data",
          "type": "bytes"
        }
      ],
      "name": "safeBatchTransferFrom",
      "outputs": [],
      "stateMutability": "nonpayable",
      "type": "function"
    },
    {
      "inputs": [
        {
          "internalType": "address",
          "name": "from",
          "type": "address"
        },
        {
          "internalType": "address",
          "name": "to",
          "type": "address"
        },
        {
          "internalType": "uint256",
          "name": "id",
          "type": "uint256"
        },
        {
          "internalType": "uint256",
          "name": "amount",
          "type": "uint256"
        },
        {
          "internalType": "bytes",
          "name": "data",
          "type": "bytes"
        }
      ],
      "name": "safeTransferFrom",
      "outputs": [],
      "stateMutability": "nonpayable",
      "type": "function"
    },
    {
      "inputs": [
        {
          "internalType": "uint256",
          "name": "_tokenId",
          "type": "uint256"
        }
      ],
      "name": "setActiveStage",
      "outputs": [],
      "stateMutability": "nonpayable",
      "type": "function"
    },
    {
      "inputs": [
        {
          "internalType": "address",
          "name": "operator",
          "type": "address"
        },
        {
          "internalType": "bool",
          "name": "approved",
          "type": "bool"
        }
      ],
      "name": "setApprovalForAll",
      "outputs": [],
      "stateMutability": "nonpayable",
      "type": "function"
    },
    {
      "inputs": [
        {
          "internalType": "uint256",
          "name": "_tokenId",
          "type": "uint256"
        },
        {
          "internalType": "string",
          "name": "_uri",
          "type": "string"
        }
      ],
      "name": "setCustomURI",
      "outputs": [],
      "stateMutability": "nonpayable",
      "type": "function"
    },
    {
      "inputs": [
        {
          "internalType": "uint256",
          "name": "_tokenId",
          "type": "uint256"
        },
        {
          "internalType": "uint256",
          "name": "_price",
          "type": "uint256"
        }
      ],
      "name": "setPrice",
      "outputs": [],
      "stateMutability": "nonpayable",
      "type": "function"
    },
    {
      "inputs": [
        {
          "internalType": "string",
          "name": "_uri",
          "type": "string"
        }
      ],
      "name": "setURI",
      "outputs": [],
      "stateMutability": "nonpayable",
      "type": "function"
    },
    {
      "inputs": [
        {
          "internalType": "bytes4",
          "name": "interfaceId",
          "type": "bytes4"
        }
      ],
      "name": "supportsInterface",
      "outputs": [
        {
          "internalType": "bool",
          "name": "",
          "type": "bool"
        }
      ],
      "stateMutability": "view",
      "type": "function"
    },
    {
      "inputs": [],
      "name": "symbol",
      "outputs": [
        {
          "internalType": "string",
          "name": "",
          "type": "string"
        }
      ],
      "stateMutability": "view",
      "type": "function"
    },
    {
      "inputs": [
        {
          "internalType": "uint256",
          "name": "",
          "type": "uint256"
        }
      ],
      "name": "tokenToCurtomUri",
      "outputs": [
        {
          "internalType": "string",
          "name": "",
          "type": "string"
        }
      ],
      "stateMutability": "view",
      "type": "function"
    },
    {
      "inputs": [
        {
          "internalType": "uint256",
          "name": "",
          "type": "uint256"
        }
      ],
      "name": "tokenToMintedQty",
      "outputs": [
        {
          "internalType": "uint256",
          "name": "",
          "type": "uint256"
        }
      ],
      "stateMutability": "view",
      "type": "function"
    },
    {
      "inputs": [
        {
          "internalType": "uint256",
          "name": "",
          "type": "uint256"
        },
        {
          "internalType": "address",
          "name": "",
          "type": "address"
        }
      ],
      "name": "tokenToMinterBalance",
      "outputs": [
        {
          "internalType": "uint256",
          "name": "",
          "type": "uint256"
        }
      ],
      "stateMutability": "view",
      "type": "function"
    },
    {
      "inputs": [
        {
          "internalType": "uint256",
          "name": "",
          "type": "uint256"
        }
      ],
      "name": "tokenToPrice",
      "outputs": [
        {
          "internalType": "uint256",
          "name": "",
          "type": "uint256"
        }
      ],
      "stateMutability": "view",
      "type": "function"
    },
    {
      "inputs": [
        {
          "internalType": "address",
          "name": "newOwner",
          "type": "address"
        }
      ],
      "name": "transferOwnership",
      "outputs": [],
      "stateMutability": "nonpayable",
      "type": "function"
    },
    {
      "inputs": [],
      "name": "treasuryMinted",
      "outputs": [
        {
          "internalType": "bool",
          "name": "",
          "type": "bool"
        }
      ],
      "stateMutability": "view",
      "type": "function"
    },
    {
      "inputs": [
        {
          "internalType": "uint256",
          "name": "_tokenId",
          "type": "uint256"
        }
      ],
      "name": "uri",
      "outputs": [
        {
          "internalType": "string",
          "name": "",
          "type": "string"
        }
      ],
      "stateMutability": "view",
      "type": "function"
    },
    {
      "inputs": [],
      "name": "usdc",
      "outputs": [
        {
          "internalType": "contract IERC20",
          "name": "",
          "type": "address"
        }
      ],
      "stateMutability": "view",
      "type": "function"
    },
    {
      "inputs": [],
      "name": "withdraw",
      "outputs": [],
      "stateMutability": "nonpayable",
      "type": "function"
    }
  ],
  "bytecode": "0x60806040523480156200001157600080fd5b50604051620060c5380380620060c5833981810160405281019062000037919062000908565b6040518060200160405280600081525062000058816200030a60201b60201c565b50620000796200006d6200032660201b60201c565b6200032e60201b60201c565b846004908051906020019062000091929190620007cf565b508360059080519060200190620000aa929190620007cf565b50620000dd83604051602001620000c2919062000b10565b604051602081830303815290604052620003f460201b60201c565b62000129600184620000fb60016200049760201b620021da1760201c565b6040516020016200010e92919062000b36565b6040516020818303038152906040526200065960201b60201c565b620001756002846200014760026200049760201b620021da1760201c565b6040516020016200015a92919062000b36565b6040516020818303038152906040526200065960201b60201c565b620001c16003846200019360036200049760201b620021da1760201c565b604051602001620001a692919062000b36565b6040516020818303038152906040526200065960201b60201c565b6200020d600484620001df60046200049760201b620021da1760201c565b604051602001620001f292919062000b36565b6040516020818303038152906040526200065960201b60201c565b81600760006101000a81548173ffffffffffffffffffffffffffffffffffffffff021916908373ffffffffffffffffffffffffffffffffffffffff160217905550620f4240600b60006001815260200190815260200160002081905550621e8480600b60006002815260200190815260200160002081905550622dc6c0600b60006003815260200190815260200160002081905550623d0900600b6000600481526020019081526020016000208190555080600960016101000a81548173ffffffffffffffffffffffffffffffffffffffff021916908373ffffffffffffffffffffffffffffffffffffffff160217905550505050505062001050565b806002908051906020019062000322929190620007cf565b5050565b600033905090565b6000600360009054906101000a900473ffffffffffffffffffffffffffffffffffffffff16905081600360006101000a81548173ffffffffffffffffffffffffffffffffffffffff021916908373ffffffffffffffffffffffffffffffffffffffff1602179055508173ffffffffffffffffffffffffffffffffffffffff168173ffffffffffffffffffffffffffffffffffffffff167f8be0079c531659141344cd1fd0a4f28419497f9722a3daafe3b4186f6b6457e060405160405180910390a35050565b620004046200032660201b60201c565b73ffffffffffffffffffffffffffffffffffffffff166200042a620007a560201b60201c565b73ffffffffffffffffffffffffffffffffffffffff161462000483576040517f08c379a00000000000000000000000000000000000000000000000000000000081526004016200047a9062000bbe565b60405180910390fd5b62000494816200030a60201b60201c565b50565b60606000821415620004e1576040518060400160405280600181526020017f3000000000000000000000000000000000000000000000000000000000000000815250905062000654565b600082905060005b6000821462000519578080620004ff9062000e16565b915050600a8262000511919062000cc3565b9150620004e9565b60008167ffffffffffffffff8111156200055c577f4e487b7100000000000000000000000000000000000000000000000000000000600052604160045260246000fd5b6040519080825280601f01601f1916602001820160405280156200058f5781602001600182028036833780820191505090505b5090505b600085146200064d57600182620005ab919062000cfb565b9150600a85620005bc919062000e64565b6030620005ca919062000c66565b60f81b81838151811062000607577f4e487b7100000000000000000000000000000000000000000000000000000000600052603260045260246000fd5b60200101907effffffffffffffffffffffffffffffffffffffffffffffffffffffffffffff1916908160001a905350600a8562000645919062000cc3565b945062000593565b8093505050505b919050565b620006696200032660201b60201c565b73ffffffffffffffffffffffffffffffffffffffff166200068f620007a560201b60201c565b73ffffffffffffffffffffffffffffffffffffffff1614620006e8576040517f08c379a0000000000000000000000000000000000000000000000000000000008152600401620006df9062000bbe565b60405180910390fd5b60018210158015620006fb575060048211155b6200073d576040517f08c379a0000000000000000000000000000000000000000000000000000000008152600401620007349062000b9c565b60405180910390fd5b80600a6000848152602001908152602001600020908051906020019062000766929190620007cf565b50817f6bb7ff708619ba0610cba295a58592e0451dee2622938c8755667688daf3529b8260405162000799919062000b78565b60405180910390a25050565b6000600360009054906101000a900473ffffffffffffffffffffffffffffffffffffffff16905090565b828054620007dd9062000daa565b90600052602060002090601f0160209004810192826200080157600085556200084d565b82601f106200081c57805160ff19168380011785556200084d565b828001600101855582156200084d579182015b828111156200084c5782518255916020019190600101906200082f565b5b5090506200085c919062000860565b5090565b5b808211156200087b57600081600090555060010162000861565b5090565b600062000896620008908462000c09565b62000be0565b905082815260208101848484011115620008af57600080fd5b620008bc84828562000d74565b509392505050565b600081519050620008d58162001036565b92915050565b600082601f830112620008ed57600080fd5b8151620008ff8482602086016200087f565b91505092915050565b600080600080600060a086880312156200092157600080fd5b600086015167ffffffffffffffff8111156200093c57600080fd5b6200094a88828901620008db565b955050602086015167ffffffffffffffff8111156200096857600080fd5b6200097688828901620008db565b945050604086015167ffffffffffffffff8111156200099457600080fd5b620009a288828901620008db565b9350506060620009b588828901620008c4565b9250506080620009c888828901620008c4565b9150509295509295909350565b6000620009e28262000c3f565b620009ee818562000c4a565b935062000a0081856020860162000d74565b62000a0b8162000f58565b840191505092915050565b600062000a238262000c3f565b62000a2f818562000c5b565b935062000a4181856020860162000d74565b80840191505092915050565b600062000a5c600a8362000c5b565b915062000a698262000f69565b600a82019050919050565b600062000a8360118362000c4a565b915062000a908262000f92565b602082019050919050565b600062000aaa60058362000c5b565b915062000ab78262000fbb565b600582019050919050565b600062000ad160208362000c4a565b915062000ade8262000fe4565b602082019050919050565b600062000af860018362000c5b565b915062000b05826200100d565b600182019050919050565b600062000b1e828462000a16565b915062000b2b8262000a4d565b915081905092915050565b600062000b44828562000a16565b915062000b518262000ae9565b915062000b5f828462000a16565b915062000b6c8262000a9b565b91508190509392505050565b6000602082019050818103600083015262000b948184620009d5565b905092915050565b6000602082019050818103600083015262000bb78162000a74565b9050919050565b6000602082019050818103600083015262000bd98162000ac2565b9050919050565b600062000bec62000bff565b905062000bfa828262000de0565b919050565b6000604051905090565b600067ffffffffffffffff82111562000c275762000c2662000f29565b5b62000c328262000f58565b9050602081019050919050565b600081519050919050565b600082825260208201905092915050565b600081905092915050565b600062000c738262000d6a565b915062000c808362000d6a565b9250827fffffffffffffffffffffffffffffffffffffffffffffffffffffffffffffffff0382111562000cb85762000cb762000e9c565b5b828201905092915050565b600062000cd08262000d6a565b915062000cdd8362000d6a565b92508262000cf05762000cef62000ecb565b5b828204905092915050565b600062000d088262000d6a565b915062000d158362000d6a565b92508282101562000d2b5762000d2a62000e9c565b5b828203905092915050565b600062000d438262000d4a565b9050919050565b600073ffffffffffffffffffffffffffffffffffffffff82169050919050565b6000819050919050565b60005b8381101562000d9457808201518184015260208101905062000d77565b8381111562000da4576000848401525b50505050565b6000600282049050600182168062000dc357607f821691505b6020821081141562000dda5762000dd962000efa565b5b50919050565b62000deb8262000f58565b810181811067ffffffffffffffff8211171562000e0d5762000e0c62000f29565b5b80604052505050565b600062000e238262000d6a565b91507fffffffffffffffffffffffffffffffffffffffffffffffffffffffffffffffff82141562000e595762000e5862000e9c565b5b600182019050919050565b600062000e718262000d6a565b915062000e7e8362000d6a565b92508262000e915762000e9062000ecb565b5b828206905092915050565b7f4e487b7100000000000000000000000000000000000000000000000000000000600052601160045260246000fd5b7f4e487b7100000000000000000000000000000000000000000000000000000000600052601260045260246000fd5b7f4e487b7100000000000000000000000000000000000000000000000000000000600052602260045260246000fd5b7f4e487b7100000000000000000000000000000000000000000000000000000000600052604160045260246000fd5b6000601f19601f8301169050919050565b7f2f7b69647d2e6a736f6e00000000000000000000000000000000000000000000600082015250565b7f4e6f6e6578697374656e7420746f6b656e000000000000000000000000000000600082015250565b7f2e6a736f6e000000000000000000000000000000000000000000000000000000600082015250565b7f4f776e61626c653a2063616c6c6572206973206e6f7420746865206f776e6572600082015250565b7f2f00000000000000000000000000000000000000000000000000000000000000600082015250565b620010418162000d36565b81146200104d57600080fd5b50565b61506580620010606000396000f3fe608060405234801561001057600080fd5b50600436106102685760003560e01c8063715018a611610151578063ac501c41116100c3578063e985e9c511610087578063e985e9c51461072f578063eb642c8e1461075f578063f242432a1461077d578063f2fde38b14610799578063f7d97577146107b5578063fdd0f3ca146107d157610268565b8063ac501c4114610689578063c5cdff8c146106a7578063cdc9273b146106c5578063e3e35062146106f5578063e7572230146106ff57610268565b80638da5cb5b116101155780638da5cb5b146105c557806395d89b41146105e35780639949fb84146106015780639abc83201461061f578063a22cb4651461063d578063a726f59b1461065957610268565b8063715018a614610533578063843dde201461053d57806388da457e1461056d578063896086de1461058b5780638cd6976e146105a757610268565b80632b66d7cf116101ea5780633e413bee116101ae5780633e413bee1461045b578063458db8b7146104795780634864d8d9146104a95780634e1273f4146104c757806351debc44146104f75780636c3c986c1461051557610268565b80632b66d7cf146103dd5780632eb2c2d6146103fb57806331271f96146104175780633adf80b4146104355780633ccfd60b1461045157610268565b80630e89341c116102315780630e89341c146103235780630f55be0c146103535780630f7d26151461037157806319c9b736146103a157806328f0d90a146103bf57610268565b8062fdd58e1461026d57806301ffc9a71461029d57806302fe5305146102cd57806306fdde03146102e957806308dc9f4214610307575b600080fd5b61028760048036038101906102829190613832565b6107ef565b604051610294919061446a565b60405180910390f35b6102b760048036038101906102b29190613903565b6108b8565b6040516102c49190614132565b60405180910390f35b6102e760048036038101906102e29190613955565b61099a565b005b6102f1610a22565b6040516102fe9190614168565b60405180910390f35b610321600480360381019061031c9190613ab4565b610ab0565b005b61033d60048036038101906103389190613996565b610fe6565b60405161034a9190614168565b60405180910390f35b61035b611199565b604051610368919061446a565b60405180910390f35b61038b60048036038101906103869190613996565b61119e565b6040516103989190614168565b60405180910390f35b6103a961123e565b6040516103b6919061446a565b60405180910390f35b6103c7611243565b6040516103d4919061446a565b60405180910390f35b6103e5611248565b6040516103f2919061446a565b60405180910390f35b610415600480360381019061041091906136a8565b61124d565b005b61041f6112ee565b60405161042c919061446a565b60405180910390f35b61044f600480360381019061044a9190613a24565b6112f4565b005b610459611425565b005b610463611625565b604051610470919061414d565b60405180910390f35b610493600480360381019061048e9190613996565b61164b565b6040516104a0919061446a565b60405180910390f35b6104b1611663565b6040516104be919061446a565b60405180910390f35b6104e160048036038101906104dc919061386e565b611669565b6040516104ee91906140d9565b60405180910390f35b6104ff61181a565b60405161050c919061446a565b60405180910390f35b61051d61181f565b60405161052a9190613f73565b60405180910390f35b61053b611845565b005b61055760048036038101906105529190613996565b6118cd565b604051610564919061446a565b60405180910390f35b6105756118e5565b604051610582919061446a565b60405180910390f35b6105a560048036038101906105a09190613996565b6118f7565b005b6105af6119ce565b6040516105bc919061446a565b60405180910390f35b6105cd6119d3565b6040516105da9190613f73565b60405180910390f35b6105eb6119fd565b6040516105f89190614168565b60405180910390f35b610609611a8b565b604051610616919061446a565b60405180910390f35b610627611a90565b6040516106349190614168565b60405180910390f35b610657600480360381019061065291906137f6565b611b1e565b005b610673600480360381019061066e9190613996565b611b34565b604051610680919061446a565b60405180910390f35b610691611bc7565b60405161069e919061446a565b60405180910390f35b6106af611bcc565b6040516106bc919061446a565b60405180910390f35b6106df60048036038101906106da91906139e8565b611bd1565b6040516106ec919061446a565b60405180910390f35b6106fd611bf6565b005b61071960048036038101906107149190613996565b611dfb565b604051610726919061446a565b60405180910390f35b6107496004803603810190610744919061366c565b611e69565b6040516107569190614132565b60405180910390f35b610767611efd565b604051610774919061446a565b60405180910390f35b61079760048036038101906107929190613767565b611f02565b005b6107b360048036038101906107ae9190613643565b611fa3565b005b6107cf60048036038101906107ca9190613a78565b61209b565b005b6107d96121c7565b6040516107e69190614132565b60405180910390f35b60008073ffffffffffffffffffffffffffffffffffffffff168373ffffffffffffffffffffffffffffffffffffffff161415610860576040517f08c379a0000000000000000000000000000000000000000000000000000000008152600401610857906141ca565b60405180910390fd5b60008083815260200190815260200160002060008473ffffffffffffffffffffffffffffffffffffffff1673ffffffffffffffffffffffffffffffffffffffff16815260200190815260200160002054905092915050565b60007fd9b67a26000000000000000000000000000000000000000000000000000000007bffffffffffffffffffffffffffffffffffffffffffffffffffffffff1916827bffffffffffffffffffffffffffffffffffffffffffffffffffffffff1916148061098357507f0e89341c000000000000000000000000000000000000000000000000000000007bffffffffffffffffffffffffffffffffffffffffffffffffffffffff1916827bffffffffffffffffffffffffffffffffffffffffffffffffffffffff1916145b80610993575061099282612387565b5b9050919050565b6109a26123f1565b73ffffffffffffffffffffffffffffffffffffffff166109c06119d3565b73ffffffffffffffffffffffffffffffffffffffff1614610a16576040517f08c379a0000000000000000000000000000000000000000000000000000000008152600401610a0d9061430a565b60405180910390fd5b610a1f816123f9565b50565b60048054610a2f906147ed565b80601f0160208091040260200160405190810160405280929190818152602001828054610a5b906147ed565b8015610aa85780601f10610a7d57610100808354040283529160200191610aa8565b820191906000526020600020905b815481529060010190602001808311610a8b57829003601f168201915b505050505081565b60018310158015610ac2575060048311155b610b01576040517f08c379a0000000000000000000000000000000000000000000000000000000008152600401610af89061426a565b60405180910390fd5b8260085414610b45576040517f08c379a0000000000000000000000000000000000000000000000000000000008152600401610b3c9061442a565b60405180910390fd5b610b4e83611b34565b82600c600086815260200190815260200160002054610b6d91906145fe565b1115610bae576040517f08c379a0000000000000000000000000000000000000000000000000000000008152600401610ba59061444a565b60405180910390fd5b600582600d600086815260200190815260200160002060003373ffffffffffffffffffffffffffffffffffffffff1673ffffffffffffffffffffffffffffffffffffffff16815260200190815260200160002054610c0c91906145fe565b1115610c4d576040517f08c379a0000000000000000000000000000000000000000000000000000000008152600401610c449061432a565b60405180910390fd5b600082610c5985611dfb565b610c639190614685565b90506000600760009054906101000a900473ffffffffffffffffffffffffffffffffffffffff1673ffffffffffffffffffffffffffffffffffffffff166370a08231336040518263ffffffff1660e01b8152600401610cc29190613f73565b60206040518083038186803b158015610cda57600080fd5b505afa158015610cee573d6000803e3d6000fd5b505050506040513d601f19601f82011682018060405250810190610d1291906139bf565b905081811015610d57576040517f08c379a0000000000000000000000000000000000000000000000000000000008152600401610d4e9061422a565b60405180910390fd5b6000600760009054906101000a900473ffffffffffffffffffffffffffffffffffffffff1673ffffffffffffffffffffffffffffffffffffffff1663dd62ed3e33306040518363ffffffff1660e01b8152600401610db6929190613f8e565b60206040518083038186803b158015610dce57600080fd5b505afa158015610de2573d6000803e3d6000fd5b505050506040513d601f19601f82011682018060405250810190610e0691906139bf565b905082811015610e4b576040517f08c379a0000000000000000000000000000000000000000000000000000000008152600401610e42906142aa565b60405180910390fd5b6000600760009054906101000a900473ffffffffffffffffffffffffffffffffffffffff1673ffffffffffffffffffffffffffffffffffffffff166323b872dd3330876040518463ffffffff1660e01b8152600401610eac9392919061401f565b602060405180830381600087803b158015610ec657600080fd5b505af1158015610eda573d6000803e3d6000fd5b505050506040513d601f19601f82011682018060405250810190610efe91906138da565b905080610f40576040517f08c379a0000000000000000000000000000000000000000000000000000000008152600401610f37906142ca565b60405180910390fd5b610f4c33888888612413565b85600c60008981526020019081526020016000206000828254610f6f91906145fe565b9250508190555085600d600089815260200190815260200160002060003373ffffffffffffffffffffffffffffffffffffffff1673ffffffffffffffffffffffffffffffffffffffff1681526020019081526020016000206000828254610fd691906145fe565b9250508190555050505050505050565b606060018210158015610ffa575060048211155b611039576040517f08c379a00000000000000000000000000000000000000000000000000000000081526004016110309061426a565b60405180910390fd5b6000600a60008481526020019081526020016000208054611059906147ed565b80601f0160208091040260200160405190810160405280929190818152602001828054611085906147ed565b80156110d25780601f106110a7576101008083540402835291602001916110d2565b820191906000526020600020905b8154815290600101906020018083116110b557829003601f168201915b5050505050905060008151111561118757600a60008481526020019081526020016000208054611101906147ed565b80601f016020809104026020016040519081016040528092919081815260200182805461112d906147ed565b801561117a5780601f1061114f5761010080835404028352916020019161117a565b820191906000526020600020905b81548152906001019060200180831161115d57829003601f168201915b5050505050915050611194565b611190836125a9565b9150505b919050565b600381565b600a60205280600052604060002060009150905080546111bd906147ed565b80601f01602080910402602001604051908101604052809291908181526020018280546111e9906147ed565b80156112365780601f1061120b57610100808354040283529160200191611236565b820191906000526020600020905b81548152906001019060200180831161121957829003601f168201915b505050505081565b600481565b60a081565b600281565b6112556123f1565b73ffffffffffffffffffffffffffffffffffffffff168573ffffffffffffffffffffffffffffffffffffffff16148061129b575061129a856112956123f1565b611e69565b5b6112da576040517f08c379a00000000000000000000000000000000000000000000000000000000081526004016112d19061428a565b60405180910390fd5b6112e7858585858561263d565b5050505050565b6102bc81565b6112fc6123f1565b73ffffffffffffffffffffffffffffffffffffffff1661131a6119d3565b73ffffffffffffffffffffffffffffffffffffffff1614611370576040517f08c379a00000000000000000000000000000000000000000000000000000000081526004016113679061430a565b60405180910390fd5b60018210158015611382575060048211155b6113c1576040517f08c379a00000000000000000000000000000000000000000000000000000000081526004016113b89061426a565b60405180910390fd5b80600a600084815260200190815260200160002090805190602001906113e8929190613311565b50817f6bb7ff708619ba0610cba295a58592e0451dee2622938c8755667688daf3529b826040516114199190614168565b60405180910390a25050565b61142d6123f1565b73ffffffffffffffffffffffffffffffffffffffff1661144b6119d3565b73ffffffffffffffffffffffffffffffffffffffff16146114a1576040517f08c379a00000000000000000000000000000000000000000000000000000000081526004016114989061430a565b60405180910390fd5b6000600760009054906101000a900473ffffffffffffffffffffffffffffffffffffffff1673ffffffffffffffffffffffffffffffffffffffff166370a08231306040518263ffffffff1660e01b81526004016114fe9190613f73565b60206040518083038186803b15801561151657600080fd5b505afa15801561152a573d6000803e3d6000fd5b505050506040513d601f19601f8201168201806040525081019061154e91906139bf565b9050600760009054906101000a900473ffffffffffffffffffffffffffffffffffffffff1673ffffffffffffffffffffffffffffffffffffffff1663a9059cbb600960019054906101000a900473ffffffffffffffffffffffffffffffffffffffff16836040518363ffffffff1660e01b81526004016115cf9291906140b0565b602060405180830381600087803b1580156115e957600080fd5b505af11580156115fd573d6000803e3d6000fd5b505050506040513d601f19601f8201168201806040525081019061162191906138da565b5050565b600760009054906101000a900473ffffffffffffffffffffffffffffffffffffffff1681565b600c6020528060005260406000206000915090505481565b60085481565b606081518351146116af576040517f08c379a00000000000000000000000000000000000000000000000000000000081526004016116a6906143aa565b60405180910390fd5b6000835167ffffffffffffffff8111156116f2577f4e487b7100000000000000000000000000000000000000000000000000000000600052604160045260246000fd5b6040519080825280602002602001820160405280156117205781602001602082028036833780820191505090505b50905060005b845181101561180f576117b985828151811061176b577f4e487b7100000000000000000000000000000000000000000000000000000000600052603260045260246000fd5b60200260200101518583815181106117ac577f4e487b7100000000000000000000000000000000000000000000000000000000600052603260045260246000fd5b60200260200101516107ef565b8282815181106117f2577f4e487b7100000000000000000000000000000000000000000000000000000000600052603260045260246000fd5b6020026020010181815250508061180890614850565b9050611726565b508091505092915050565b600481565b600960019054906101000a900473ffffffffffffffffffffffffffffffffffffffff1681565b61184d6123f1565b73ffffffffffffffffffffffffffffffffffffffff1661186b6119d3565b73ffffffffffffffffffffffffffffffffffffffff16146118c1576040517f08c379a00000000000000000000000000000000000000000000000000000000081526004016118b89061430a565b60405180910390fd5b6118cb600061299d565b565b600b6020528060005260406000206000915090505481565b6102bc60a06118f491906145fe565b81565b6118ff6123f1565b73ffffffffffffffffffffffffffffffffffffffff1661191d6119d3565b73ffffffffffffffffffffffffffffffffffffffff1614611973576040517f08c379a000000000000000000000000000000000000000000000000000000000815260040161196a9061430a565b60405180910390fd5b60018110158015611985575060048111155b6119c4576040517f08c379a00000000000000000000000000000000000000000000000000000000081526004016119bb9061426a565b60405180910390fd5b8060088190555050565b60be81565b6000600360009054906101000a900473ffffffffffffffffffffffffffffffffffffffff16905090565b60058054611a0a906147ed565b80601f0160208091040260200160405190810160405280929190818152602001828054611a36906147ed565b8015611a835780601f10611a5857610100808354040283529160200191611a83565b820191906000526020600020905b815481529060010190602001808311611a6657829003601f168201915b505050505081565b608781565b60068054611a9d906147ed565b80601f0160208091040260200160405190810160405280929190818152602001828054611ac9906147ed565b8015611b165780601f10611aeb57610100808354040283529160200191611b16565b820191906000526020600020905b815481529060010190602001808311611af957829003601f168201915b505050505081565b611b30611b296123f1565b8383612a63565b5050565b600060018210158015611b48575060048211155b611b87576040517f08c379a0000000000000000000000000000000000000000000000000000000008152600401611b7e9061426a565b60405180910390fd5b6001821415611b995760509050611bc2565b6002821415611bab5760879050611bc2565b6003821415611bbd5760be9050611bc2565b60a090505b919050565b600581565b600181565b600d602052816000526040600020602052806000526040600020600091509150505481565b611bfe6123f1565b73ffffffffffffffffffffffffffffffffffffffff16611c1c6119d3565b73ffffffffffffffffffffffffffffffffffffffff1614611c72576040517f08c379a0000000000000000000000000000000000000000000000000000000008152600401611c699061430a565b60405180910390fd5b600460085414611cb7576040517f08c379a0000000000000000000000000000000000000000000000000000000008152600401611cae9061434a565b60405180910390fd5b600960009054906101000a900460ff1615611d07576040517f08c379a0000000000000000000000000000000000000000000000000000000008152600401611cfe906143ca565b60405180910390fd5b611d47600960019054906101000a900473ffffffffffffffffffffffffffffffffffffffff1660046102bc60405180602001604052806000815250612413565b6102bc600c6000600481526020019081526020016000206000828254611d6d91906145fe565b925050819055506102bc600d60006004815260200190815260200160002060003373ffffffffffffffffffffffffffffffffffffffff1673ffffffffffffffffffffffffffffffffffffffff1681526020019081526020016000206000828254611dd791906145fe565b925050819055506001600960006101000a81548160ff021916908315150217905550565b600060018210158015611e0f575060048211155b611e4e576040517f08c379a0000000000000000000000000000000000000000000000000000000008152600401611e459061426a565b60405180910390fd5b600b6000838152602001908152602001600020549050919050565b6000600160008473ffffffffffffffffffffffffffffffffffffffff1673ffffffffffffffffffffffffffffffffffffffff16815260200190815260200160002060008373ffffffffffffffffffffffffffffffffffffffff1673ffffffffffffffffffffffffffffffffffffffff16815260200190815260200160002060009054906101000a900460ff16905092915050565b605081565b611f0a6123f1565b73ffffffffffffffffffffffffffffffffffffffff168573ffffffffffffffffffffffffffffffffffffffff161480611f505750611f4f85611f4a6123f1565b611e69565b5b611f8f576040517f08c379a0000000000000000000000000000000000000000000000000000000008152600401611f869061420a565b60405180910390fd5b611f9c8585858585612bd0565b5050505050565b611fab6123f1565b73ffffffffffffffffffffffffffffffffffffffff16611fc96119d3565b73ffffffffffffffffffffffffffffffffffffffff161461201f576040517f08c379a00000000000000000000000000000000000000000000000000000000081526004016120169061430a565b60405180910390fd5b600073ffffffffffffffffffffffffffffffffffffffff168173ffffffffffffffffffffffffffffffffffffffff16141561208f576040517f08c379a0000000000000000000000000000000000000000000000000000000008152600401612086906141ea565b60405180910390fd5b6120988161299d565b50565b6120a36123f1565b73ffffffffffffffffffffffffffffffffffffffff166120c16119d3565b73ffffffffffffffffffffffffffffffffffffffff1614612117576040517f08c379a000000000000000000000000000000000000000000000000000000000815260040161210e9061430a565b60405180910390fd5b60018210158015612129575060048211155b612168576040517f08c379a000000000000000000000000000000000000000000000000000000000815260040161215f9061426a565b60405180910390fd5b600081116121ab576040517f08c379a00000000000000000000000000000000000000000000000000000000081526004016121a29061436a565b60405180910390fd5b80600b6000848152602001908152602001600020819055505050565b600960009054906101000a900460ff1681565b60606000821415612222576040518060400160405280600181526020017f30000000000000000000000000000000000000000000000000000000000000008152509050612382565b600082905060005b6000821461225457808061223d90614850565b915050600a8261224d9190614654565b915061222a565b60008167ffffffffffffffff811115612296577f4e487b7100000000000000000000000000000000000000000000000000000000600052604160045260246000fd5b6040519080825280601f01601f1916602001820160405280156122c85781602001600182028036833780820191505090505b5090505b6000851461237b576001826122e191906146df565b9150600a856122f09190614899565b60306122fc91906145fe565b60f81b818381518110612338577f4e487b7100000000000000000000000000000000000000000000000000000000600052603260045260246000fd5b60200101907effffffffffffffffffffffffffffffffffffffffffffffffffffffffffffff1916908160001a905350600a856123749190614654565b94506122cc565b8093505050505b919050565b60007f01ffc9a7000000000000000000000000000000000000000000000000000000007bffffffffffffffffffffffffffffffffffffffffffffffffffffffff1916827bffffffffffffffffffffffffffffffffffffffffffffffffffffffff1916149050919050565b600033905090565b806002908051906020019061240f929190613311565b5050565b600073ffffffffffffffffffffffffffffffffffffffff168473ffffffffffffffffffffffffffffffffffffffff161415612483576040517f08c379a000000000000000000000000000000000000000000000000000000000815260040161247a9061440a565b60405180910390fd5b600061248d6123f1565b90506124ae8160008761249f88612e52565b6124a888612e52565b87612f18565b8260008086815260200190815260200160002060008773ffffffffffffffffffffffffffffffffffffffff1673ffffffffffffffffffffffffffffffffffffffff168152602001908152602001600020600082825461250d91906145fe565b925050819055508473ffffffffffffffffffffffffffffffffffffffff16600073ffffffffffffffffffffffffffffffffffffffff168273ffffffffffffffffffffffffffffffffffffffff167fc3d58168c5ae7397731d063d5bbf3d657854427343f4c083240f7aacaa2d0f62878760405161258b929190614485565b60405180910390a46125a281600087878787612f20565b5050505050565b6060600280546125b8906147ed565b80601f01602080910402602001604051908101604052809291908181526020018280546125e4906147ed565b80156126315780601f1061260657610100808354040283529160200191612631565b820191906000526020600020905b81548152906001019060200180831161261457829003601f168201915b50505050509050919050565b8151835114612681576040517f08c379a0000000000000000000000000000000000000000000000000000000008152600401612678906143ea565b60405180910390fd5b600073ffffffffffffffffffffffffffffffffffffffff168473ffffffffffffffffffffffffffffffffffffffff1614156126f1576040517f08c379a00000000000000000000000000000000000000000000000000000000081526004016126e89061424a565b60405180910390fd5b60006126fb6123f1565b905061270b818787878787612f18565b60005b8451811015612908576000858281518110612752577f4e487b7100000000000000000000000000000000000000000000000000000000600052603260045260246000fd5b602002602001015190506000858381518110612797577f4e487b7100000000000000000000000000000000000000000000000000000000600052603260045260246000fd5b60200260200101519050600080600084815260200190815260200160002060008b73ffffffffffffffffffffffffffffffffffffffff1673ffffffffffffffffffffffffffffffffffffffff16815260200190815260200160002054905081811015612838576040517f08c379a000000000000000000000000000000000000000000000000000000000815260040161282f906142ea565b60405180910390fd5b81810360008085815260200190815260200160002060008c73ffffffffffffffffffffffffffffffffffffffff1673ffffffffffffffffffffffffffffffffffffffff168152602001908152602001600020819055508160008085815260200190815260200160002060008b73ffffffffffffffffffffffffffffffffffffffff1673ffffffffffffffffffffffffffffffffffffffff16815260200190815260200160002060008282546128ed91906145fe565b925050819055505050508061290190614850565b905061270e565b508473ffffffffffffffffffffffffffffffffffffffff168673ffffffffffffffffffffffffffffffffffffffff168273ffffffffffffffffffffffffffffffffffffffff167f4a39dc06d4c0dbc64b70af90fd698a233a518aa5d07e595d983b8c0526c8f7fb878760405161297f9291906140fb565b60405180910390a4612995818787878787613107565b505050505050565b6000600360009054906101000a900473ffffffffffffffffffffffffffffffffffffffff16905081600360006101000a81548173ffffffffffffffffffffffffffffffffffffffff021916908373ffffffffffffffffffffffffffffffffffffffff1602179055508173ffffffffffffffffffffffffffffffffffffffff168173ffffffffffffffffffffffffffffffffffffffff167f8be0079c531659141344cd1fd0a4f28419497f9722a3daafe3b4186f6b6457e060405160405180910390a35050565b8173ffffffffffffffffffffffffffffffffffffffff168373ffffffffffffffffffffffffffffffffffffffff161415612ad2576040517f08c379a0000000000000000000000000000000000000000000000000000000008152600401612ac99061438a565b60405180910390fd5b80600160008573ffffffffffffffffffffffffffffffffffffffff1673ffffffffffffffffffffffffffffffffffffffff16815260200190815260200160002060008473ffffffffffffffffffffffffffffffffffffffff1673ffffffffffffffffffffffffffffffffffffffff16815260200190815260200160002060006101000a81548160ff0219169083151502179055508173ffffffffffffffffffffffffffffffffffffffff168373ffffffffffffffffffffffffffffffffffffffff167f17307eab39ab6107e8899845ad3d59bd9653f200f220920489ca2b5937696c3183604051612bc39190614132565b60405180910390a3505050565b600073ffffffffffffffffffffffffffffffffffffffff168473ffffffffffffffffffffffffffffffffffffffff161415612c40576040517f08c379a0000000000000000000000000000000000000000000000000000000008152600401612c379061424a565b60405180910390fd5b6000612c4a6123f1565b9050612c6a818787612c5b88612e52565b612c6488612e52565b87612f18565b600080600086815260200190815260200160002060008873ffffffffffffffffffffffffffffffffffffffff1673ffffffffffffffffffffffffffffffffffffffff16815260200190815260200160002054905083811015612d01576040517f08c379a0000000000000000000000000000000000000000000000000000000008152600401612cf8906142ea565b60405180910390fd5b83810360008087815260200190815260200160002060008973ffffffffffffffffffffffffffffffffffffffff1673ffffffffffffffffffffffffffffffffffffffff168152602001908152602001600020819055508360008087815260200190815260200160002060008873ffffffffffffffffffffffffffffffffffffffff1673ffffffffffffffffffffffffffffffffffffffff1681526020019081526020016000206000828254612db691906145fe565b925050819055508573ffffffffffffffffffffffffffffffffffffffff168773ffffffffffffffffffffffffffffffffffffffff168373ffffffffffffffffffffffffffffffffffffffff167fc3d58168c5ae7397731d063d5bbf3d657854427343f4c083240f7aacaa2d0f628888604051612e33929190614485565b60405180910390a4612e49828888888888612f20565b50505050505050565b60606000600167ffffffffffffffff811115612e97577f4e487b7100000000000000000000000000000000000000000000000000000000600052604160045260246000fd5b604051908082528060200260200182016040528015612ec55781602001602082028036833780820191505090505b5090508281600081518110612f03577f4e487b7100000000000000000000000000000000000000000000000000000000600052603260045260246000fd5b60200260200101818152505080915050919050565b505050505050565b612f3f8473ffffffffffffffffffffffffffffffffffffffff166132ee565b156130ff578373ffffffffffffffffffffffffffffffffffffffff1663f23a6e6187878686866040518663ffffffff1660e01b8152600401612f85959493929190614056565b602060405180830381600087803b158015612f9f57600080fd5b505af1925050508015612fd057506040513d601f19601f82011682018060405250810190612fcd919061392c565b60015b61307657612fdc614986565b806308c379a014156130395750612ff1614f3d565b80612ffc575061303b565b806040517f08c379a00000000000000000000000000000000000000000000000000000000081526004016130309190614168565b60405180910390fd5b505b6040517f08c379a000000000000000000000000000000000000000000000000000000000815260040161306d9061418a565b60405180910390fd5b63f23a6e6160e01b7bffffffffffffffffffffffffffffffffffffffffffffffffffffffff1916817bffffffffffffffffffffffffffffffffffffffffffffffffffffffff1916146130fd576040517f08c379a00000000000000000000000000000000000000000000000000000000081526004016130f4906141aa565b60405180910390fd5b505b505050505050565b6131268473ffffffffffffffffffffffffffffffffffffffff166132ee565b156132e6578373ffffffffffffffffffffffffffffffffffffffff1663bc197c8187878686866040518663ffffffff1660e01b815260040161316c959493929190613fb7565b602060405180830381600087803b15801561318657600080fd5b505af19250505080156131b757506040513d601f19601f820116820180604052508101906131b4919061392c565b60015b61325d576131c3614986565b806308c379a0141561322057506131d8614f3d565b806131e35750613222565b806040517f08c379a00000000000000000000000000000000000000000000000000000000081526004016132179190614168565b60405180910390fd5b505b6040517f08c379a00000000000000000000000000000000000000000000000000000000081526004016132549061418a565b60405180910390fd5b63bc197c8160e01b7bffffffffffffffffffffffffffffffffffffffffffffffffffffffff1916817bffffffffffffffffffffffffffffffffffffffffffffffffffffffff1916146132e4576040517f08c379a00000000000000000000000000000000000000000000000000000000081526004016132db906141aa565b60405180910390fd5b505b505050505050565b6000808273ffffffffffffffffffffffffffffffffffffffff163b119050919050565b82805461331d906147ed565b90600052602060002090601f01602090048101928261333f5760008555613386565b82601f1061335857805160ff1916838001178555613386565b82800160010185558215613386579182015b8281111561338557825182559160200191906001019061336a565b5b5090506133939190613397565b5090565b5b808211156133b0576000816000905550600101613398565b5090565b60006133c76133c2846144d3565b6144ae565b905080838252602082019050828560208602820111156133e657600080fd5b60005b8581101561341657816133fc8882613508565b8452602084019350602083019250506001810190506133e9565b5050509392505050565b600061343361342e846144ff565b6144ae565b9050808382526020820190508285602086028201111561345257600080fd5b60005b8581101561348257816134688882613619565b845260208401935060208301925050600181019050613455565b5050509392505050565b600061349f61349a8461452b565b6144ae565b9050828152602081018484840111156134b757600080fd5b6134c28482856147ab565b509392505050565b60006134dd6134d88461455c565b6144ae565b9050828152602081018484840111156134f557600080fd5b6135008482856147ab565b509392505050565b60008135905061351781614fd3565b92915050565b600082601f83011261352e57600080fd5b813561353e8482602086016133b4565b91505092915050565b600082601f83011261355857600080fd5b8135613568848260208601613420565b91505092915050565b60008135905061358081614fea565b92915050565b60008151905061359581614fea565b92915050565b6000813590506135aa81615001565b92915050565b6000815190506135bf81615001565b92915050565b600082601f8301126135d657600080fd5b81356135e684826020860161348c565b91505092915050565b600082601f83011261360057600080fd5b81356136108482602086016134ca565b91505092915050565b60008135905061362881615018565b92915050565b60008151905061363d81615018565b92915050565b60006020828403121561365557600080fd5b600061366384828501613508565b91505092915050565b6000806040838503121561367f57600080fd5b600061368d85828601613508565b925050602061369e85828601613508565b9150509250929050565b600080600080600060a086880312156136c057600080fd5b60006136ce88828901613508565b95505060206136df88828901613508565b945050604086013567ffffffffffffffff8111156136fc57600080fd5b61370888828901613547565b935050606086013567ffffffffffffffff81111561372557600080fd5b61373188828901613547565b925050608086013567ffffffffffffffff81111561374e57600080fd5b61375a888289016135c5565b9150509295509295909350565b600080600080600060a0868803121561377f57600080fd5b600061378d88828901613508565b955050602061379e88828901613508565b94505060406137af88828901613619565b93505060606137c088828901613619565b925050608086013567ffffffffffffffff8111156137dd57600080fd5b6137e9888289016135c5565b9150509295509295909350565b6000806040838503121561380957600080fd5b600061381785828601613508565b925050602061382885828601613571565b9150509250929050565b6000806040838503121561384557600080fd5b600061385385828601613508565b925050602061386485828601613619565b9150509250929050565b6000806040838503121561388157600080fd5b600083013567ffffffffffffffff81111561389b57600080fd5b6138a78582860161351d565b925050602083013567ffffffffffffffff8111156138c457600080fd5b6138d085828601613547565b9150509250929050565b6000602082840312156138ec57600080fd5b60006138fa84828501613586565b91505092915050565b60006020828403121561391557600080fd5b60006139238482850161359b565b91505092915050565b60006020828403121561393e57600080fd5b600061394c848285016135b0565b91505092915050565b60006020828403121561396757600080fd5b600082013567ffffffffffffffff81111561398157600080fd5b61398d848285016135ef565b91505092915050565b6000602082840312156139a857600080fd5b60006139b684828501613619565b91505092915050565b6000602082840312156139d157600080fd5b60006139df8482850161362e565b91505092915050565b600080604083850312156139fb57600080fd5b6000613a0985828601613619565b9250506020613a1a85828601613508565b9150509250929050565b60008060408385031215613a3757600080fd5b6000613a4585828601613619565b925050602083013567ffffffffffffffff811115613a6257600080fd5b613a6e858286016135ef565b9150509250929050565b60008060408385031215613a8b57600080fd5b6000613a9985828601613619565b9250506020613aaa85828601613619565b9150509250929050565b600080600060608486031215613ac957600080fd5b6000613ad786828701613619565b9350506020613ae886828701613619565b925050604084013567ffffffffffffffff811115613b0557600080fd5b613b11868287016135c5565b9150509250925092565b6000613b278383613f55565b60208301905092915050565b613b3c81614713565b82525050565b6000613b4d8261459d565b613b5781856145cb565b9350613b628361458d565b8060005b83811015613b93578151613b7a8882613b1b565b9750613b85836145be565b925050600181019050613b66565b5085935050505092915050565b613ba981614725565b82525050565b6000613bba826145a8565b613bc481856145dc565b9350613bd48185602086016147ba565b613bdd816149a8565b840191505092915050565b613bf181614787565b82525050565b6000613c02826145b3565b613c0c81856145ed565b9350613c1c8185602086016147ba565b613c25816149a8565b840191505092915050565b6000613c3d6034836145ed565b9150613c48826149c6565b604082019050919050565b6000613c606028836145ed565b9150613c6b82614a15565b604082019050919050565b6000613c83602b836145ed565b9150613c8e82614a64565b604082019050919050565b6000613ca66026836145ed565b9150613cb182614ab3565b604082019050919050565b6000613cc96029836145ed565b9150613cd482614b02565b604082019050919050565b6000613cec6014836145ed565b9150613cf782614b51565b602082019050919050565b6000613d0f6025836145ed565b9150613d1a82614b7a565b604082019050919050565b6000613d326011836145ed565b9150613d3d82614bc9565b602082019050919050565b6000613d556032836145ed565b9150613d6082614bf2565b604082019050919050565b6000613d786019836145ed565b9150613d8382614c41565b602082019050919050565b6000613d9b6012836145ed565b9150613da682614c6a565b602082019050919050565b6000613dbe602a836145ed565b9150613dc982614c93565b604082019050919050565b6000613de16020836145ed565b9150613dec82614ce2565b602082019050919050565b6000613e04601a836145ed565b9150613e0f82614d0b565b602082019050919050565b6000613e27601f836145ed565b9150613e3282614d34565b602082019050919050565b6000613e4a601a836145ed565b9150613e5582614d5d565b602082019050919050565b6000613e6d6029836145ed565b9150613e7882614d86565b604082019050919050565b6000613e906029836145ed565b9150613e9b82614dd5565b604082019050919050565b6000613eb36017836145ed565b9150613ebe82614e24565b602082019050919050565b6000613ed66028836145ed565b9150613ee182614e4d565b604082019050919050565b6000613ef96021836145ed565b9150613f0482614e9c565b604082019050919050565b6000613f1c601b836145ed565b9150613f2782614eeb565b602082019050919050565b6000613f3f6017836145ed565b9150613f4a82614f14565b602082019050919050565b613f5e8161477d565b82525050565b613f6d8161477d565b82525050565b6000602082019050613f886000830184613b33565b92915050565b6000604082019050613fa36000830185613b33565b613fb06020830184613b33565b9392505050565b600060a082019050613fcc6000830188613b33565b613fd96020830187613b33565b8181036040830152613feb8186613b42565b90508181036060830152613fff8185613b42565b905081810360808301526140138184613baf565b90509695505050505050565b60006060820190506140346000830186613b33565b6140416020830185613b33565b61404e6040830184613f64565b949350505050565b600060a08201905061406b6000830188613b33565b6140786020830187613b33565b6140856040830186613f64565b6140926060830185613f64565b81810360808301526140a48184613baf565b90509695505050505050565b60006040820190506140c56000830185613b33565b6140d26020830184613f64565b9392505050565b600060208201905081810360008301526140f38184613b42565b905092915050565b600060408201905081810360008301526141158185613b42565b905081810360208301526141298184613b42565b90509392505050565b60006020820190506141476000830184613ba0565b92915050565b60006020820190506141626000830184613be8565b92915050565b600060208201905081810360008301526141828184613bf7565b905092915050565b600060208201905081810360008301526141a381613c30565b9050919050565b600060208201905081810360008301526141c381613c53565b9050919050565b600060208201905081810360008301526141e381613c76565b9050919050565b6000602082019050818103600083015261420381613c99565b9050919050565b6000602082019050818103600083015261422381613cbc565b9050919050565b6000602082019050818103600083015261424381613cdf565b9050919050565b6000602082019050818103600083015261426381613d02565b9050919050565b6000602082019050818103600083015261428381613d25565b9050919050565b600060208201905081810360008301526142a381613d48565b9050919050565b600060208201905081810360008301526142c381613d6b565b9050919050565b600060208201905081810360008301526142e381613d8e565b9050919050565b6000602082019050818103600083015261430381613db1565b9050919050565b6000602082019050818103600083015261432381613dd4565b9050919050565b6000602082019050818103600083015261434381613df7565b9050919050565b6000602082019050818103600083015261436381613e1a565b9050919050565b6000602082019050818103600083015261438381613e3d565b9050919050565b600060208201905081810360008301526143a381613e60565b9050919050565b600060208201905081810360008301526143c381613e83565b9050919050565b600060208201905081810360008301526143e381613ea6565b9050919050565b6000602082019050818103600083015261440381613ec9565b9050919050565b6000602082019050818103600083015261442381613eec565b9050919050565b6000602082019050818103600083015261444381613f0f565b9050919050565b6000602082019050818103600083015261446381613f32565b9050919050565b600060208201905061447f6000830184613f64565b92915050565b600060408201905061449a6000830185613f64565b6144a76020830184613f64565b9392505050565b60006144b86144c9565b90506144c4828261481f565b919050565b6000604051905090565b600067ffffffffffffffff8211156144ee576144ed614957565b5b602082029050602081019050919050565b600067ffffffffffffffff82111561451a57614519614957565b5b602082029050602081019050919050565b600067ffffffffffffffff82111561454657614545614957565b5b61454f826149a8565b9050602081019050919050565b600067ffffffffffffffff82111561457757614576614957565b5b614580826149a8565b9050602081019050919050565b6000819050602082019050919050565b600081519050919050565b600081519050919050565b600081519050919050565b6000602082019050919050565b600082825260208201905092915050565b600082825260208201905092915050565b600082825260208201905092915050565b60006146098261477d565b91506146148361477d565b9250827fffffffffffffffffffffffffffffffffffffffffffffffffffffffffffffffff03821115614649576146486148ca565b5b828201905092915050565b600061465f8261477d565b915061466a8361477d565b92508261467a576146796148f9565b5b828204905092915050565b60006146908261477d565b915061469b8361477d565b9250817fffffffffffffffffffffffffffffffffffffffffffffffffffffffffffffffff04831182151516156146d4576146d36148ca565b5b828202905092915050565b60006146ea8261477d565b91506146f58361477d565b925082821015614708576147076148ca565b5b828203905092915050565b600061471e8261475d565b9050919050565b60008115159050919050565b60007fffffffff0000000000000000000000000000000000000000000000000000000082169050919050565b600073ffffffffffffffffffffffffffffffffffffffff82169050919050565b6000819050919050565b600061479282614799565b9050919050565b60006147a48261475d565b9050919050565b82818337600083830152505050565b60005b838110156147d85780820151818401526020810190506147bd565b838111156147e7576000848401525b50505050565b6000600282049050600182168061480557607f821691505b6020821081141561481957614818614928565b5b50919050565b614828826149a8565b810181811067ffffffffffffffff8211171561484757614846614957565b5b80604052505050565b600061485b8261477d565b91507fffffffffffffffffffffffffffffffffffffffffffffffffffffffffffffffff82141561488e5761488d6148ca565b5b600182019050919050565b60006148a48261477d565b91506148af8361477d565b9250826148bf576148be6148f9565b5b828206905092915050565b7f4e487b7100000000000000000000000000000000000000000000000000000000600052601160045260246000fd5b7f4e487b7100000000000000000000000000000000000000000000000000000000600052601260045260246000fd5b7f4e487b7100000000000000000000000000000000000000000000000000000000600052602260045260246000fd5b7f4e487b7100000000000000000000000000000000000000000000000000000000600052604160045260246000fd5b600060033d11156149a55760046000803e6149a26000516149b9565b90505b90565b6000601f19601f8301169050919050565b60008160e01c9050919050565b7f455243313135353a207472616e7366657220746f206e6f6e204552433131353560008201527f526563656976657220696d706c656d656e746572000000000000000000000000602082015250565b7f455243313135353a204552433131353552656365697665722072656a6563746560008201527f6420746f6b656e73000000000000000000000000000000000000000000000000602082015250565b7f455243313135353a2062616c616e636520717565727920666f7220746865207a60008201527f65726f2061646472657373000000000000000000000000000000000000000000602082015250565b7f4f776e61626c653a206e6577206f776e657220697320746865207a65726f206160008201527f6464726573730000000000000000000000000000000000000000000000000000602082015250565b7f455243313135353a2063616c6c6572206973206e6f74206f776e6572206e6f7260008201527f20617070726f7665640000000000000000000000000000000000000000000000602082015250565b7f496e73756666696369656e742062616c616e6365000000000000000000000000600082015250565b7f455243313135353a207472616e7366657220746f20746865207a65726f20616460008201527f6472657373000000000000000000000000000000000000000000000000000000602082015250565b7f4e6f6e6578697374656e7420746f6b656e000000000000000000000000000000600082015250565b7f455243313135353a207472616e736665722063616c6c6572206973206e6f742060008201527f6f776e6572206e6f7220617070726f7665640000000000000000000000000000602082015250565b7f436865636b2074686520746f6b656e20616c6c6f77616e636500000000000000600082015250565b7f4661696c656420746f207472616e736665720000000000000000000000000000600082015250565b7f455243313135353a20696e73756666696369656e742062616c616e636520666f60008201527f72207472616e7366657200000000000000000000000000000000000000000000602082015250565b7f4f776e61626c653a2063616c6c6572206973206e6f7420746865206f776e6572600082015250565b7f457863656564206d6178206d696e7420706572206d696e746572000000000000600082015250565b7f5472656173757279207374616765206973206e6f742061637469766174656400600082015250565b7f546f6b656e2070726963652063616e6e6f74206265207a65726f000000000000600082015250565b7f455243313135353a2073657474696e6720617070726f76616c2073746174757360008201527f20666f722073656c660000000000000000000000000000000000000000000000602082015250565b7f455243313135353a206163636f756e747320616e6420696473206c656e67746860008201527f206d69736d617463680000000000000000000000000000000000000000000000602082015250565b7f547265617375727920616c7265616479206d696e746564000000000000000000600082015250565b7f455243313135353a2069647320616e6420616d6f756e7473206c656e6774682060008201527f6d69736d61746368000000000000000000000000000000000000000000000000602082015250565b7f455243313135353a206d696e7420746f20746865207a65726f2061646472657360008201527f7300000000000000000000000000000000000000000000000000000000000000602082015250565b7f53616c65207374616765206973206e6f74206163746976617465640000000000600082015250565b7f4578636565642073616c6573206d617820737570706c79000000000000000000600082015250565b600060443d1015614f4d57614fd0565b614f556144c9565b60043d036004823e80513d602482011167ffffffffffffffff82111715614f7d575050614fd0565b808201805167ffffffffffffffff811115614f9b5750505050614fd0565b80602083010160043d038501811115614fb8575050505050614fd0565b614fc78260200185018661481f565b82955050505050505b90565b614fdc81614713565b8114614fe757600080fd5b50565b614ff381614725565b8114614ffe57600080fd5b50565b61500a81614731565b811461501557600080fd5b50565b6150218161477d565b811461502c57600080fd5b5056fea26469706673582212200b7654ab5dc3615b0c70aaaec0c7ac3f67d33534e5ea58f00b0f0c2721a1befa64736f6c63430008040033",
  "linkReferences": {},
  "deployedLinkReferences": {}
}