{
  "_format": "hh-sol-artifact-1",
  "contractName": "LBSFragment",
  "sourceName": "contracts/LBSFragment.sol",
  "abi": [
    {
      "inputs": [
        {
          "internalType": "string",
          "name": "_name",
          "type": "string"
        },
        {
          "internalType": "string",
          "name": "_symbol",
          "type": "string"
        },
        {
          "internalType": "string",
          "name": "_baseUri",
          "type": "string"
        },
        {
          "internalType": "address",
          "name": "_usdcAddress",
          "type": "address"
        },
        {
          "internalType": "address",
          "name": "_beneficaryAddress",
          "type": "address"
        }
      ],
      "stateMutability": "nonpayable",
      "type": "constructor"
    },
    {
      "anonymous": false,
      "inputs": [
        {
          "indexed": true,
          "internalType": "address",
          "name": "account",
          "type": "address"
        },
        {
          "indexed": true,
          "internalType": "address",
          "name": "operator",
          "type": "address"
        },
        {
          "indexed": false,
          "internalType": "bool",
          "name": "approved",
          "type": "bool"
        }
      ],
      "name": "ApprovalForAll",
      "type": "event"
    },
    {
      "anonymous": false,
      "inputs": [
        {
          "indexed": true,
          "internalType": "address",
          "name": "previousOwner",
          "type": "address"
        },
        {
          "indexed": true,
          "internalType": "address",
          "name": "newOwner",
          "type": "address"
        }
      ],
      "name": "OwnershipTransferred",
      "type": "event"
    },
    {
      "anonymous": false,
      "inputs": [
        {
          "indexed": true,
          "internalType": "address",
          "name": "operator",
          "type": "address"
        },
        {
          "indexed": true,
          "internalType": "address",
          "name": "from",
          "type": "address"
        },
        {
          "indexed": true,
          "internalType": "address",
          "name": "to",
          "type": "address"
        },
        {
          "indexed": false,
          "internalType": "uint256[]",
          "name": "ids",
          "type": "uint256[]"
        },
        {
          "indexed": false,
          "internalType": "uint256[]",
          "name": "values",
          "type": "uint256[]"
        }
      ],
      "name": "TransferBatch",
      "type": "event"
    },
    {
      "anonymous": false,
      "inputs": [
        {
          "indexed": true,
          "internalType": "address",
          "name": "operator",
          "type": "address"
        },
        {
          "indexed": true,
          "internalType": "address",
          "name": "from",
          "type": "address"
        },
        {
          "indexed": true,
          "internalType": "address",
          "name": "to",
          "type": "address"
        },
        {
          "indexed": false,
          "internalType": "uint256",
          "name": "id",
          "type": "uint256"
        },
        {
          "indexed": false,
          "internalType": "uint256",
          "name": "value",
          "type": "uint256"
        }
      ],
      "name": "TransferSingle",
      "type": "event"
    },
    {
      "anonymous": false,
      "inputs": [
        {
          "indexed": false,
          "internalType": "string",
          "name": "value",
          "type": "string"
        },
        {
          "indexed": true,
          "internalType": "uint256",
          "name": "id",
          "type": "uint256"
        }
      ],
      "name": "URI",
      "type": "event"
    },
    {
      "inputs": [],
      "name": "MAX_QTY_PER_MINTER",
      "outputs": [
        {
          "internalType": "uint256",
          "name": "",
          "type": "uint256"
        }
      ],
      "stateMutability": "view",
      "type": "function"
    },
    {
      "inputs": [],
      "name": "STAGE_1_MAX_SUPPLY",
      "outputs": [
        {
          "internalType": "uint256",
          "name": "",
          "type": "uint256"
        }
      ],
      "stateMutability": "view",
      "type": "function"
    },
    {
      "inputs": [],
      "name": "STAGE_1_TOKEN_ID",
      "outputs": [
        {
          "internalType": "uint256",
          "name": "",
          "type": "uint256"
        }
      ],
      "stateMutability": "view",
      "type": "function"
    },
    {
      "inputs": [],
      "name": "STAGE_2_MAX_SUPPLY",
      "outputs": [
        {
          "internalType": "uint256",
          "name": "",
          "type": "uint256"
        }
      ],
      "stateMutability": "view",
      "type": "function"
    },
    {
      "inputs": [],
      "name": "STAGE_2_TOKEN_ID",
      "outputs": [
        {
          "internalType": "uint256",
          "name": "",
          "type": "uint256"
        }
      ],
      "stateMutability": "view",
      "type": "function"
    },
    {
      "inputs": [],
      "name": "STAGE_3_MAX_SUPPLY",
      "outputs": [
        {
          "internalType": "uint256",
          "name": "",
          "type": "uint256"
        }
      ],
      "stateMutability": "view",
      "type": "function"
    },
    {
      "inputs": [],
      "name": "STAGE_3_TOKEN_ID",
      "outputs": [
        {
          "internalType": "uint256",
          "name": "",
          "type": "uint256"
        }
      ],
      "stateMutability": "view",
      "type": "function"
    },
    {
      "inputs": [],
      "name": "STAGE_4_MAX_SUPPLY",
      "outputs": [
        {
          "internalType": "uint256",
          "name": "",
          "type": "uint256"
        }
      ],
      "stateMutability": "view",
      "type": "function"
    },
    {
      "inputs": [],
      "name": "STAGE_4_SALE_MAX_QTY",
      "outputs": [
        {
          "internalType": "uint256",
          "name": "",
          "type": "uint256"
        }
      ],
      "stateMutability": "view",
      "type": "function"
    },
    {
      "inputs": [],
      "name": "STAGE_4_TOKEN_ID",
      "outputs": [
        {
          "internalType": "uint256",
          "name": "",
          "type": "uint256"
        }
      ],
      "stateMutability": "view",
      "type": "function"
    },
    {
      "inputs": [],
      "name": "STAGE_4_TREASURY_MAX_QTY",
      "outputs": [
        {
          "internalType": "uint256",
          "name": "",
          "type": "uint256"
        }
      ],
      "stateMutability": "view",
      "type": "function"
    },
    {
      "inputs": [],
      "name": "TOTAL_TOKEN_QTY",
      "outputs": [
        {
          "internalType": "uint256",
          "name": "",
          "type": "uint256"
        }
      ],
      "stateMutability": "view",
      "type": "function"
    },
    {
      "inputs": [],
      "name": "activeStage",
      "outputs": [
        {
          "internalType": "uint256",
          "name": "",
          "type": "uint256"
        }
      ],
      "stateMutability": "view",
      "type": "function"
    },
    {
      "inputs": [
        {
          "internalType": "address",
          "name": "account",
          "type": "address"
        },
        {
          "internalType": "uint256",
          "name": "id",
          "type": "uint256"
        }
      ],
      "name": "balanceOf",
      "outputs": [
        {
          "internalType": "uint256",
          "name": "",
          "type": "uint256"
        }
      ],
      "stateMutability": "view",
      "type": "function"
    },
    {
      "inputs": [
        {
          "internalType": "address[]",
          "name": "accounts",
          "type": "address[]"
        },
        {
          "internalType": "uint256[]",
          "name": "ids",
          "type": "uint256[]"
        }
      ],
      "name": "balanceOfBatch",
      "outputs": [
        {
          "internalType": "uint256[]",
          "name": "",
          "type": "uint256[]"
        }
      ],
      "stateMutability": "view",
      "type": "function"
    },
    {
      "inputs": [],
      "name": "baseUri",
      "outputs": [
        {
          "internalType": "string",
          "name": "",
          "type": "string"
        }
      ],
      "stateMutability": "view",
      "type": "function"
    },
    {
      "inputs": [],
      "name": "beneficaryAddress",
      "outputs": [
        {
          "internalType": "address",
          "name": "",
          "type": "address"
        }
      ],
      "stateMutability": "view",
      "type": "function"
    },
    {
      "inputs": [
        {
          "internalType": "uint256",
          "name": "_tokenId",
          "type": "uint256"
        }
      ],
      "name": "getMaxSaleSupply",
      "outputs": [
        {
          "internalType": "uint256",
          "name": "",
          "type": "uint256"
        }
      ],
      "stateMutability": "pure",
      "type": "function"
    },
    {
      "inputs": [
        {
          "internalType": "uint256",
          "name": "_tokenId",
          "type": "uint256"
        }
      ],
      "name": "getPrice",
      "outputs": [
        {
          "internalType": "uint256",
          "name": "",
          "type": "uint256"
        }
      ],
      "stateMutability": "view",
      "type": "function"
    },
    {
      "inputs": [
        {
          "internalType": "address",
          "name": "account",
          "type": "address"
        },
        {
          "internalType": "address",
          "name": "operator",
          "type": "address"
        }
      ],
      "name": "isApprovedForAll",
      "outputs": [
        {
          "internalType": "bool",
          "name": "",
          "type": "bool"
        }
      ],
      "stateMutability": "view",
      "type": "function"
    },
    {
      "inputs": [
        {
          "internalType": "uint256",
          "name": "_tokenId",
          "type": "uint256"
        },
        {
          "internalType": "uint256",
          "name": "_quantity",
          "type": "uint256"
        },
        {
          "internalType": "bytes",
          "name": "_data",
          "type": "bytes"
        }
      ],
      "name": "mint",
      "outputs": [],
      "stateMutability": "nonpayable",
      "type": "function"
    },
    {
      "inputs": [],
      "name": "mintTreasury",
      "outputs": [],
      "stateMutability": "nonpayable",
      "type": "function"
    },
    {
      "inputs": [],
      "name": "name",
      "outputs": [
        {
          "internalType": "string",
          "name": "",
          "type": "string"
        }
      ],
      "stateMutability": "view",
      "type": "function"
    },
    {
      "inputs": [],
      "name": "owner",
      "outputs": [
        {
          "internalType": "address",
          "name": "",
          "type": "address"
        }
      ],
      "stateMutability": "view",
      "type": "function"
    },
    {
      "inputs": [],
      "name": "renounceOwnership",
      "outputs": [],
      "stateMutability": "nonpayable",
      "type": "function"
    },
    {
      "inputs": [
        {
          "internalType": "address",
          "name": "from",
          "type": "address"
        },
        {
          "internalType": "address",
          "name": "to",
          "type": "address"
        },
        {
          "internalType": "uint256[]",
          "name": "ids",
          "type": "uint256[]"
        },
        {
          "internalType": "uint256[]",
          "name": "amounts",
          "type": "uint256[]"
        },
        {
          "internalType": "bytes",
          "name": "data",
          "type": "bytes"
        }
      ],
      "name": "safeBatchTransferFrom",
      "outputs": [],
      "stateMutability": "nonpayable",
      "type": "function"
    },
    {
      "inputs": [
        {
          "internalType": "address",
          "name": "from",
          "type": "address"
        },
        {
          "internalType": "address",
          "name": "to",
          "type": "address"
        },
        {
          "internalType": "uint256",
          "name": "id",
          "type": "uint256"
        },
        {
          "internalType": "uint256",
          "name": "amount",
          "type": "uint256"
        },
        {
          "internalType": "bytes",
          "name": "data",
          "type": "bytes"
        }
      ],
      "name": "safeTransferFrom",
      "outputs": [],
      "stateMutability": "nonpayable",
      "type": "function"
    },
    {
      "inputs": [
        {
          "internalType": "uint256",
          "name": "_tokenId",
          "type": "uint256"
        }
      ],
      "name": "setActiveStage",
      "outputs": [],
      "stateMutability": "nonpayable",
      "type": "function"
    },
    {
      "inputs": [
        {
          "internalType": "address",
          "name": "operator",
          "type": "address"
        },
        {
          "internalType": "bool",
          "name": "approved",
          "type": "bool"
        }
      ],
      "name": "setApprovalForAll",
      "outputs": [],
      "stateMutability": "nonpayable",
      "type": "function"
    },
    {
      "inputs": [
        {
          "internalType": "uint256",
          "name": "_tokenId",
          "type": "uint256"
        },
        {
          "internalType": "string",
          "name": "_uri",
          "type": "string"
        }
      ],
      "name": "setCustomURI",
      "outputs": [],
      "stateMutability": "nonpayable",
      "type": "function"
    },
    {
      "inputs": [
        {
          "internalType": "uint256",
          "name": "_tokenId",
          "type": "uint256"
        },
        {
          "internalType": "uint256",
          "name": "_price",
          "type": "uint256"
        }
      ],
      "name": "setPrice",
      "outputs": [],
      "stateMutability": "nonpayable",
      "type": "function"
    },
    {
      "inputs": [
        {
          "internalType": "string",
          "name": "_uri",
          "type": "string"
        }
      ],
      "name": "setURI",
      "outputs": [],
      "stateMutability": "nonpayable",
      "type": "function"
    },
    {
      "inputs": [
        {
          "internalType": "bytes4",
          "name": "interfaceId",
          "type": "bytes4"
        }
      ],
      "name": "supportsInterface",
      "outputs": [
        {
          "internalType": "bool",
          "name": "",
          "type": "bool"
        }
      ],
      "stateMutability": "view",
      "type": "function"
    },
    {
      "inputs": [],
      "name": "symbol",
      "outputs": [
        {
          "internalType": "string",
          "name": "",
          "type": "string"
        }
      ],
      "stateMutability": "view",
      "type": "function"
    },
    {
      "inputs": [
        {
          "internalType": "uint256",
          "name": "",
          "type": "uint256"
        }
      ],
      "name": "tokenToCurtomUri",
      "outputs": [
        {
          "internalType": "string",
          "name": "",
          "type": "string"
        }
      ],
      "stateMutability": "view",
      "type": "function"
    },
    {
      "inputs": [
        {
          "internalType": "uint256",
          "name": "",
          "type": "uint256"
        }
      ],
      "name": "tokenToMintedQty",
      "outputs": [
        {
          "internalType": "uint256",
          "name": "",
          "type": "uint256"
        }
      ],
      "stateMutability": "view",
      "type": "function"
    },
    {
      "inputs": [
        {
          "internalType": "uint256",
          "name": "",
          "type": "uint256"
        },
        {
          "internalType": "address",
          "name": "",
          "type": "address"
        }
      ],
      "name": "tokenToMinterBalance",
      "outputs": [
        {
          "internalType": "uint256",
          "name": "",
          "type": "uint256"
        }
      ],
      "stateMutability": "view",
      "type": "function"
    },
    {
      "inputs": [
        {
          "internalType": "uint256",
          "name": "",
          "type": "uint256"
        }
      ],
      "name": "tokenToPrice",
      "outputs": [
        {
          "internalType": "uint256",
          "name": "",
          "type": "uint256"
        }
      ],
      "stateMutability": "view",
      "type": "function"
    },
    {
      "inputs": [
        {
          "internalType": "address",
          "name": "newOwner",
          "type": "address"
        }
      ],
      "name": "transferOwnership",
      "outputs": [],
      "stateMutability": "nonpayable",
      "type": "function"
    },
    {
      "inputs": [],
      "name": "treasuryMinted",
      "outputs": [
        {
          "internalType": "bool",
          "name": "",
          "type": "bool"
        }
      ],
      "stateMutability": "view",
      "type": "function"
    },
    {
      "inputs": [
        {
          "internalType": "uint256",
          "name": "_tokenId",
          "type": "uint256"
        }
      ],
      "name": "uri",
      "outputs": [
        {
          "internalType": "string",
          "name": "",
          "type": "string"
        }
      ],
      "stateMutability": "view",
      "type": "function"
    },
    {
      "inputs": [],
      "name": "usdc",
      "outputs": [
        {
          "internalType": "contract IERC20",
          "name": "",
          "type": "address"
        }
      ],
      "stateMutability": "view",
      "type": "function"
    }
  ],
  "bytecode": "0x60806040523480156200001157600080fd5b5060405162005ecb38038062005ecb833981810160405281019062000037919062000908565b6040518060200160405280600081525062000058816200030a60201b60201c565b50620000796200006d6200032660201b60201c565b6200032e60201b60201c565b846004908051906020019062000091929190620007cf565b508360059080519060200190620000aa929190620007cf565b50620000dd83604051602001620000c2919062000b10565b604051602081830303815290604052620003f460201b60201c565b62000129600184620000fb60016200049760201b620020091760201c565b6040516020016200010e92919062000b36565b6040516020818303038152906040526200065960201b60201c565b620001756002846200014760026200049760201b620020091760201c565b6040516020016200015a92919062000b36565b6040516020818303038152906040526200065960201b60201c565b620001c16003846200019360036200049760201b620020091760201c565b604051602001620001a692919062000b36565b6040516020818303038152906040526200065960201b60201c565b6200020d600484620001df60046200049760201b620020091760201c565b604051602001620001f292919062000b36565b6040516020818303038152906040526200065960201b60201c565b81600760006101000a81548173ffffffffffffffffffffffffffffffffffffffff021916908373ffffffffffffffffffffffffffffffffffffffff160217905550620f4240600b60006001815260200190815260200160002081905550621e8480600b60006002815260200190815260200160002081905550622dc6c0600b60006003815260200190815260200160002081905550623d0900600b6000600481526020019081526020016000208190555080600960016101000a81548173ffffffffffffffffffffffffffffffffffffffff021916908373ffffffffffffffffffffffffffffffffffffffff160217905550505050505062001050565b806002908051906020019062000322929190620007cf565b5050565b600033905090565b6000600360009054906101000a900473ffffffffffffffffffffffffffffffffffffffff16905081600360006101000a81548173ffffffffffffffffffffffffffffffffffffffff021916908373ffffffffffffffffffffffffffffffffffffffff1602179055508173ffffffffffffffffffffffffffffffffffffffff168173ffffffffffffffffffffffffffffffffffffffff167f8be0079c531659141344cd1fd0a4f28419497f9722a3daafe3b4186f6b6457e060405160405180910390a35050565b620004046200032660201b60201c565b73ffffffffffffffffffffffffffffffffffffffff166200042a620007a560201b60201c565b73ffffffffffffffffffffffffffffffffffffffff161462000483576040517f08c379a00000000000000000000000000000000000000000000000000000000081526004016200047a9062000bbe565b60405180910390fd5b62000494816200030a60201b60201c565b50565b60606000821415620004e1576040518060400160405280600181526020017f3000000000000000000000000000000000000000000000000000000000000000815250905062000654565b600082905060005b6000821462000519578080620004ff9062000e16565b915050600a8262000511919062000cc3565b9150620004e9565b60008167ffffffffffffffff8111156200055c577f4e487b7100000000000000000000000000000000000000000000000000000000600052604160045260246000fd5b6040519080825280601f01601f1916602001820160405280156200058f5781602001600182028036833780820191505090505b5090505b600085146200064d57600182620005ab919062000cfb565b9150600a85620005bc919062000e64565b6030620005ca919062000c66565b60f81b81838151811062000607577f4e487b7100000000000000000000000000000000000000000000000000000000600052603260045260246000fd5b60200101907effffffffffffffffffffffffffffffffffffffffffffffffffffffffffffff1916908160001a905350600a8562000645919062000cc3565b945062000593565b8093505050505b919050565b620006696200032660201b60201c565b73ffffffffffffffffffffffffffffffffffffffff166200068f620007a560201b60201c565b73ffffffffffffffffffffffffffffffffffffffff1614620006e8576040517f08c379a0000000000000000000000000000000000000000000000000000000008152600401620006df9062000bbe565b60405180910390fd5b60018210158015620006fb575060048211155b6200073d576040517f08c379a0000000000000000000000000000000000000000000000000000000008152600401620007349062000b9c565b60405180910390fd5b80600a6000848152602001908152602001600020908051906020019062000766929190620007cf565b50817f6bb7ff708619ba0610cba295a58592e0451dee2622938c8755667688daf3529b8260405162000799919062000b78565b60405180910390a25050565b6000600360009054906101000a900473ffffffffffffffffffffffffffffffffffffffff16905090565b828054620007dd9062000daa565b90600052602060002090601f0160209004810192826200080157600085556200084d565b82601f106200081c57805160ff19168380011785556200084d565b828001600101855582156200084d579182015b828111156200084c5782518255916020019190600101906200082f565b5b5090506200085c919062000860565b5090565b5b808211156200087b57600081600090555060010162000861565b5090565b600062000896620008908462000c09565b62000be0565b905082815260208101848484011115620008af57600080fd5b620008bc84828562000d74565b509392505050565b600081519050620008d58162001036565b92915050565b600082601f830112620008ed57600080fd5b8151620008ff8482602086016200087f565b91505092915050565b600080600080600060a086880312156200092157600080fd5b600086015167ffffffffffffffff8111156200093c57600080fd5b6200094a88828901620008db565b955050602086015167ffffffffffffffff8111156200096857600080fd5b6200097688828901620008db565b945050604086015167ffffffffffffffff8111156200099457600080fd5b620009a288828901620008db565b9350506060620009b588828901620008c4565b9250506080620009c888828901620008c4565b9150509295509295909350565b6000620009e28262000c3f565b620009ee818562000c4a565b935062000a0081856020860162000d74565b62000a0b8162000f58565b840191505092915050565b600062000a238262000c3f565b62000a2f818562000c5b565b935062000a4181856020860162000d74565b80840191505092915050565b600062000a5c600a8362000c5b565b915062000a698262000f69565b600a82019050919050565b600062000a8360118362000c4a565b915062000a908262000f92565b602082019050919050565b600062000aaa60058362000c5b565b915062000ab78262000fbb565b600582019050919050565b600062000ad160208362000c4a565b915062000ade8262000fe4565b602082019050919050565b600062000af860018362000c5b565b915062000b05826200100d565b600182019050919050565b600062000b1e828462000a16565b915062000b2b8262000a4d565b915081905092915050565b600062000b44828562000a16565b915062000b518262000ae9565b915062000b5f828462000a16565b915062000b6c8262000a9b565b91508190509392505050565b6000602082019050818103600083015262000b948184620009d5565b905092915050565b6000602082019050818103600083015262000bb78162000a74565b9050919050565b6000602082019050818103600083015262000bd98162000ac2565b9050919050565b600062000bec62000bff565b905062000bfa828262000de0565b919050565b6000604051905090565b600067ffffffffffffffff82111562000c275762000c2662000f29565b5b62000c328262000f58565b9050602081019050919050565b600081519050919050565b600082825260208201905092915050565b600081905092915050565b600062000c738262000d6a565b915062000c808362000d6a565b9250827fffffffffffffffffffffffffffffffffffffffffffffffffffffffffffffffff0382111562000cb85762000cb762000e9c565b5b828201905092915050565b600062000cd08262000d6a565b915062000cdd8362000d6a565b92508262000cf05762000cef62000ecb565b5b828204905092915050565b600062000d088262000d6a565b915062000d158362000d6a565b92508282101562000d2b5762000d2a62000e9c565b5b828203905092915050565b600062000d438262000d4a565b9050919050565b600073ffffffffffffffffffffffffffffffffffffffff82169050919050565b6000819050919050565b60005b8381101562000d9457808201518184015260208101905062000d77565b8381111562000da4576000848401525b50505050565b6000600282049050600182168062000dc357607f821691505b6020821081141562000dda5762000dd962000efa565b5b50919050565b62000deb8262000f58565b810181811067ffffffffffffffff8211171562000e0d5762000e0c62000f29565b5b80604052505050565b600062000e238262000d6a565b91507fffffffffffffffffffffffffffffffffffffffffffffffffffffffffffffffff82141562000e595762000e5862000e9c565b5b600182019050919050565b600062000e718262000d6a565b915062000e7e8362000d6a565b92508262000e915762000e9062000ecb565b5b828206905092915050565b7f4e487b7100000000000000000000000000000000000000000000000000000000600052601160045260246000fd5b7f4e487b7100000000000000000000000000000000000000000000000000000000600052601260045260246000fd5b7f4e487b7100000000000000000000000000000000000000000000000000000000600052602260045260246000fd5b7f4e487b7100000000000000000000000000000000000000000000000000000000600052604160045260246000fd5b6000601f19601f8301169050919050565b7f2f7b69647d2e6a736f6e00000000000000000000000000000000000000000000600082015250565b7f4e6f6e6578697374656e7420746f6b656e000000000000000000000000000000600082015250565b7f2e6a736f6e000000000000000000000000000000000000000000000000000000600082015250565b7f4f776e61626c653a2063616c6c6572206973206e6f7420746865206f776e6572600082015250565b7f2f00000000000000000000000000000000000000000000000000000000000000600082015250565b620010418162000d36565b81146200104d57600080fd5b50565b614e6b80620010606000396000f3fe608060405234801561001057600080fd5b506004361061025d5760003560e01c8063843dde2011610146578063ac501c41116100c3578063e985e9c511610087578063e985e9c51461071a578063eb642c8e1461074a578063f242432a14610768578063f2fde38b14610784578063f7d97577146107a0578063fdd0f3ca146107bc5761025d565b8063ac501c4114610674578063c5cdff8c14610692578063cdc9273b146106b0578063e3e35062146106e0578063e7572230146106ea5761025d565b806395d89b411161010a57806395d89b41146105ce5780639949fb84146105ec5780639abc83201461060a578063a22cb46514610628578063a726f59b146106445761025d565b8063843dde201461052857806388da457e14610558578063896086de146105765780638cd6976e146105925780638da5cb5b146105b05761025d565b80632b66d7cf116101df578063458db8b7116101a3578063458db8b7146104645780634864d8d9146104945780634e1273f4146104b257806351debc44146104e25780636c3c986c14610500578063715018a61461051e5761025d565b80632b66d7cf146103d25780632eb2c2d6146103f057806331271f961461040c5780633adf80b41461042a5780633e413bee146104465761025d565b80630e89341c116102265780630e89341c146103185780630f55be0c146103485780630f7d26151461036657806319c9b7361461039657806328f0d90a146103b45761025d565b8062fdd58e1461026257806301ffc9a71461029257806302fe5305146102c257806306fdde03146102de57806308dc9f42146102fc575b600080fd5b61027c60048036038101906102779190613661565b6107da565b6040516102899190614270565b60405180910390f35b6102ac60048036038101906102a79190613732565b6108a3565b6040516102b99190613f38565b60405180910390f35b6102dc60048036038101906102d79190613784565b610985565b005b6102e6610a0d565b6040516102f39190613f6e565b60405180910390f35b610316600480360381019061031191906138e3565b610a9b565b005b610332600480360381019061032d91906137c5565b611015565b60405161033f9190613f6e565b60405180910390f35b6103506111c8565b60405161035d9190614270565b60405180910390f35b610380600480360381019061037b91906137c5565b6111cd565b60405161038d9190613f6e565b60405180910390f35b61039e61126d565b6040516103ab9190614270565b60405180910390f35b6103bc611272565b6040516103c99190614270565b60405180910390f35b6103da611277565b6040516103e79190614270565b60405180910390f35b61040a600480360381019061040591906134d7565b61127c565b005b61041461131d565b6040516104219190614270565b60405180910390f35b610444600480360381019061043f9190613853565b611323565b005b61044e611454565b60405161045b9190613f53565b60405180910390f35b61047e600480360381019061047991906137c5565b61147a565b60405161048b9190614270565b60405180910390f35b61049c611492565b6040516104a99190614270565b60405180910390f35b6104cc60048036038101906104c7919061369d565b611498565b6040516104d99190613edf565b60405180910390f35b6104ea611649565b6040516104f79190614270565b60405180910390f35b61050861164e565b6040516105159190613da2565b60405180910390f35b610526611674565b005b610542600480360381019061053d91906137c5565b6116fc565b60405161054f9190614270565b60405180910390f35b610560611714565b60405161056d9190614270565b60405180910390f35b610590600480360381019061058b91906137c5565b611726565b005b61059a6117fd565b6040516105a79190614270565b60405180910390f35b6105b8611802565b6040516105c59190613da2565b60405180910390f35b6105d661182c565b6040516105e39190613f6e565b60405180910390f35b6105f46118ba565b6040516106019190614270565b60405180910390f35b6106126118bf565b60405161061f9190613f6e565b60405180910390f35b610642600480360381019061063d9190613625565b61194d565b005b61065e600480360381019061065991906137c5565b611963565b60405161066b9190614270565b60405180910390f35b61067c6119f6565b6040516106899190614270565b60405180910390f35b61069a6119fb565b6040516106a79190614270565b60405180910390f35b6106ca60048036038101906106c59190613817565b611a00565b6040516106d79190614270565b60405180910390f35b6106e8611a25565b005b61070460048036038101906106ff91906137c5565b611c2a565b6040516107119190614270565b60405180910390f35b610734600480360381019061072f919061349b565b611c98565b6040516107419190613f38565b60405180910390f35b610752611d2c565b60405161075f9190614270565b60405180910390f35b610782600480360381019061077d9190613596565b611d31565b005b61079e60048036038101906107999190613472565b611dd2565b005b6107ba60048036038101906107b591906138a7565b611eca565b005b6107c4611ff6565b6040516107d19190613f38565b60405180910390f35b60008073ffffffffffffffffffffffffffffffffffffffff168373ffffffffffffffffffffffffffffffffffffffff16141561084b576040517f08c379a000000000000000000000000000000000000000000000000000000000815260040161084290613fd0565b60405180910390fd5b60008083815260200190815260200160002060008473ffffffffffffffffffffffffffffffffffffffff1673ffffffffffffffffffffffffffffffffffffffff16815260200190815260200160002054905092915050565b60007fd9b67a26000000000000000000000000000000000000000000000000000000007bffffffffffffffffffffffffffffffffffffffffffffffffffffffff1916827bffffffffffffffffffffffffffffffffffffffffffffffffffffffff1916148061096e57507f0e89341c000000000000000000000000000000000000000000000000000000007bffffffffffffffffffffffffffffffffffffffffffffffffffffffff1916827bffffffffffffffffffffffffffffffffffffffffffffffffffffffff1916145b8061097e575061097d826121b6565b5b9050919050565b61098d612220565b73ffffffffffffffffffffffffffffffffffffffff166109ab611802565b73ffffffffffffffffffffffffffffffffffffffff1614610a01576040517f08c379a00000000000000000000000000000000000000000000000000000000081526004016109f890614110565b60405180910390fd5b610a0a81612228565b50565b60048054610a1a906145f3565b80601f0160208091040260200160405190810160405280929190818152602001828054610a46906145f3565b8015610a935780601f10610a6857610100808354040283529160200191610a93565b820191906000526020600020905b815481529060010190602001808311610a7657829003601f168201915b505050505081565b60018310158015610aad575060048311155b610aec576040517f08c379a0000000000000000000000000000000000000000000000000000000008152600401610ae390614070565b60405180910390fd5b8260085414610b30576040517f08c379a0000000000000000000000000000000000000000000000000000000008152600401610b2790614230565b60405180910390fd5b610b3983611963565b82600c600086815260200190815260200160002054610b589190614404565b1115610b99576040517f08c379a0000000000000000000000000000000000000000000000000000000008152600401610b9090614250565b60405180910390fd5b600582600d600086815260200190815260200160002060003373ffffffffffffffffffffffffffffffffffffffff1673ffffffffffffffffffffffffffffffffffffffff16815260200190815260200160002054610bf79190614404565b1115610c38576040517f08c379a0000000000000000000000000000000000000000000000000000000008152600401610c2f90614130565b60405180910390fd5b600082610c4485611c2a565b610c4e919061448b565b90506000600760009054906101000a900473ffffffffffffffffffffffffffffffffffffffff1673ffffffffffffffffffffffffffffffffffffffff166370a08231336040518263ffffffff1660e01b8152600401610cad9190613da2565b60206040518083038186803b158015610cc557600080fd5b505afa158015610cd9573d6000803e3d6000fd5b505050506040513d601f19601f82011682018060405250810190610cfd91906137ee565b905081811015610d42576040517f08c379a0000000000000000000000000000000000000000000000000000000008152600401610d3990614030565b60405180910390fd5b6000600760009054906101000a900473ffffffffffffffffffffffffffffffffffffffff1673ffffffffffffffffffffffffffffffffffffffff1663dd62ed3e33600960019054906101000a900473ffffffffffffffffffffffffffffffffffffffff166040518363ffffffff1660e01b8152600401610dc3929190613dbd565b60206040518083038186803b158015610ddb57600080fd5b505afa158015610def573d6000803e3d6000fd5b505050506040513d601f19601f82011682018060405250810190610e1391906137ee565b905082811015610e58576040517f08c379a0000000000000000000000000000000000000000000000000000000008152600401610e4f906140b0565b60405180910390fd5b6000600760009054906101000a900473ffffffffffffffffffffffffffffffffffffffff1673ffffffffffffffffffffffffffffffffffffffff166323b872dd33600960019054906101000a900473ffffffffffffffffffffffffffffffffffffffff16876040518463ffffffff1660e01b8152600401610edb93929190613e4e565b602060405180830381600087803b158015610ef557600080fd5b505af1158015610f09573d6000803e3d6000fd5b505050506040513d601f19601f82011682018060405250810190610f2d9190613709565b905080610f6f576040517f08c379a0000000000000000000000000000000000000000000000000000000008152600401610f66906140d0565b60405180910390fd5b610f7b33888888612242565b85600c60008981526020019081526020016000206000828254610f9e9190614404565b9250508190555085600d600089815260200190815260200160002060003373ffffffffffffffffffffffffffffffffffffffff1673ffffffffffffffffffffffffffffffffffffffff16815260200190815260200160002060008282546110059190614404565b9250508190555050505050505050565b606060018210158015611029575060048211155b611068576040517f08c379a000000000000000000000000000000000000000000000000000000000815260040161105f90614070565b60405180910390fd5b6000600a60008481526020019081526020016000208054611088906145f3565b80601f01602080910402602001604051908101604052809291908181526020018280546110b4906145f3565b80156111015780601f106110d657610100808354040283529160200191611101565b820191906000526020600020905b8154815290600101906020018083116110e457829003601f168201915b505050505090506000815111156111b657600a60008481526020019081526020016000208054611130906145f3565b80601f016020809104026020016040519081016040528092919081815260200182805461115c906145f3565b80156111a95780601f1061117e576101008083540402835291602001916111a9565b820191906000526020600020905b81548152906001019060200180831161118c57829003601f168201915b50505050509150506111c3565b6111bf836123d8565b9150505b919050565b600381565b600a60205280600052604060002060009150905080546111ec906145f3565b80601f0160208091040260200160405190810160405280929190818152602001828054611218906145f3565b80156112655780601f1061123a57610100808354040283529160200191611265565b820191906000526020600020905b81548152906001019060200180831161124857829003601f168201915b505050505081565b600481565b60a081565b600281565b611284612220565b73ffffffffffffffffffffffffffffffffffffffff168573ffffffffffffffffffffffffffffffffffffffff1614806112ca57506112c9856112c4612220565b611c98565b5b611309576040517f08c379a000000000000000000000000000000000000000000000000000000000815260040161130090614090565b60405180910390fd5b611316858585858561246c565b5050505050565b6102bc81565b61132b612220565b73ffffffffffffffffffffffffffffffffffffffff16611349611802565b73ffffffffffffffffffffffffffffffffffffffff161461139f576040517f08c379a000000000000000000000000000000000000000000000000000000000815260040161139690614110565b60405180910390fd5b600182101580156113b1575060048211155b6113f0576040517f08c379a00000000000000000000000000000000000000000000000000000000081526004016113e790614070565b60405180910390fd5b80600a60008481526020019081526020016000209080519060200190611417929190613140565b50817f6bb7ff708619ba0610cba295a58592e0451dee2622938c8755667688daf3529b826040516114489190613f6e565b60405180910390a25050565b600760009054906101000a900473ffffffffffffffffffffffffffffffffffffffff1681565b600c6020528060005260406000206000915090505481565b60085481565b606081518351146114de576040517f08c379a00000000000000000000000000000000000000000000000000000000081526004016114d5906141b0565b60405180910390fd5b6000835167ffffffffffffffff811115611521577f4e487b7100000000000000000000000000000000000000000000000000000000600052604160045260246000fd5b60405190808252806020026020018201604052801561154f5781602001602082028036833780820191505090505b50905060005b845181101561163e576115e885828151811061159a577f4e487b7100000000000000000000000000000000000000000000000000000000600052603260045260246000fd5b60200260200101518583815181106115db577f4e487b7100000000000000000000000000000000000000000000000000000000600052603260045260246000fd5b60200260200101516107da565b828281518110611621577f4e487b7100000000000000000000000000000000000000000000000000000000600052603260045260246000fd5b6020026020010181815250508061163790614656565b9050611555565b508091505092915050565b600481565b600960019054906101000a900473ffffffffffffffffffffffffffffffffffffffff1681565b61167c612220565b73ffffffffffffffffffffffffffffffffffffffff1661169a611802565b73ffffffffffffffffffffffffffffffffffffffff16146116f0576040517f08c379a00000000000000000000000000000000000000000000000000000000081526004016116e790614110565b60405180910390fd5b6116fa60006127cc565b565b600b6020528060005260406000206000915090505481565b6102bc60a06117239190614404565b81565b61172e612220565b73ffffffffffffffffffffffffffffffffffffffff1661174c611802565b73ffffffffffffffffffffffffffffffffffffffff16146117a2576040517f08c379a000000000000000000000000000000000000000000000000000000000815260040161179990614110565b60405180910390fd5b600181101580156117b4575060048111155b6117f3576040517f08c379a00000000000000000000000000000000000000000000000000000000081526004016117ea90614070565b60405180910390fd5b8060088190555050565b60be81565b6000600360009054906101000a900473ffffffffffffffffffffffffffffffffffffffff16905090565b60058054611839906145f3565b80601f0160208091040260200160405190810160405280929190818152602001828054611865906145f3565b80156118b25780601f10611887576101008083540402835291602001916118b2565b820191906000526020600020905b81548152906001019060200180831161189557829003601f168201915b505050505081565b608781565b600680546118cc906145f3565b80601f01602080910402602001604051908101604052809291908181526020018280546118f8906145f3565b80156119455780601f1061191a57610100808354040283529160200191611945565b820191906000526020600020905b81548152906001019060200180831161192857829003601f168201915b505050505081565b61195f611958612220565b8383612892565b5050565b600060018210158015611977575060048211155b6119b6576040517f08c379a00000000000000000000000000000000000000000000000000000000081526004016119ad90614070565b60405180910390fd5b60018214156119c857605090506119f1565b60028214156119da57608790506119f1565b60038214156119ec5760be90506119f1565b60a090505b919050565b600581565b600181565b600d602052816000526040600020602052806000526040600020600091509150505481565b611a2d612220565b73ffffffffffffffffffffffffffffffffffffffff16611a4b611802565b73ffffffffffffffffffffffffffffffffffffffff1614611aa1576040517f08c379a0000000000000000000000000000000000000000000000000000000008152600401611a9890614110565b60405180910390fd5b600460085414611ae6576040517f08c379a0000000000000000000000000000000000000000000000000000000008152600401611add90614150565b60405180910390fd5b600960009054906101000a900460ff1615611b36576040517f08c379a0000000000000000000000000000000000000000000000000000000008152600401611b2d906141d0565b60405180910390fd5b611b76600960019054906101000a900473ffffffffffffffffffffffffffffffffffffffff1660046102bc60405180602001604052806000815250612242565b6102bc600c6000600481526020019081526020016000206000828254611b9c9190614404565b925050819055506102bc600d60006004815260200190815260200160002060003373ffffffffffffffffffffffffffffffffffffffff1673ffffffffffffffffffffffffffffffffffffffff1681526020019081526020016000206000828254611c069190614404565b925050819055506001600960006101000a81548160ff021916908315150217905550565b600060018210158015611c3e575060048211155b611c7d576040517f08c379a0000000000000000000000000000000000000000000000000000000008152600401611c7490614070565b60405180910390fd5b600b6000838152602001908152602001600020549050919050565b6000600160008473ffffffffffffffffffffffffffffffffffffffff1673ffffffffffffffffffffffffffffffffffffffff16815260200190815260200160002060008373ffffffffffffffffffffffffffffffffffffffff1673ffffffffffffffffffffffffffffffffffffffff16815260200190815260200160002060009054906101000a900460ff16905092915050565b605081565b611d39612220565b73ffffffffffffffffffffffffffffffffffffffff168573ffffffffffffffffffffffffffffffffffffffff161480611d7f5750611d7e85611d79612220565b611c98565b5b611dbe576040517f08c379a0000000000000000000000000000000000000000000000000000000008152600401611db590614010565b60405180910390fd5b611dcb85858585856129ff565b5050505050565b611dda612220565b73ffffffffffffffffffffffffffffffffffffffff16611df8611802565b73ffffffffffffffffffffffffffffffffffffffff1614611e4e576040517f08c379a0000000000000000000000000000000000000000000000000000000008152600401611e4590614110565b60405180910390fd5b600073ffffffffffffffffffffffffffffffffffffffff168173ffffffffffffffffffffffffffffffffffffffff161415611ebe576040517f08c379a0000000000000000000000000000000000000000000000000000000008152600401611eb590613ff0565b60405180910390fd5b611ec7816127cc565b50565b611ed2612220565b73ffffffffffffffffffffffffffffffffffffffff16611ef0611802565b73ffffffffffffffffffffffffffffffffffffffff1614611f46576040517f08c379a0000000000000000000000000000000000000000000000000000000008152600401611f3d90614110565b60405180910390fd5b60018210158015611f58575060048211155b611f97576040517f08c379a0000000000000000000000000000000000000000000000000000000008152600401611f8e90614070565b60405180910390fd5b60008111611fda576040517f08c379a0000000000000000000000000000000000000000000000000000000008152600401611fd190614170565b60405180910390fd5b80600b6000848152602001908152602001600020819055505050565b600960009054906101000a900460ff1681565b60606000821415612051576040518060400160405280600181526020017f300000000000000000000000000000000000000000000000000000000000000081525090506121b1565b600082905060005b6000821461208357808061206c90614656565b915050600a8261207c919061445a565b9150612059565b60008167ffffffffffffffff8111156120c5577f4e487b7100000000000000000000000000000000000000000000000000000000600052604160045260246000fd5b6040519080825280601f01601f1916602001820160405280156120f75781602001600182028036833780820191505090505b5090505b600085146121aa5760018261211091906144e5565b9150600a8561211f919061469f565b603061212b9190614404565b60f81b818381518110612167577f4e487b7100000000000000000000000000000000000000000000000000000000600052603260045260246000fd5b60200101907effffffffffffffffffffffffffffffffffffffffffffffffffffffffffffff1916908160001a905350600a856121a3919061445a565b94506120fb565b8093505050505b919050565b60007f01ffc9a7000000000000000000000000000000000000000000000000000000007bffffffffffffffffffffffffffffffffffffffffffffffffffffffff1916827bffffffffffffffffffffffffffffffffffffffffffffffffffffffff1916149050919050565b600033905090565b806002908051906020019061223e929190613140565b5050565b600073ffffffffffffffffffffffffffffffffffffffff168473ffffffffffffffffffffffffffffffffffffffff1614156122b2576040517f08c379a00000000000000000000000000000000000000000000000000000000081526004016122a990614210565b60405180910390fd5b60006122bc612220565b90506122dd816000876122ce88612c81565b6122d788612c81565b87612d47565b8260008086815260200190815260200160002060008773ffffffffffffffffffffffffffffffffffffffff1673ffffffffffffffffffffffffffffffffffffffff168152602001908152602001600020600082825461233c9190614404565b925050819055508473ffffffffffffffffffffffffffffffffffffffff16600073ffffffffffffffffffffffffffffffffffffffff168273ffffffffffffffffffffffffffffffffffffffff167fc3d58168c5ae7397731d063d5bbf3d657854427343f4c083240f7aacaa2d0f6287876040516123ba92919061428b565b60405180910390a46123d181600087878787612d4f565b5050505050565b6060600280546123e7906145f3565b80601f0160208091040260200160405190810160405280929190818152602001828054612413906145f3565b80156124605780601f1061243557610100808354040283529160200191612460565b820191906000526020600020905b81548152906001019060200180831161244357829003601f168201915b50505050509050919050565b81518351146124b0576040517f08c379a00000000000000000000000000000000000000000000000000000000081526004016124a7906141f0565b60405180910390fd5b600073ffffffffffffffffffffffffffffffffffffffff168473ffffffffffffffffffffffffffffffffffffffff161415612520576040517f08c379a000000000000000000000000000000000000000000000000000000000815260040161251790614050565b60405180910390fd5b600061252a612220565b905061253a818787878787612d47565b60005b8451811015612737576000858281518110612581577f4e487b7100000000000000000000000000000000000000000000000000000000600052603260045260246000fd5b6020026020010151905060008583815181106125c6577f4e487b7100000000000000000000000000000000000000000000000000000000600052603260045260246000fd5b60200260200101519050600080600084815260200190815260200160002060008b73ffffffffffffffffffffffffffffffffffffffff1673ffffffffffffffffffffffffffffffffffffffff16815260200190815260200160002054905081811015612667576040517f08c379a000000000000000000000000000000000000000000000000000000000815260040161265e906140f0565b60405180910390fd5b81810360008085815260200190815260200160002060008c73ffffffffffffffffffffffffffffffffffffffff1673ffffffffffffffffffffffffffffffffffffffff168152602001908152602001600020819055508160008085815260200190815260200160002060008b73ffffffffffffffffffffffffffffffffffffffff1673ffffffffffffffffffffffffffffffffffffffff168152602001908152602001600020600082825461271c9190614404565b925050819055505050508061273090614656565b905061253d565b508473ffffffffffffffffffffffffffffffffffffffff168673ffffffffffffffffffffffffffffffffffffffff168273ffffffffffffffffffffffffffffffffffffffff167f4a39dc06d4c0dbc64b70af90fd698a233a518aa5d07e595d983b8c0526c8f7fb87876040516127ae929190613f01565b60405180910390a46127c4818787878787612f36565b505050505050565b6000600360009054906101000a900473ffffffffffffffffffffffffffffffffffffffff16905081600360006101000a81548173ffffffffffffffffffffffffffffffffffffffff021916908373ffffffffffffffffffffffffffffffffffffffff1602179055508173ffffffffffffffffffffffffffffffffffffffff168173ffffffffffffffffffffffffffffffffffffffff167f8be0079c531659141344cd1fd0a4f28419497f9722a3daafe3b4186f6b6457e060405160405180910390a35050565b8173ffffffffffffffffffffffffffffffffffffffff168373ffffffffffffffffffffffffffffffffffffffff161415612901576040517f08c379a00000000000000000000000000000000000000000000000000000000081526004016128f890614190565b60405180910390fd5b80600160008573ffffffffffffffffffffffffffffffffffffffff1673ffffffffffffffffffffffffffffffffffffffff16815260200190815260200160002060008473ffffffffffffffffffffffffffffffffffffffff1673ffffffffffffffffffffffffffffffffffffffff16815260200190815260200160002060006101000a81548160ff0219169083151502179055508173ffffffffffffffffffffffffffffffffffffffff168373ffffffffffffffffffffffffffffffffffffffff167f17307eab39ab6107e8899845ad3d59bd9653f200f220920489ca2b5937696c31836040516129f29190613f38565b60405180910390a3505050565b600073ffffffffffffffffffffffffffffffffffffffff168473ffffffffffffffffffffffffffffffffffffffff161415612a6f576040517f08c379a0000000000000000000000000000000000000000000000000000000008152600401612a6690614050565b60405180910390fd5b6000612a79612220565b9050612a99818787612a8a88612c81565b612a9388612c81565b87612d47565b600080600086815260200190815260200160002060008873ffffffffffffffffffffffffffffffffffffffff1673ffffffffffffffffffffffffffffffffffffffff16815260200190815260200160002054905083811015612b30576040517f08c379a0000000000000000000000000000000000000000000000000000000008152600401612b27906140f0565b60405180910390fd5b83810360008087815260200190815260200160002060008973ffffffffffffffffffffffffffffffffffffffff1673ffffffffffffffffffffffffffffffffffffffff168152602001908152602001600020819055508360008087815260200190815260200160002060008873ffffffffffffffffffffffffffffffffffffffff1673ffffffffffffffffffffffffffffffffffffffff1681526020019081526020016000206000828254612be59190614404565b925050819055508573ffffffffffffffffffffffffffffffffffffffff168773ffffffffffffffffffffffffffffffffffffffff168373ffffffffffffffffffffffffffffffffffffffff167fc3d58168c5ae7397731d063d5bbf3d657854427343f4c083240f7aacaa2d0f628888604051612c6292919061428b565b60405180910390a4612c78828888888888612d4f565b50505050505050565b60606000600167ffffffffffffffff811115612cc6577f4e487b7100000000000000000000000000000000000000000000000000000000600052604160045260246000fd5b604051908082528060200260200182016040528015612cf45781602001602082028036833780820191505090505b5090508281600081518110612d32577f4e487b7100000000000000000000000000000000000000000000000000000000600052603260045260246000fd5b60200260200101818152505080915050919050565b505050505050565b612d6e8473ffffffffffffffffffffffffffffffffffffffff1661311d565b15612f2e578373ffffffffffffffffffffffffffffffffffffffff1663f23a6e6187878686866040518663ffffffff1660e01b8152600401612db4959493929190613e85565b602060405180830381600087803b158015612dce57600080fd5b505af1925050508015612dff57506040513d601f19601f82011682018060405250810190612dfc919061375b565b60015b612ea557612e0b61478c565b806308c379a01415612e685750612e20614d43565b80612e2b5750612e6a565b806040517f08c379a0000000000000000000000000000000000000000000000000000000008152600401612e5f9190613f6e565b60405180910390fd5b505b6040517f08c379a0000000000000000000000000000000000000000000000000000000008152600401612e9c90613f90565b60405180910390fd5b63f23a6e6160e01b7bffffffffffffffffffffffffffffffffffffffffffffffffffffffff1916817bffffffffffffffffffffffffffffffffffffffffffffffffffffffff191614612f2c576040517f08c379a0000000000000000000000000000000000000000000000000000000008152600401612f2390613fb0565b60405180910390fd5b505b505050505050565b612f558473ffffffffffffffffffffffffffffffffffffffff1661311d565b15613115578373ffffffffffffffffffffffffffffffffffffffff1663bc197c8187878686866040518663ffffffff1660e01b8152600401612f9b959493929190613de6565b602060405180830381600087803b158015612fb557600080fd5b505af1925050508015612fe657506040513d601f19601f82011682018060405250810190612fe3919061375b565b60015b61308c57612ff261478c565b806308c379a0141561304f5750613007614d43565b806130125750613051565b806040517f08c379a00000000000000000000000000000000000000000000000000000000081526004016130469190613f6e565b60405180910390fd5b505b6040517f08c379a000000000000000000000000000000000000000000000000000000000815260040161308390613f90565b60405180910390fd5b63bc197c8160e01b7bffffffffffffffffffffffffffffffffffffffffffffffffffffffff1916817bffffffffffffffffffffffffffffffffffffffffffffffffffffffff191614613113576040517f08c379a000000000000000000000000000000000000000000000000000000000815260040161310a90613fb0565b60405180910390fd5b505b505050505050565b6000808273ffffffffffffffffffffffffffffffffffffffff163b119050919050565b82805461314c906145f3565b90600052602060002090601f01602090048101928261316e57600085556131b5565b82601f1061318757805160ff19168380011785556131b5565b828001600101855582156131b5579182015b828111156131b4578251825591602001919060010190613199565b5b5090506131c291906131c6565b5090565b5b808211156131df5760008160009055506001016131c7565b5090565b60006131f66131f1846142d9565b6142b4565b9050808382526020820190508285602086028201111561321557600080fd5b60005b85811015613245578161322b8882613337565b845260208401935060208301925050600181019050613218565b5050509392505050565b600061326261325d84614305565b6142b4565b9050808382526020820190508285602086028201111561328157600080fd5b60005b858110156132b157816132978882613448565b845260208401935060208301925050600181019050613284565b5050509392505050565b60006132ce6132c984614331565b6142b4565b9050828152602081018484840111156132e657600080fd5b6132f18482856145b1565b509392505050565b600061330c61330784614362565b6142b4565b90508281526020810184848401111561332457600080fd5b61332f8482856145b1565b509392505050565b60008135905061334681614dd9565b92915050565b600082601f83011261335d57600080fd5b813561336d8482602086016131e3565b91505092915050565b600082601f83011261338757600080fd5b813561339784826020860161324f565b91505092915050565b6000813590506133af81614df0565b92915050565b6000815190506133c481614df0565b92915050565b6000813590506133d981614e07565b92915050565b6000815190506133ee81614e07565b92915050565b600082601f83011261340557600080fd5b81356134158482602086016132bb565b91505092915050565b600082601f83011261342f57600080fd5b813561343f8482602086016132f9565b91505092915050565b60008135905061345781614e1e565b92915050565b60008151905061346c81614e1e565b92915050565b60006020828403121561348457600080fd5b600061349284828501613337565b91505092915050565b600080604083850312156134ae57600080fd5b60006134bc85828601613337565b92505060206134cd85828601613337565b9150509250929050565b600080600080600060a086880312156134ef57600080fd5b60006134fd88828901613337565b955050602061350e88828901613337565b945050604086013567ffffffffffffffff81111561352b57600080fd5b61353788828901613376565b935050606086013567ffffffffffffffff81111561355457600080fd5b61356088828901613376565b925050608086013567ffffffffffffffff81111561357d57600080fd5b613589888289016133f4565b9150509295509295909350565b600080600080600060a086880312156135ae57600080fd5b60006135bc88828901613337565b95505060206135cd88828901613337565b94505060406135de88828901613448565b93505060606135ef88828901613448565b925050608086013567ffffffffffffffff81111561360c57600080fd5b613618888289016133f4565b9150509295509295909350565b6000806040838503121561363857600080fd5b600061364685828601613337565b9250506020613657858286016133a0565b9150509250929050565b6000806040838503121561367457600080fd5b600061368285828601613337565b925050602061369385828601613448565b9150509250929050565b600080604083850312156136b057600080fd5b600083013567ffffffffffffffff8111156136ca57600080fd5b6136d68582860161334c565b925050602083013567ffffffffffffffff8111156136f357600080fd5b6136ff85828601613376565b9150509250929050565b60006020828403121561371b57600080fd5b6000613729848285016133b5565b91505092915050565b60006020828403121561374457600080fd5b6000613752848285016133ca565b91505092915050565b60006020828403121561376d57600080fd5b600061377b848285016133df565b91505092915050565b60006020828403121561379657600080fd5b600082013567ffffffffffffffff8111156137b057600080fd5b6137bc8482850161341e565b91505092915050565b6000602082840312156137d757600080fd5b60006137e584828501613448565b91505092915050565b60006020828403121561380057600080fd5b600061380e8482850161345d565b91505092915050565b6000806040838503121561382a57600080fd5b600061383885828601613448565b925050602061384985828601613337565b9150509250929050565b6000806040838503121561386657600080fd5b600061387485828601613448565b925050602083013567ffffffffffffffff81111561389157600080fd5b61389d8582860161341e565b9150509250929050565b600080604083850312156138ba57600080fd5b60006138c885828601613448565b92505060206138d985828601613448565b9150509250929050565b6000806000606084860312156138f857600080fd5b600061390686828701613448565b935050602061391786828701613448565b925050604084013567ffffffffffffffff81111561393457600080fd5b613940868287016133f4565b9150509250925092565b60006139568383613d84565b60208301905092915050565b61396b81614519565b82525050565b600061397c826143a3565b61398681856143d1565b935061399183614393565b8060005b838110156139c25781516139a9888261394a565b97506139b4836143c4565b925050600181019050613995565b5085935050505092915050565b6139d88161452b565b82525050565b60006139e9826143ae565b6139f381856143e2565b9350613a038185602086016145c0565b613a0c816147ae565b840191505092915050565b613a208161458d565b82525050565b6000613a31826143b9565b613a3b81856143f3565b9350613a4b8185602086016145c0565b613a54816147ae565b840191505092915050565b6000613a6c6034836143f3565b9150613a77826147cc565b604082019050919050565b6000613a8f6028836143f3565b9150613a9a8261481b565b604082019050919050565b6000613ab2602b836143f3565b9150613abd8261486a565b604082019050919050565b6000613ad56026836143f3565b9150613ae0826148b9565b604082019050919050565b6000613af86029836143f3565b9150613b0382614908565b604082019050919050565b6000613b1b6014836143f3565b9150613b2682614957565b602082019050919050565b6000613b3e6025836143f3565b9150613b4982614980565b604082019050919050565b6000613b616011836143f3565b9150613b6c826149cf565b602082019050919050565b6000613b846032836143f3565b9150613b8f826149f8565b604082019050919050565b6000613ba76019836143f3565b9150613bb282614a47565b602082019050919050565b6000613bca6012836143f3565b9150613bd582614a70565b602082019050919050565b6000613bed602a836143f3565b9150613bf882614a99565b604082019050919050565b6000613c106020836143f3565b9150613c1b82614ae8565b602082019050919050565b6000613c33601a836143f3565b9150613c3e82614b11565b602082019050919050565b6000613c56601f836143f3565b9150613c6182614b3a565b602082019050919050565b6000613c79601a836143f3565b9150613c8482614b63565b602082019050919050565b6000613c9c6029836143f3565b9150613ca782614b8c565b604082019050919050565b6000613cbf6029836143f3565b9150613cca82614bdb565b604082019050919050565b6000613ce26017836143f3565b9150613ced82614c2a565b602082019050919050565b6000613d056028836143f3565b9150613d1082614c53565b604082019050919050565b6000613d286021836143f3565b9150613d3382614ca2565b604082019050919050565b6000613d4b601b836143f3565b9150613d5682614cf1565b602082019050919050565b6000613d6e6017836143f3565b9150613d7982614d1a565b602082019050919050565b613d8d81614583565b82525050565b613d9c81614583565b82525050565b6000602082019050613db76000830184613962565b92915050565b6000604082019050613dd26000830185613962565b613ddf6020830184613962565b9392505050565b600060a082019050613dfb6000830188613962565b613e086020830187613962565b8181036040830152613e1a8186613971565b90508181036060830152613e2e8185613971565b90508181036080830152613e4281846139de565b90509695505050505050565b6000606082019050613e636000830186613962565b613e706020830185613962565b613e7d6040830184613d93565b949350505050565b600060a082019050613e9a6000830188613962565b613ea76020830187613962565b613eb46040830186613d93565b613ec16060830185613d93565b8181036080830152613ed381846139de565b90509695505050505050565b60006020820190508181036000830152613ef98184613971565b905092915050565b60006040820190508181036000830152613f1b8185613971565b90508181036020830152613f2f8184613971565b90509392505050565b6000602082019050613f4d60008301846139cf565b92915050565b6000602082019050613f686000830184613a17565b92915050565b60006020820190508181036000830152613f888184613a26565b905092915050565b60006020820190508181036000830152613fa981613a5f565b9050919050565b60006020820190508181036000830152613fc981613a82565b9050919050565b60006020820190508181036000830152613fe981613aa5565b9050919050565b6000602082019050818103600083015261400981613ac8565b9050919050565b6000602082019050818103600083015261402981613aeb565b9050919050565b6000602082019050818103600083015261404981613b0e565b9050919050565b6000602082019050818103600083015261406981613b31565b9050919050565b6000602082019050818103600083015261408981613b54565b9050919050565b600060208201905081810360008301526140a981613b77565b9050919050565b600060208201905081810360008301526140c981613b9a565b9050919050565b600060208201905081810360008301526140e981613bbd565b9050919050565b6000602082019050818103600083015261410981613be0565b9050919050565b6000602082019050818103600083015261412981613c03565b9050919050565b6000602082019050818103600083015261414981613c26565b9050919050565b6000602082019050818103600083015261416981613c49565b9050919050565b6000602082019050818103600083015261418981613c6c565b9050919050565b600060208201905081810360008301526141a981613c8f565b9050919050565b600060208201905081810360008301526141c981613cb2565b9050919050565b600060208201905081810360008301526141e981613cd5565b9050919050565b6000602082019050818103600083015261420981613cf8565b9050919050565b6000602082019050818103600083015261422981613d1b565b9050919050565b6000602082019050818103600083015261424981613d3e565b9050919050565b6000602082019050818103600083015261426981613d61565b9050919050565b60006020820190506142856000830184613d93565b92915050565b60006040820190506142a06000830185613d93565b6142ad6020830184613d93565b9392505050565b60006142be6142cf565b90506142ca8282614625565b919050565b6000604051905090565b600067ffffffffffffffff8211156142f4576142f361475d565b5b602082029050602081019050919050565b600067ffffffffffffffff8211156143205761431f61475d565b5b602082029050602081019050919050565b600067ffffffffffffffff82111561434c5761434b61475d565b5b614355826147ae565b9050602081019050919050565b600067ffffffffffffffff82111561437d5761437c61475d565b5b614386826147ae565b9050602081019050919050565b6000819050602082019050919050565b600081519050919050565b600081519050919050565b600081519050919050565b6000602082019050919050565b600082825260208201905092915050565b600082825260208201905092915050565b600082825260208201905092915050565b600061440f82614583565b915061441a83614583565b9250827fffffffffffffffffffffffffffffffffffffffffffffffffffffffffffffffff0382111561444f5761444e6146d0565b5b828201905092915050565b600061446582614583565b915061447083614583565b9250826144805761447f6146ff565b5b828204905092915050565b600061449682614583565b91506144a183614583565b9250817fffffffffffffffffffffffffffffffffffffffffffffffffffffffffffffffff04831182151516156144da576144d96146d0565b5b828202905092915050565b60006144f082614583565b91506144fb83614583565b92508282101561450e5761450d6146d0565b5b828203905092915050565b600061452482614563565b9050919050565b60008115159050919050565b60007fffffffff0000000000000000000000000000000000000000000000000000000082169050919050565b600073ffffffffffffffffffffffffffffffffffffffff82169050919050565b6000819050919050565b60006145988261459f565b9050919050565b60006145aa82614563565b9050919050565b82818337600083830152505050565b60005b838110156145de5780820151818401526020810190506145c3565b838111156145ed576000848401525b50505050565b6000600282049050600182168061460b57607f821691505b6020821081141561461f5761461e61472e565b5b50919050565b61462e826147ae565b810181811067ffffffffffffffff8211171561464d5761464c61475d565b5b80604052505050565b600061466182614583565b91507fffffffffffffffffffffffffffffffffffffffffffffffffffffffffffffffff821415614694576146936146d0565b5b600182019050919050565b60006146aa82614583565b91506146b583614583565b9250826146c5576146c46146ff565b5b828206905092915050565b7f4e487b7100000000000000000000000000000000000000000000000000000000600052601160045260246000fd5b7f4e487b7100000000000000000000000000000000000000000000000000000000600052601260045260246000fd5b7f4e487b7100000000000000000000000000000000000000000000000000000000600052602260045260246000fd5b7f4e487b7100000000000000000000000000000000000000000000000000000000600052604160045260246000fd5b600060033d11156147ab5760046000803e6147a86000516147bf565b90505b90565b6000601f19601f8301169050919050565b60008160e01c9050919050565b7f455243313135353a207472616e7366657220746f206e6f6e204552433131353560008201527f526563656976657220696d706c656d656e746572000000000000000000000000602082015250565b7f455243313135353a204552433131353552656365697665722072656a6563746560008201527f6420746f6b656e73000000000000000000000000000000000000000000000000602082015250565b7f455243313135353a2062616c616e636520717565727920666f7220746865207a60008201527f65726f2061646472657373000000000000000000000000000000000000000000602082015250565b7f4f776e61626c653a206e6577206f776e657220697320746865207a65726f206160008201527f6464726573730000000000000000000000000000000000000000000000000000602082015250565b7f455243313135353a2063616c6c6572206973206e6f74206f776e6572206e6f7260008201527f20617070726f7665640000000000000000000000000000000000000000000000602082015250565b7f496e73756666696369656e742062616c616e6365000000000000000000000000600082015250565b7f455243313135353a207472616e7366657220746f20746865207a65726f20616460008201527f6472657373000000000000000000000000000000000000000000000000000000602082015250565b7f4e6f6e6578697374656e7420746f6b656e000000000000000000000000000000600082015250565b7f455243313135353a207472616e736665722063616c6c6572206973206e6f742060008201527f6f776e6572206e6f7220617070726f7665640000000000000000000000000000602082015250565b7f436865636b2074686520746f6b656e20616c6c6f77616e636500000000000000600082015250565b7f4661696c656420746f207472616e736665720000000000000000000000000000600082015250565b7f455243313135353a20696e73756666696369656e742062616c616e636520666f60008201527f72207472616e7366657200000000000000000000000000000000000000000000602082015250565b7f4f776e61626c653a2063616c6c6572206973206e6f7420746865206f776e6572600082015250565b7f457863656564206d6178206d696e7420706572206d696e746572000000000000600082015250565b7f5472656173757279207374616765206973206e6f742061637469766174656400600082015250565b7f546f6b656e2070726963652063616e6e6f74206265207a65726f000000000000600082015250565b7f455243313135353a2073657474696e6720617070726f76616c2073746174757360008201527f20666f722073656c660000000000000000000000000000000000000000000000602082015250565b7f455243313135353a206163636f756e747320616e6420696473206c656e67746860008201527f206d69736d617463680000000000000000000000000000000000000000000000602082015250565b7f547265617375727920616c7265616479206d696e746564000000000000000000600082015250565b7f455243313135353a2069647320616e6420616d6f756e7473206c656e6774682060008201527f6d69736d61746368000000000000000000000000000000000000000000000000602082015250565b7f455243313135353a206d696e7420746f20746865207a65726f2061646472657360008201527f7300000000000000000000000000000000000000000000000000000000000000602082015250565b7f53616c65207374616765206973206e6f74206163746976617465640000000000600082015250565b7f4578636565642073616c6573206d617820737570706c79000000000000000000600082015250565b600060443d1015614d5357614dd6565b614d5b6142cf565b60043d036004823e80513d602482011167ffffffffffffffff82111715614d83575050614dd6565b808201805167ffffffffffffffff811115614da15750505050614dd6565b80602083010160043d038501811115614dbe575050505050614dd6565b614dcd82602001850186614625565b82955050505050505b90565b614de281614519565b8114614ded57600080fd5b50565b614df98161452b565b8114614e0457600080fd5b50565b614e1081614537565b8114614e1b57600080fd5b50565b614e2781614583565b8114614e3257600080fd5b5056fea2646970667358221220063ffaafb8b393d208661f0c38104f0343a0833281eae88210c356ed3ee3325d64736f6c63430008040033",
  "linkReferences": {},
  "deployedLinkReferences": {}
}