{
  "_format": "hh-sol-artifact-1",
  "contractName": "LBSFragment",
  "sourceName": "contracts/LBSFragment.sol",
  "abi": [
    {
      "inputs": [
        {
          "internalType": "string",
          "name": "_name",
          "type": "string"
        },
        {
          "internalType": "string",
          "name": "_symbol",
          "type": "string"
        },
        {
          "internalType": "string",
          "name": "_baseUri",
          "type": "string"
        },
        {
          "internalType": "address",
          "name": "_proxyRegistryAddress",
          "type": "address"
        },
        {
          "internalType": "address",
          "name": "_usdcAddress",
          "type": "address"
        }
      ],
      "stateMutability": "nonpayable",
      "type": "constructor"
    },
    {
      "anonymous": false,
      "inputs": [
        {
          "indexed": true,
          "internalType": "address",
          "name": "account",
          "type": "address"
        },
        {
          "indexed": true,
          "internalType": "address",
          "name": "operator",
          "type": "address"
        },
        {
          "indexed": false,
          "internalType": "bool",
          "name": "approved",
          "type": "bool"
        }
      ],
      "name": "ApprovalForAll",
      "type": "event"
    },
    {
      "anonymous": false,
      "inputs": [
        {
          "indexed": true,
          "internalType": "address",
          "name": "previousOwner",
          "type": "address"
        },
        {
          "indexed": true,
          "internalType": "address",
          "name": "newOwner",
          "type": "address"
        }
      ],
      "name": "OwnershipTransferred",
      "type": "event"
    },
    {
      "anonymous": false,
      "inputs": [
        {
          "indexed": true,
          "internalType": "address",
          "name": "operator",
          "type": "address"
        },
        {
          "indexed": true,
          "internalType": "address",
          "name": "from",
          "type": "address"
        },
        {
          "indexed": true,
          "internalType": "address",
          "name": "to",
          "type": "address"
        },
        {
          "indexed": false,
          "internalType": "uint256[]",
          "name": "ids",
          "type": "uint256[]"
        },
        {
          "indexed": false,
          "internalType": "uint256[]",
          "name": "values",
          "type": "uint256[]"
        }
      ],
      "name": "TransferBatch",
      "type": "event"
    },
    {
      "anonymous": false,
      "inputs": [
        {
          "indexed": true,
          "internalType": "address",
          "name": "operator",
          "type": "address"
        },
        {
          "indexed": true,
          "internalType": "address",
          "name": "from",
          "type": "address"
        },
        {
          "indexed": true,
          "internalType": "address",
          "name": "to",
          "type": "address"
        },
        {
          "indexed": false,
          "internalType": "uint256",
          "name": "id",
          "type": "uint256"
        },
        {
          "indexed": false,
          "internalType": "uint256",
          "name": "value",
          "type": "uint256"
        }
      ],
      "name": "TransferSingle",
      "type": "event"
    },
    {
      "anonymous": false,
      "inputs": [
        {
          "indexed": false,
          "internalType": "string",
          "name": "value",
          "type": "string"
        },
        {
          "indexed": true,
          "internalType": "uint256",
          "name": "id",
          "type": "uint256"
        }
      ],
      "name": "URI",
      "type": "event"
    },
    {
      "inputs": [],
      "name": "MAX_QTY_PER_MINTER",
      "outputs": [
        {
          "internalType": "uint256",
          "name": "",
          "type": "uint256"
        }
      ],
      "stateMutability": "view",
      "type": "function"
    },
    {
      "inputs": [],
      "name": "STAGE_1_MAX_SUPPLY",
      "outputs": [
        {
          "internalType": "uint256",
          "name": "",
          "type": "uint256"
        }
      ],
      "stateMutability": "view",
      "type": "function"
    },
    {
      "inputs": [],
      "name": "STAGE_1_PRICE",
      "outputs": [
        {
          "internalType": "uint256",
          "name": "",
          "type": "uint256"
        }
      ],
      "stateMutability": "view",
      "type": "function"
    },
    {
      "inputs": [],
      "name": "STAGE_1_TOKEN_ID",
      "outputs": [
        {
          "internalType": "uint256",
          "name": "",
          "type": "uint256"
        }
      ],
      "stateMutability": "view",
      "type": "function"
    },
    {
      "inputs": [],
      "name": "STAGE_2_MAX_SUPPLY",
      "outputs": [
        {
          "internalType": "uint256",
          "name": "",
          "type": "uint256"
        }
      ],
      "stateMutability": "view",
      "type": "function"
    },
    {
      "inputs": [],
      "name": "STAGE_2_PRICE",
      "outputs": [
        {
          "internalType": "uint256",
          "name": "",
          "type": "uint256"
        }
      ],
      "stateMutability": "view",
      "type": "function"
    },
    {
      "inputs": [],
      "name": "STAGE_2_TOKEN_ID",
      "outputs": [
        {
          "internalType": "uint256",
          "name": "",
          "type": "uint256"
        }
      ],
      "stateMutability": "view",
      "type": "function"
    },
    {
      "inputs": [],
      "name": "STAGE_3_MAX_SUPPLY",
      "outputs": [
        {
          "internalType": "uint256",
          "name": "",
          "type": "uint256"
        }
      ],
      "stateMutability": "view",
      "type": "function"
    },
    {
      "inputs": [],
      "name": "STAGE_3_PRICE",
      "outputs": [
        {
          "internalType": "uint256",
          "name": "",
          "type": "uint256"
        }
      ],
      "stateMutability": "view",
      "type": "function"
    },
    {
      "inputs": [],
      "name": "STAGE_3_TOKEN_ID",
      "outputs": [
        {
          "internalType": "uint256",
          "name": "",
          "type": "uint256"
        }
      ],
      "stateMutability": "view",
      "type": "function"
    },
    {
      "inputs": [],
      "name": "STAGE_4_AFFILIATE_MAX_QTY",
      "outputs": [
        {
          "internalType": "uint256",
          "name": "",
          "type": "uint256"
        }
      ],
      "stateMutability": "view",
      "type": "function"
    },
    {
      "inputs": [],
      "name": "STAGE_4_BM_MAX_QTY",
      "outputs": [
        {
          "internalType": "uint256",
          "name": "",
          "type": "uint256"
        }
      ],
      "stateMutability": "view",
      "type": "function"
    },
    {
      "inputs": [],
      "name": "STAGE_4_GIFT_MAX_QTY",
      "outputs": [
        {
          "internalType": "uint256",
          "name": "",
          "type": "uint256"
        }
      ],
      "stateMutability": "view",
      "type": "function"
    },
    {
      "inputs": [],
      "name": "STAGE_4_MAX_SUPPLY",
      "outputs": [
        {
          "internalType": "uint256",
          "name": "",
          "type": "uint256"
        }
      ],
      "stateMutability": "view",
      "type": "function"
    },
    {
      "inputs": [],
      "name": "STAGE_4_PRICE",
      "outputs": [
        {
          "internalType": "uint256",
          "name": "",
          "type": "uint256"
        }
      ],
      "stateMutability": "view",
      "type": "function"
    },
    {
      "inputs": [],
      "name": "STAGE_4_RESERVED_MAX_QTY",
      "outputs": [
        {
          "internalType": "uint256",
          "name": "",
          "type": "uint256"
        }
      ],
      "stateMutability": "view",
      "type": "function"
    },
    {
      "inputs": [],
      "name": "STAGE_4_SALES_MAX_QTY",
      "outputs": [
        {
          "internalType": "uint256",
          "name": "",
          "type": "uint256"
        }
      ],
      "stateMutability": "view",
      "type": "function"
    },
    {
      "inputs": [],
      "name": "STAGE_4_TEAM_MAX_QTY",
      "outputs": [
        {
          "internalType": "uint256",
          "name": "",
          "type": "uint256"
        }
      ],
      "stateMutability": "view",
      "type": "function"
    },
    {
      "inputs": [],
      "name": "STAGE_4_TOKEN_ID",
      "outputs": [
        {
          "internalType": "uint256",
          "name": "",
          "type": "uint256"
        }
      ],
      "stateMutability": "view",
      "type": "function"
    },
    {
      "inputs": [],
      "name": "TOTAL_TOKEN_QTY",
      "outputs": [
        {
          "internalType": "uint256",
          "name": "",
          "type": "uint256"
        }
      ],
      "stateMutability": "view",
      "type": "function"
    },
    {
      "inputs": [],
      "name": "activeStage",
      "outputs": [
        {
          "internalType": "uint256",
          "name": "",
          "type": "uint256"
        }
      ],
      "stateMutability": "view",
      "type": "function"
    },
    {
      "inputs": [
        {
          "internalType": "address",
          "name": "account",
          "type": "address"
        },
        {
          "internalType": "uint256",
          "name": "id",
          "type": "uint256"
        }
      ],
      "name": "balanceOf",
      "outputs": [
        {
          "internalType": "uint256",
          "name": "",
          "type": "uint256"
        }
      ],
      "stateMutability": "view",
      "type": "function"
    },
    {
      "inputs": [
        {
          "internalType": "address[]",
          "name": "accounts",
          "type": "address[]"
        },
        {
          "internalType": "uint256[]",
          "name": "ids",
          "type": "uint256[]"
        }
      ],
      "name": "balanceOfBatch",
      "outputs": [
        {
          "internalType": "uint256[]",
          "name": "",
          "type": "uint256[]"
        }
      ],
      "stateMutability": "view",
      "type": "function"
    },
    {
      "inputs": [],
      "name": "baseUri",
      "outputs": [
        {
          "internalType": "string",
          "name": "",
          "type": "string"
        }
      ],
      "stateMutability": "view",
      "type": "function"
    },
    {
      "inputs": [
        {
          "internalType": "uint256",
          "name": "_tokenId",
          "type": "uint256"
        }
      ],
      "name": "getPrice",
      "outputs": [
        {
          "internalType": "uint256",
          "name": "",
          "type": "uint256"
        }
      ],
      "stateMutability": "pure",
      "type": "function"
    },
    {
      "inputs": [
        {
          "internalType": "address",
          "name": "_owner",
          "type": "address"
        },
        {
          "internalType": "address",
          "name": "_operator",
          "type": "address"
        }
      ],
      "name": "isApprovedForAll",
      "outputs": [
        {
          "internalType": "bool",
          "name": "",
          "type": "bool"
        }
      ],
      "stateMutability": "view",
      "type": "function"
    },
    {
      "inputs": [
        {
          "internalType": "uint256",
          "name": "_tokenId",
          "type": "uint256"
        }
      ],
      "name": "maxSupply",
      "outputs": [
        {
          "internalType": "uint256",
          "name": "",
          "type": "uint256"
        }
      ],
      "stateMutability": "pure",
      "type": "function"
    },
    {
      "inputs": [
        {
          "internalType": "uint256",
          "name": "_tokenId",
          "type": "uint256"
        },
        {
          "internalType": "uint256",
          "name": "_quantity",
          "type": "uint256"
        },
        {
          "internalType": "bytes",
          "name": "_data",
          "type": "bytes"
        }
      ],
      "name": "mint",
      "outputs": [],
      "stateMutability": "nonpayable",
      "type": "function"
    },
    {
      "inputs": [
        {
          "internalType": "address",
          "name": "",
          "type": "address"
        }
      ],
      "name": "minterToTokenQty",
      "outputs": [
        {
          "internalType": "uint256",
          "name": "",
          "type": "uint256"
        }
      ],
      "stateMutability": "view",
      "type": "function"
    },
    {
      "inputs": [],
      "name": "name",
      "outputs": [
        {
          "internalType": "string",
          "name": "",
          "type": "string"
        }
      ],
      "stateMutability": "view",
      "type": "function"
    },
    {
      "inputs": [],
      "name": "owner",
      "outputs": [
        {
          "internalType": "address",
          "name": "",
          "type": "address"
        }
      ],
      "stateMutability": "view",
      "type": "function"
    },
    {
      "inputs": [],
      "name": "renounceOwnership",
      "outputs": [],
      "stateMutability": "nonpayable",
      "type": "function"
    },
    {
      "inputs": [
        {
          "internalType": "address",
          "name": "from",
          "type": "address"
        },
        {
          "internalType": "address",
          "name": "to",
          "type": "address"
        },
        {
          "internalType": "uint256[]",
          "name": "ids",
          "type": "uint256[]"
        },
        {
          "internalType": "uint256[]",
          "name": "amounts",
          "type": "uint256[]"
        },
        {
          "internalType": "bytes",
          "name": "data",
          "type": "bytes"
        }
      ],
      "name": "safeBatchTransferFrom",
      "outputs": [],
      "stateMutability": "nonpayable",
      "type": "function"
    },
    {
      "inputs": [
        {
          "internalType": "address",
          "name": "from",
          "type": "address"
        },
        {
          "internalType": "address",
          "name": "to",
          "type": "address"
        },
        {
          "internalType": "uint256",
          "name": "id",
          "type": "uint256"
        },
        {
          "internalType": "uint256",
          "name": "amount",
          "type": "uint256"
        },
        {
          "internalType": "bytes",
          "name": "data",
          "type": "bytes"
        }
      ],
      "name": "safeTransferFrom",
      "outputs": [],
      "stateMutability": "nonpayable",
      "type": "function"
    },
    {
      "inputs": [
        {
          "internalType": "uint256",
          "name": "_tokenId",
          "type": "uint256"
        }
      ],
      "name": "setActiveStage",
      "outputs": [],
      "stateMutability": "nonpayable",
      "type": "function"
    },
    {
      "inputs": [
        {
          "internalType": "address",
          "name": "operator",
          "type": "address"
        },
        {
          "internalType": "bool",
          "name": "approved",
          "type": "bool"
        }
      ],
      "name": "setApprovalForAll",
      "outputs": [],
      "stateMutability": "nonpayable",
      "type": "function"
    },
    {
      "inputs": [
        {
          "internalType": "uint256",
          "name": "_tokenId",
          "type": "uint256"
        },
        {
          "internalType": "string",
          "name": "_uri",
          "type": "string"
        }
      ],
      "name": "setCustomURI",
      "outputs": [],
      "stateMutability": "nonpayable",
      "type": "function"
    },
    {
      "inputs": [
        {
          "internalType": "string",
          "name": "_uri",
          "type": "string"
        }
      ],
      "name": "setURI",
      "outputs": [],
      "stateMutability": "nonpayable",
      "type": "function"
    },
    {
      "inputs": [
        {
          "internalType": "bytes4",
          "name": "interfaceId",
          "type": "bytes4"
        }
      ],
      "name": "supportsInterface",
      "outputs": [
        {
          "internalType": "bool",
          "name": "",
          "type": "bool"
        }
      ],
      "stateMutability": "view",
      "type": "function"
    },
    {
      "inputs": [],
      "name": "symbol",
      "outputs": [
        {
          "internalType": "string",
          "name": "",
          "type": "string"
        }
      ],
      "stateMutability": "view",
      "type": "function"
    },
    {
      "inputs": [
        {
          "internalType": "uint256",
          "name": "",
          "type": "uint256"
        }
      ],
      "name": "tokenToCurtomUri",
      "outputs": [
        {
          "internalType": "string",
          "name": "",
          "type": "string"
        }
      ],
      "stateMutability": "view",
      "type": "function"
    },
    {
      "inputs": [
        {
          "internalType": "uint256",
          "name": "",
          "type": "uint256"
        }
      ],
      "name": "tokenToMintedQty",
      "outputs": [
        {
          "internalType": "uint256",
          "name": "",
          "type": "uint256"
        }
      ],
      "stateMutability": "view",
      "type": "function"
    },
    {
      "inputs": [
        {
          "internalType": "address",
          "name": "newOwner",
          "type": "address"
        }
      ],
      "name": "transferOwnership",
      "outputs": [],
      "stateMutability": "nonpayable",
      "type": "function"
    },
    {
      "inputs": [
        {
          "internalType": "uint256",
          "name": "_tokenId",
          "type": "uint256"
        }
      ],
      "name": "uri",
      "outputs": [
        {
          "internalType": "string",
          "name": "",
          "type": "string"
        }
      ],
      "stateMutability": "view",
      "type": "function"
    }
  ],
  "bytecode": "0x60806040523480156200001157600080fd5b5060405162005a5b38038062005a5b833981810160405281019062000037919062000898565b6040518060200160405280600081525062000058816200029a60201b60201c565b50620000796200006d620002b660201b60201c565b620002be60201b60201c565b8460049080519060200190620000919291906200075f565b508360059080519060200190620000aa9291906200075f565b50620000dd83604051602001620000c2919062000aa0565b6040516020818303038152906040526200038460201b60201c565b62000129600184620000fb60016200042760201b62001d841760201c565b6040516020016200010e92919062000ac6565b604051602081830303815290604052620005e960201b60201c565b620001756002846200014760026200042760201b62001d841760201c565b6040516020016200015a92919062000ac6565b604051602081830303815290604052620005e960201b60201c565b620001c16003846200019360036200042760201b62001d841760201c565b604051602001620001a692919062000ac6565b604051602081830303815290604052620005e960201b60201c565b6200020d600484620001df60046200042760201b62001d841760201c565b604051602001620001f292919062000ac6565b604051602081830303815290604052620005e960201b60201c565b81600760006101000a81548173ffffffffffffffffffffffffffffffffffffffff021916908373ffffffffffffffffffffffffffffffffffffffff16021790555080600860006101000a81548173ffffffffffffffffffffffffffffffffffffffff021916908373ffffffffffffffffffffffffffffffffffffffff160217905550505050505062000fe0565b8060029080519060200190620002b29291906200075f565b5050565b600033905090565b6000600360009054906101000a900473ffffffffffffffffffffffffffffffffffffffff16905081600360006101000a81548173ffffffffffffffffffffffffffffffffffffffff021916908373ffffffffffffffffffffffffffffffffffffffff1602179055508173ffffffffffffffffffffffffffffffffffffffff168173ffffffffffffffffffffffffffffffffffffffff167f8be0079c531659141344cd1fd0a4f28419497f9722a3daafe3b4186f6b6457e060405160405180910390a35050565b62000394620002b660201b60201c565b73ffffffffffffffffffffffffffffffffffffffff16620003ba6200073560201b60201c565b73ffffffffffffffffffffffffffffffffffffffff161462000413576040517f08c379a00000000000000000000000000000000000000000000000000000000081526004016200040a9062000b4e565b60405180910390fd5b62000424816200029a60201b60201c565b50565b6060600082141562000471576040518060400160405280600181526020017f30000000000000000000000000000000000000000000000000000000000000008152509050620005e4565b600082905060005b60008214620004a95780806200048f9062000da6565b915050600a82620004a1919062000c53565b915062000479565b60008167ffffffffffffffff811115620004ec577f4e487b7100000000000000000000000000000000000000000000000000000000600052604160045260246000fd5b6040519080825280601f01601f1916602001820160405280156200051f5781602001600182028036833780820191505090505b5090505b60008514620005dd576001826200053b919062000c8b565b9150600a856200054c919062000df4565b60306200055a919062000bf6565b60f81b81838151811062000597577f4e487b7100000000000000000000000000000000000000000000000000000000600052603260045260246000fd5b60200101907effffffffffffffffffffffffffffffffffffffffffffffffffffffffffffff1916908160001a905350600a85620005d5919062000c53565b945062000523565b8093505050505b919050565b620005f9620002b660201b60201c565b73ffffffffffffffffffffffffffffffffffffffff166200061f6200073560201b60201c565b73ffffffffffffffffffffffffffffffffffffffff161462000678576040517f08c379a00000000000000000000000000000000000000000000000000000000081526004016200066f9062000b4e565b60405180910390fd5b600082101580156200068b575060048211155b620006cd576040517f08c379a0000000000000000000000000000000000000000000000000000000008152600401620006c49062000b2c565b60405180910390fd5b80600c60008481526020019081526020016000209080519060200190620006f69291906200075f565b50817f6bb7ff708619ba0610cba295a58592e0451dee2622938c8755667688daf3529b8260405162000729919062000b08565b60405180910390a25050565b6000600360009054906101000a900473ffffffffffffffffffffffffffffffffffffffff16905090565b8280546200076d9062000d3a565b90600052602060002090601f016020900481019282620007915760008555620007dd565b82601f10620007ac57805160ff1916838001178555620007dd565b82800160010185558215620007dd579182015b82811115620007dc578251825591602001919060010190620007bf565b5b509050620007ec9190620007f0565b5090565b5b808211156200080b576000816000905550600101620007f1565b5090565b600062000826620008208462000b99565b62000b70565b9050828152602081018484840111156200083f57600080fd5b6200084c84828562000d04565b509392505050565b600081519050620008658162000fc6565b92915050565b600082601f8301126200087d57600080fd5b81516200088f8482602086016200080f565b91505092915050565b600080600080600060a08688031215620008b157600080fd5b600086015167ffffffffffffffff811115620008cc57600080fd5b620008da888289016200086b565b955050602086015167ffffffffffffffff811115620008f857600080fd5b62000906888289016200086b565b945050604086015167ffffffffffffffff8111156200092457600080fd5b62000932888289016200086b565b9350506060620009458882890162000854565b9250506080620009588882890162000854565b9150509295509295909350565b6000620009728262000bcf565b6200097e818562000bda565b93506200099081856020860162000d04565b6200099b8162000ee8565b840191505092915050565b6000620009b38262000bcf565b620009bf818562000beb565b9350620009d181856020860162000d04565b80840191505092915050565b6000620009ec601f8362000bda565b9150620009f98262000ef9565b602082019050919050565b600062000a13600a8362000beb565b915062000a208262000f22565b600a82019050919050565b600062000a3a60058362000beb565b915062000a478262000f4b565b600582019050919050565b600062000a6160208362000bda565b915062000a6e8262000f74565b602082019050919050565b600062000a8860018362000beb565b915062000a958262000f9d565b600182019050919050565b600062000aae8284620009a6565b915062000abb8262000a04565b915081905092915050565b600062000ad48285620009a6565b915062000ae18262000a79565b915062000aef8284620009a6565b915062000afc8262000a2b565b91508190509392505050565b6000602082019050818103600083015262000b24818462000965565b905092915050565b6000602082019050818103600083015262000b4781620009dd565b9050919050565b6000602082019050818103600083015262000b698162000a52565b9050919050565b600062000b7c62000b8f565b905062000b8a828262000d70565b919050565b6000604051905090565b600067ffffffffffffffff82111562000bb75762000bb662000eb9565b5b62000bc28262000ee8565b9050602081019050919050565b600081519050919050565b600082825260208201905092915050565b600081905092915050565b600062000c038262000cfa565b915062000c108362000cfa565b9250827fffffffffffffffffffffffffffffffffffffffffffffffffffffffffffffffff0382111562000c485762000c4762000e2c565b5b828201905092915050565b600062000c608262000cfa565b915062000c6d8362000cfa565b92508262000c805762000c7f62000e5b565b5b828204905092915050565b600062000c988262000cfa565b915062000ca58362000cfa565b92508282101562000cbb5762000cba62000e2c565b5b828203905092915050565b600062000cd38262000cda565b9050919050565b600073ffffffffffffffffffffffffffffffffffffffff82169050919050565b6000819050919050565b60005b8381101562000d2457808201518184015260208101905062000d07565b8381111562000d34576000848401525b50505050565b6000600282049050600182168062000d5357607f821691505b6020821081141562000d6a5762000d6962000e8a565b5b50919050565b62000d7b8262000ee8565b810181811067ffffffffffffffff8211171562000d9d5762000d9c62000eb9565b5b80604052505050565b600062000db38262000cfa565b91507fffffffffffffffffffffffffffffffffffffffffffffffffffffffffffffffff82141562000de95762000de862000e2c565b5b600182019050919050565b600062000e018262000cfa565b915062000e0e8362000cfa565b92508262000e215762000e2062000e5b565b5b828206905092915050565b7f4e487b7100000000000000000000000000000000000000000000000000000000600052601160045260246000fd5b7f4e487b7100000000000000000000000000000000000000000000000000000000600052601260045260246000fd5b7f4e487b7100000000000000000000000000000000000000000000000000000000600052602260045260246000fd5b7f4e487b7100000000000000000000000000000000000000000000000000000000600052604160045260246000fd5b6000601f19601f8301169050919050565b7f55524920717565727920666f72206e6f6e6578697374656e7420746f6b656e00600082015250565b7f2f7b69647d2e6a736f6e00000000000000000000000000000000000000000000600082015250565b7f2e6a736f6e000000000000000000000000000000000000000000000000000000600082015250565b7f4f776e61626c653a2063616c6c6572206973206e6f7420746865206f776e6572600082015250565b7f2f00000000000000000000000000000000000000000000000000000000000000600082015250565b62000fd18162000cc6565b811462000fdd57600080fd5b50565b614a6b8062000ff06000396000f3fe608060405234801561001057600080fd5b50600436106102735760003560e01c8063715018a6116101515780639abc8320116100c3578063e757223011610087578063e75722301461075c578063e985e9c51461078c578063eb642c8e146107bc578063f242432a146107da578063f2fde38b146107f6578063ff9c84a61461081257610273565b80639abc8320146106c8578063a22cb465146106e6578063ac501c4114610702578063c5cdff8c14610720578063dc70fd721461073e57610273565b8063896086de11610115578063896086de146106165780638cd6976e146106325780638da5cb5b1461065057806391267fdb1461066e57806395d89b411461068c5780639949fb84146106aa57610273565b8063715018a61461057057806371dc59c71461057a578063869f75941461059857806388aadd41146105c857806388da457e146105f857610273565b806328cf0ba1116101ea578063410db236116101ae578063410db2361461049857806341d1c84d146104b6578063458db8b7146104d45780634864d8d9146105045780634e1273f41461052257806351debc441461055257610273565b806328cf0ba1146104065780632b66d7cf146104245780632eb2c2d6146104425780633adf80b41461045e5780633d985b3c1461047a57610273565b80630e89341c1161023c5780630e89341c1461032e5780630f55be0c1461035e5780630f7d26151461037c578063153beb9b146103ac57806319c9b736146103ca57806320b6d81b146103e857610273565b8062fdd58e1461027857806301ffc9a7146102a857806302fe5305146102d857806306fdde03146102f457806308dc9f4214610312575b600080fd5b610292600480360381019061028d9190613485565b610830565b60405161029f9190613f0f565b60405180910390f35b6102c260048036038101906102bd9190613556565b6108f9565b6040516102cf9190613c72565b60405180910390f35b6102f260048036038101906102ed91906135d1565b6109db565b005b6102fc610a63565b6040516103099190613c8d565b60405180910390f35b61032c600480360381019061032791906136b8565b610af1565b005b61034860048036038101906103439190613612565b611004565b6040516103559190613c8d565b60405180910390f35b6103666111b7565b6040516103739190613f0f565b60405180910390f35b61039660048036038101906103919190613612565b6111bc565b6040516103a39190613c8d565b60405180910390f35b6103b461125c565b6040516103c19190613f0f565b60405180910390f35b6103d2611261565b6040516103df9190613f0f565b60405180910390f35b6103f0611266565b6040516103fd9190613f0f565b60405180910390f35b61040e61128f565b60405161041b9190613f0f565b60405180910390f35b61042c611294565b6040516104399190613f0f565b60405180910390f35b61045c600480360381019061045791906132fb565b611299565b005b61047860048036038101906104739190613664565b61133a565b005b61048261146b565b60405161048f9190613f0f565b60405180910390f35b6104a0611470565b6040516104ad9190613f0f565b60405180910390f35b6104be611477565b6040516104cb9190613f0f565b60405180910390f35b6104ee60048036038101906104e99190613612565b61147e565b6040516104fb9190613f0f565b60405180910390f35b61050c611496565b6040516105199190613f0f565b60405180910390f35b61053c600480360381019061053791906134c1565b61149c565b6040516105499190613c19565b60405180910390f35b61055a61164d565b6040516105679190613f0f565b60405180910390f35b610578611652565b005b6105826116da565b60405161058f9190613f0f565b60405180910390f35b6105b260048036038101906105ad9190613612565b6116df565b6040516105bf9190613f0f565b60405180910390f35b6105e260048036038101906105dd9190613296565b6117a2565b6040516105ef9190613f0f565b60405180910390f35b6106006117ba565b60405161060d9190613f0f565b60405180910390f35b610630600480360381019061062b9190613612565b6117ef565b005b61063a6118c6565b6040516106479190613f0f565b60405180910390f35b6106586118cb565b6040516106659190613adc565b60405180910390f35b6106766118f5565b6040516106839190613f0f565b60405180910390f35b6106946118fc565b6040516106a19190613c8d565b60405180910390f35b6106b261198a565b6040516106bf9190613f0f565b60405180910390f35b6106d061198f565b6040516106dd9190613c8d565b60405180910390f35b61070060048036038101906106fb9190613449565b611a1d565b005b61070a611a33565b6040516107179190613f0f565b60405180910390f35b610728611a38565b6040516107359190613f0f565b60405180910390f35b610746611a3d565b6040516107539190613f0f565b60405180910390f35b61077660048036038101906107719190613612565b611a44565b6040516107839190613f0f565b60405180910390f35b6107a660048036038101906107a191906132bf565b611adf565b6040516107b39190613c72565b60405180910390f35b6107c4611be1565b6040516107d19190613f0f565b60405180910390f35b6107f460048036038101906107ef91906133ba565b611be6565b005b610810600480360381019061080b9190613296565b611c87565b005b61081a611d7f565b6040516108279190613f0f565b60405180910390f35b60008073ffffffffffffffffffffffffffffffffffffffff168373ffffffffffffffffffffffffffffffffffffffff1614156108a1576040517f08c379a000000000000000000000000000000000000000000000000000000000815260040161089890613d0f565b60405180910390fd5b60008083815260200190815260200160002060008473ffffffffffffffffffffffffffffffffffffffff1673ffffffffffffffffffffffffffffffffffffffff16815260200190815260200160002054905092915050565b60007fd9b67a26000000000000000000000000000000000000000000000000000000007bffffffffffffffffffffffffffffffffffffffffffffffffffffffff1916827bffffffffffffffffffffffffffffffffffffffffffffffffffffffff191614806109c457507f0e89341c000000000000000000000000000000000000000000000000000000007bffffffffffffffffffffffffffffffffffffffffffffffffffffffff1916827bffffffffffffffffffffffffffffffffffffffffffffffffffffffff1916145b806109d457506109d382611f31565b5b9050919050565b6109e3611f9b565b73ffffffffffffffffffffffffffffffffffffffff16610a016118cb565b73ffffffffffffffffffffffffffffffffffffffff1614610a57576040517f08c379a0000000000000000000000000000000000000000000000000000000008152600401610a4e90613e0f565b60405180910390fd5b610a6081611fa3565b50565b60048054610a7090614280565b80601f0160208091040260200160405190810160405280929190818152602001828054610a9c90614280565b8015610ae95780601f10610abe57610100808354040283529160200191610ae9565b820191906000526020600020905b815481529060010190602001808311610acc57829003601f168201915b505050505081565b60018310158015610b03575060048311155b610b42576040517f08c379a0000000000000000000000000000000000000000000000000000000008152600401610b3990613cef565b60405180910390fd5b8260095414610b86576040517f08c379a0000000000000000000000000000000000000000000000000000000008152600401610b7d90613eef565b60405180910390fd5b610b8f836116df565b82600a600086815260200190815260200160002054610bae91906140a3565b1115610bef576040517f08c379a0000000000000000000000000000000000000000000000000000000008152600401610be690613def565b60405180910390fd5b610bf76118cb565b73ffffffffffffffffffffffffffffffffffffffff163373ffffffffffffffffffffffffffffffffffffffff1614610f7357600582600b60003373ffffffffffffffffffffffffffffffffffffffff1673ffffffffffffffffffffffffffffffffffffffff16815260200190815260200160002054610c7691906140a3565b1115610cb7576040517f08c379a0000000000000000000000000000000000000000000000000000000008152600401610cae90613e2f565b60405180910390fd5b6000610cc284611a44565b83610ccd919061412a565b905080600860009054906101000a900473ffffffffffffffffffffffffffffffffffffffff1673ffffffffffffffffffffffffffffffffffffffff166370a08231336040518263ffffffff1660e01b8152600401610d2b9190613adc565b60206040518083038186803b158015610d4357600080fd5b505afa158015610d57573d6000803e3d6000fd5b505050506040513d601f19601f82011682018060405250810190610d7b919061363b565b1015610dbc576040517f08c379a0000000000000000000000000000000000000000000000000000000008152600401610db390613e4f565b60405180910390fd5b6000600860009054906101000a900473ffffffffffffffffffffffffffffffffffffffff1673ffffffffffffffffffffffffffffffffffffffff1663dd62ed3e33610e056118cb565b6040518363ffffffff1660e01b8152600401610e22929190613af7565b60206040518083038186803b158015610e3a57600080fd5b505afa158015610e4e573d6000803e3d6000fd5b505050506040513d601f19601f82011682018060405250810190610e72919061363b565b905081811015610eb7576040517f08c379a0000000000000000000000000000000000000000000000000000000008152600401610eae90613daf565b60405180910390fd5b600860009054906101000a900473ffffffffffffffffffffffffffffffffffffffff1673ffffffffffffffffffffffffffffffffffffffff166323b872dd33610efe6118cb565b856040518463ffffffff1660e01b8152600401610f1d93929190613b88565b602060405180830381600087803b158015610f3757600080fd5b505af1158015610f4b573d6000803e3d6000fd5b505050506040513d601f19601f82011682018060405250810190610f6f919061352d565b5050505b610f7f33848484611fbd565b81600a60008581526020019081526020016000206000828254610fa291906140a3565b9250508190555081600b60003373ffffffffffffffffffffffffffffffffffffffff1673ffffffffffffffffffffffffffffffffffffffff1681526020019081526020016000206000828254610ff891906140a3565b92505081905550505050565b606060018210158015611018575060048211155b611057576040517f08c379a000000000000000000000000000000000000000000000000000000000815260040161104e90613cef565b60405180910390fd5b6000600c6000848152602001908152602001600020805461107790614280565b80601f01602080910402602001604051908101604052809291908181526020018280546110a390614280565b80156110f05780601f106110c5576101008083540402835291602001916110f0565b820191906000526020600020905b8154815290600101906020018083116110d357829003601f168201915b505050505090506000815111156111a557600c6000848152602001908152602001600020805461111f90614280565b80601f016020809104026020016040519081016040528092919081815260200182805461114b90614280565b80156111985780601f1061116d57610100808354040283529160200191611198565b820191906000526020600020905b81548152906001019060200180831161117b57829003601f168201915b50505050509150506111b2565b6111ae83612153565b9150505b919050565b600381565b600c60205280600052604060002060009150905080546111db90614280565b80601f016020809104026020016040519081016040528092919081815260200182805461120790614280565b80156112545780601f1061122957610100808354040283529160200191611254565b820191906000526020600020905b81548152906001019060200180831161123757829003601f168201915b505050505081565b60a081565b600481565b604160ef6056603261127891906140a3565b61128291906140a3565b61128c91906140a3565b81565b60ef81565b600281565b6112a1611f9b565b73ffffffffffffffffffffffffffffffffffffffff168573ffffffffffffffffffffffffffffffffffffffff1614806112e757506112e6856112e1611f9b565b611adf565b5b611326576040517f08c379a000000000000000000000000000000000000000000000000000000000815260040161131d90613d8f565b60405180910390fd5b61133385858585856121e7565b5050505050565b611342611f9b565b73ffffffffffffffffffffffffffffffffffffffff166113606118cb565b73ffffffffffffffffffffffffffffffffffffffff16146113b6576040517f08c379a00000000000000000000000000000000000000000000000000000000081526004016113ad90613e0f565b60405180910390fd5b600082101580156113c8575060048211155b611407576040517f08c379a00000000000000000000000000000000000000000000000000000000081526004016113fe90613cef565b60405180910390fd5b80600c6000848152602001908152602001600020908051906020019061142e929190612f4f565b50817f6bb7ff708619ba0610cba295a58592e0451dee2622938c8755667688daf3529b8260405161145f9190613c8d565b60405180910390a25050565b603281565b622dc6c081565b620f424081565b600a6020528060005260406000206000915090505481565b60095481565b606081518351146114e2576040517f08c379a00000000000000000000000000000000000000000000000000000000081526004016114d990613e8f565b60405180910390fd5b6000835167ffffffffffffffff811115611525577f4e487b7100000000000000000000000000000000000000000000000000000000600052604160045260246000fd5b6040519080825280602002602001820160405280156115535781602001602082028036833780820191505090505b50905060005b8451811015611642576115ec85828151811061159e577f4e487b7100000000000000000000000000000000000000000000000000000000600052603260045260246000fd5b60200260200101518583815181106115df577f4e487b7100000000000000000000000000000000000000000000000000000000600052603260045260246000fd5b6020026020010151610830565b828281518110611625577f4e487b7100000000000000000000000000000000000000000000000000000000600052603260045260246000fd5b6020026020010181815250508061163b906142e3565b9050611559565b508091505092915050565b600481565b61165a611f9b565b73ffffffffffffffffffffffffffffffffffffffff166116786118cb565b73ffffffffffffffffffffffffffffffffffffffff16146116ce576040517f08c379a00000000000000000000000000000000000000000000000000000000081526004016116c590613e0f565b60405180910390fd5b6116d86000612547565b565b604181565b6000600182101580156116f3575060048211155b611732576040517f08c379a000000000000000000000000000000000000000000000000000000000815260040161172990613cef565b60405180910390fd5b6001821415611744576050905061179d565b6002821415611756576087905061179d565b60038214156117685760be905061179d565b604160ef6056603261177a91906140a3565b61178491906140a3565b61178e91906140a3565b60a061179a91906140a3565b90505b919050565b600b6020528060005260406000206000915090505481565b604160ef605660326117cc91906140a3565b6117d691906140a3565b6117e091906140a3565b60a06117ec91906140a3565b81565b6117f7611f9b565b73ffffffffffffffffffffffffffffffffffffffff166118156118cb565b73ffffffffffffffffffffffffffffffffffffffff161461186b576040517f08c379a000000000000000000000000000000000000000000000000000000000815260040161186290613e0f565b60405180910390fd5b6000811015801561187d575060048111155b6118bc576040517f08c379a00000000000000000000000000000000000000000000000000000000081526004016118b390613cef565b60405180910390fd5b8060098190555050565b60be81565b6000600360009054906101000a900473ffffffffffffffffffffffffffffffffffffffff16905090565b621e848081565b6005805461190990614280565b80601f016020809104026020016040519081016040528092919081815260200182805461193590614280565b80156119825780601f1061195757610100808354040283529160200191611982565b820191906000526020600020905b81548152906001019060200180831161196557829003601f168201915b505050505081565b608781565b6006805461199c90614280565b80601f01602080910402602001604051908101604052809291908181526020018280546119c890614280565b8015611a155780601f106119ea57610100808354040283529160200191611a15565b820191906000526020600020905b8154815290600101906020018083116119f857829003601f168201915b505050505081565b611a2f611a28611f9b565b838361260d565b5050565b600581565b600181565b623d090081565b600060018210158015611a58575060048211155b611a97576040517f08c379a0000000000000000000000000000000000000000000000000000000008152600401611a8e90613cef565b60405180910390fd5b6001821415611aab57620f42409050611ada565b6002821415611abf57621e84809050611ada565b6003821415611ad357622dc6c09050611ada565b623d090090505b919050565b600080600760009054906101000a900473ffffffffffffffffffffffffffffffffffffffff1690508273ffffffffffffffffffffffffffffffffffffffff168173ffffffffffffffffffffffffffffffffffffffff1663c4552791866040518263ffffffff1660e01b8152600401611b579190613adc565b60206040518083038186803b158015611b6f57600080fd5b505afa158015611b83573d6000803e3d6000fd5b505050506040513d601f19601f82011682018060405250810190611ba791906135a8565b73ffffffffffffffffffffffffffffffffffffffff161415611bcd576001915050611bdb565b611bd7848461277a565b9150505b92915050565b605081565b611bee611f9b565b73ffffffffffffffffffffffffffffffffffffffff168573ffffffffffffffffffffffffffffffffffffffff161480611c345750611c3385611c2e611f9b565b611adf565b5b611c73576040517f08c379a0000000000000000000000000000000000000000000000000000000008152600401611c6a90613d4f565b60405180910390fd5b611c80858585858561280e565b5050505050565b611c8f611f9b565b73ffffffffffffffffffffffffffffffffffffffff16611cad6118cb565b73ffffffffffffffffffffffffffffffffffffffff1614611d03576040517f08c379a0000000000000000000000000000000000000000000000000000000008152600401611cfa90613e0f565b60405180910390fd5b600073ffffffffffffffffffffffffffffffffffffffff168173ffffffffffffffffffffffffffffffffffffffff161415611d73576040517f08c379a0000000000000000000000000000000000000000000000000000000008152600401611d6a90613d2f565b60405180910390fd5b611d7c81612547565b50565b605681565b60606000821415611dcc576040518060400160405280600181526020017f30000000000000000000000000000000000000000000000000000000000000008152509050611f2c565b600082905060005b60008214611dfe578080611de7906142e3565b915050600a82611df791906140f9565b9150611dd4565b60008167ffffffffffffffff811115611e40577f4e487b7100000000000000000000000000000000000000000000000000000000600052604160045260246000fd5b6040519080825280601f01601f191660200182016040528015611e725781602001600182028036833780820191505090505b5090505b60008514611f2557600182611e8b9190614184565b9150600a85611e9a919061432c565b6030611ea691906140a3565b60f81b818381518110611ee2577f4e487b7100000000000000000000000000000000000000000000000000000000600052603260045260246000fd5b60200101907effffffffffffffffffffffffffffffffffffffffffffffffffffffffffffff1916908160001a905350600a85611f1e91906140f9565b9450611e76565b8093505050505b919050565b60007f01ffc9a7000000000000000000000000000000000000000000000000000000007bffffffffffffffffffffffffffffffffffffffffffffffffffffffff1916827bffffffffffffffffffffffffffffffffffffffffffffffffffffffff1916149050919050565b600033905090565b8060029080519060200190611fb9929190612f4f565b5050565b600073ffffffffffffffffffffffffffffffffffffffff168473ffffffffffffffffffffffffffffffffffffffff16141561202d576040517f08c379a000000000000000000000000000000000000000000000000000000000815260040161202490613ecf565b60405180910390fd5b6000612037611f9b565b90506120588160008761204988612a90565b61205288612a90565b87612b56565b8260008086815260200190815260200160002060008773ffffffffffffffffffffffffffffffffffffffff1673ffffffffffffffffffffffffffffffffffffffff16815260200190815260200160002060008282546120b791906140a3565b925050819055508473ffffffffffffffffffffffffffffffffffffffff16600073ffffffffffffffffffffffffffffffffffffffff168273ffffffffffffffffffffffffffffffffffffffff167fc3d58168c5ae7397731d063d5bbf3d657854427343f4c083240f7aacaa2d0f628787604051612135929190613f2a565b60405180910390a461214c81600087878787612b5e565b5050505050565b60606002805461216290614280565b80601f016020809104026020016040519081016040528092919081815260200182805461218e90614280565b80156121db5780601f106121b0576101008083540402835291602001916121db565b820191906000526020600020905b8154815290600101906020018083116121be57829003601f168201915b50505050509050919050565b815183511461222b576040517f08c379a000000000000000000000000000000000000000000000000000000000815260040161222290613eaf565b60405180910390fd5b600073ffffffffffffffffffffffffffffffffffffffff168473ffffffffffffffffffffffffffffffffffffffff16141561229b576040517f08c379a000000000000000000000000000000000000000000000000000000000815260040161229290613d6f565b60405180910390fd5b60006122a5611f9b565b90506122b5818787878787612b56565b60005b84518110156124b25760008582815181106122fc577f4e487b7100000000000000000000000000000000000000000000000000000000600052603260045260246000fd5b602002602001015190506000858381518110612341577f4e487b7100000000000000000000000000000000000000000000000000000000600052603260045260246000fd5b60200260200101519050600080600084815260200190815260200160002060008b73ffffffffffffffffffffffffffffffffffffffff1673ffffffffffffffffffffffffffffffffffffffff168152602001908152602001600020549050818110156123e2576040517f08c379a00000000000000000000000000000000000000000000000000000000081526004016123d990613dcf565b60405180910390fd5b81810360008085815260200190815260200160002060008c73ffffffffffffffffffffffffffffffffffffffff1673ffffffffffffffffffffffffffffffffffffffff168152602001908152602001600020819055508160008085815260200190815260200160002060008b73ffffffffffffffffffffffffffffffffffffffff1673ffffffffffffffffffffffffffffffffffffffff168152602001908152602001600020600082825461249791906140a3565b92505081905550505050806124ab906142e3565b90506122b8565b508473ffffffffffffffffffffffffffffffffffffffff168673ffffffffffffffffffffffffffffffffffffffff168273ffffffffffffffffffffffffffffffffffffffff167f4a39dc06d4c0dbc64b70af90fd698a233a518aa5d07e595d983b8c0526c8f7fb8787604051612529929190613c3b565b60405180910390a461253f818787878787612d45565b505050505050565b6000600360009054906101000a900473ffffffffffffffffffffffffffffffffffffffff16905081600360006101000a81548173ffffffffffffffffffffffffffffffffffffffff021916908373ffffffffffffffffffffffffffffffffffffffff1602179055508173ffffffffffffffffffffffffffffffffffffffff168173ffffffffffffffffffffffffffffffffffffffff167f8be0079c531659141344cd1fd0a4f28419497f9722a3daafe3b4186f6b6457e060405160405180910390a35050565b8173ffffffffffffffffffffffffffffffffffffffff168373ffffffffffffffffffffffffffffffffffffffff16141561267c576040517f08c379a000000000000000000000000000000000000000000000000000000000815260040161267390613e6f565b60405180910390fd5b80600160008573ffffffffffffffffffffffffffffffffffffffff1673ffffffffffffffffffffffffffffffffffffffff16815260200190815260200160002060008473ffffffffffffffffffffffffffffffffffffffff1673ffffffffffffffffffffffffffffffffffffffff16815260200190815260200160002060006101000a81548160ff0219169083151502179055508173ffffffffffffffffffffffffffffffffffffffff168373ffffffffffffffffffffffffffffffffffffffff167f17307eab39ab6107e8899845ad3d59bd9653f200f220920489ca2b5937696c318360405161276d9190613c72565b60405180910390a3505050565b6000600160008473ffffffffffffffffffffffffffffffffffffffff1673ffffffffffffffffffffffffffffffffffffffff16815260200190815260200160002060008373ffffffffffffffffffffffffffffffffffffffff1673ffffffffffffffffffffffffffffffffffffffff16815260200190815260200160002060009054906101000a900460ff16905092915050565b600073ffffffffffffffffffffffffffffffffffffffff168473ffffffffffffffffffffffffffffffffffffffff16141561287e576040517f08c379a000000000000000000000000000000000000000000000000000000000815260040161287590613d6f565b60405180910390fd5b6000612888611f9b565b90506128a881878761289988612a90565b6128a288612a90565b87612b56565b600080600086815260200190815260200160002060008873ffffffffffffffffffffffffffffffffffffffff1673ffffffffffffffffffffffffffffffffffffffff1681526020019081526020016000205490508381101561293f576040517f08c379a000000000000000000000000000000000000000000000000000000000815260040161293690613dcf565b60405180910390fd5b83810360008087815260200190815260200160002060008973ffffffffffffffffffffffffffffffffffffffff1673ffffffffffffffffffffffffffffffffffffffff168152602001908152602001600020819055508360008087815260200190815260200160002060008873ffffffffffffffffffffffffffffffffffffffff1673ffffffffffffffffffffffffffffffffffffffff16815260200190815260200160002060008282546129f491906140a3565b925050819055508573ffffffffffffffffffffffffffffffffffffffff168773ffffffffffffffffffffffffffffffffffffffff168373ffffffffffffffffffffffffffffffffffffffff167fc3d58168c5ae7397731d063d5bbf3d657854427343f4c083240f7aacaa2d0f628888604051612a71929190613f2a565b60405180910390a4612a87828888888888612b5e565b50505050505050565b60606000600167ffffffffffffffff811115612ad5577f4e487b7100000000000000000000000000000000000000000000000000000000600052604160045260246000fd5b604051908082528060200260200182016040528015612b035781602001602082028036833780820191505090505b5090508281600081518110612b41577f4e487b7100000000000000000000000000000000000000000000000000000000600052603260045260246000fd5b60200260200101818152505080915050919050565b505050505050565b612b7d8473ffffffffffffffffffffffffffffffffffffffff16612f2c565b15612d3d578373ffffffffffffffffffffffffffffffffffffffff1663f23a6e6187878686866040518663ffffffff1660e01b8152600401612bc3959493929190613bbf565b602060405180830381600087803b158015612bdd57600080fd5b505af1925050508015612c0e57506040513d601f19601f82011682018060405250810190612c0b919061357f565b60015b612cb457612c1a614419565b806308c379a01415612c775750612c2f61492c565b80612c3a5750612c79565b806040517f08c379a0000000000000000000000000000000000000000000000000000000008152600401612c6e9190613c8d565b60405180910390fd5b505b6040517f08c379a0000000000000000000000000000000000000000000000000000000008152600401612cab90613caf565b60405180910390fd5b63f23a6e6160e01b7bffffffffffffffffffffffffffffffffffffffffffffffffffffffff1916817bffffffffffffffffffffffffffffffffffffffffffffffffffffffff191614612d3b576040517f08c379a0000000000000000000000000000000000000000000000000000000008152600401612d3290613ccf565b60405180910390fd5b505b505050505050565b612d648473ffffffffffffffffffffffffffffffffffffffff16612f2c565b15612f24578373ffffffffffffffffffffffffffffffffffffffff1663bc197c8187878686866040518663ffffffff1660e01b8152600401612daa959493929190613b20565b602060405180830381600087803b158015612dc457600080fd5b505af1925050508015612df557506040513d601f19601f82011682018060405250810190612df2919061357f565b60015b612e9b57612e01614419565b806308c379a01415612e5e5750612e1661492c565b80612e215750612e60565b806040517f08c379a0000000000000000000000000000000000000000000000000000000008152600401612e559190613c8d565b60405180910390fd5b505b6040517f08c379a0000000000000000000000000000000000000000000000000000000008152600401612e9290613caf565b60405180910390fd5b63bc197c8160e01b7bffffffffffffffffffffffffffffffffffffffffffffffffffffffff1916817bffffffffffffffffffffffffffffffffffffffffffffffffffffffff191614612f22576040517f08c379a0000000000000000000000000000000000000000000000000000000008152600401612f1990613ccf565b60405180910390fd5b505b505050505050565b6000808273ffffffffffffffffffffffffffffffffffffffff163b119050919050565b828054612f5b90614280565b90600052602060002090601f016020900481019282612f7d5760008555612fc4565b82601f10612f9657805160ff1916838001178555612fc4565b82800160010185558215612fc4579182015b82811115612fc3578251825591602001919060010190612fa8565b5b509050612fd19190612fd5565b5090565b5b80821115612fee576000816000905550600101612fd6565b5090565b600061300561300084613f78565b613f53565b9050808382526020820190508285602086028201111561302457600080fd5b60005b85811015613054578161303a8882613146565b845260208401935060208301925050600181019050613027565b5050509392505050565b600061307161306c84613fa4565b613f53565b9050808382526020820190508285602086028201111561309057600080fd5b60005b858110156130c057816130a6888261326c565b845260208401935060208301925050600181019050613093565b5050509392505050565b60006130dd6130d884613fd0565b613f53565b9050828152602081018484840111156130f557600080fd5b61310084828561423e565b509392505050565b600061311b61311684614001565b613f53565b90508281526020810184848401111561313357600080fd5b61313e84828561423e565b509392505050565b600081359050613155816149c2565b92915050565b600082601f83011261316c57600080fd5b813561317c848260208601612ff2565b91505092915050565b600082601f83011261319657600080fd5b81356131a684826020860161305e565b91505092915050565b6000813590506131be816149d9565b92915050565b6000815190506131d3816149d9565b92915050565b6000813590506131e8816149f0565b92915050565b6000815190506131fd816149f0565b92915050565b600082601f83011261321457600080fd5b81356132248482602086016130ca565b91505092915050565b60008151905061323c81614a07565b92915050565b600082601f83011261325357600080fd5b8135613263848260208601613108565b91505092915050565b60008135905061327b81614a1e565b92915050565b60008151905061329081614a1e565b92915050565b6000602082840312156132a857600080fd5b60006132b684828501613146565b91505092915050565b600080604083850312156132d257600080fd5b60006132e085828601613146565b92505060206132f185828601613146565b9150509250929050565b600080600080600060a0868803121561331357600080fd5b600061332188828901613146565b955050602061333288828901613146565b945050604086013567ffffffffffffffff81111561334f57600080fd5b61335b88828901613185565b935050606086013567ffffffffffffffff81111561337857600080fd5b61338488828901613185565b925050608086013567ffffffffffffffff8111156133a157600080fd5b6133ad88828901613203565b9150509295509295909350565b600080600080600060a086880312156133d257600080fd5b60006133e088828901613146565b95505060206133f188828901613146565b94505060406134028882890161326c565b93505060606134138882890161326c565b925050608086013567ffffffffffffffff81111561343057600080fd5b61343c88828901613203565b9150509295509295909350565b6000806040838503121561345c57600080fd5b600061346a85828601613146565b925050602061347b858286016131af565b9150509250929050565b6000806040838503121561349857600080fd5b60006134a685828601613146565b92505060206134b78582860161326c565b9150509250929050565b600080604083850312156134d457600080fd5b600083013567ffffffffffffffff8111156134ee57600080fd5b6134fa8582860161315b565b925050602083013567ffffffffffffffff81111561351757600080fd5b61352385828601613185565b9150509250929050565b60006020828403121561353f57600080fd5b600061354d848285016131c4565b91505092915050565b60006020828403121561356857600080fd5b6000613576848285016131d9565b91505092915050565b60006020828403121561359157600080fd5b600061359f848285016131ee565b91505092915050565b6000602082840312156135ba57600080fd5b60006135c88482850161322d565b91505092915050565b6000602082840312156135e357600080fd5b600082013567ffffffffffffffff8111156135fd57600080fd5b61360984828501613242565b91505092915050565b60006020828403121561362457600080fd5b60006136328482850161326c565b91505092915050565b60006020828403121561364d57600080fd5b600061365b84828501613281565b91505092915050565b6000806040838503121561367757600080fd5b60006136858582860161326c565b925050602083013567ffffffffffffffff8111156136a257600080fd5b6136ae85828601613242565b9150509250929050565b6000806000606084860312156136cd57600080fd5b60006136db8682870161326c565b93505060206136ec8682870161326c565b925050604084013567ffffffffffffffff81111561370957600080fd5b61371586828701613203565b9150509250925092565b600061372b8383613abe565b60208301905092915050565b613740816141b8565b82525050565b600061375182614042565b61375b8185614070565b935061376683614032565b8060005b8381101561379757815161377e888261371f565b975061378983614063565b92505060018101905061376a565b5085935050505092915050565b6137ad816141ca565b82525050565b60006137be8261404d565b6137c88185614081565b93506137d881856020860161424d565b6137e18161443b565b840191505092915050565b60006137f782614058565b6138018185614092565b935061381181856020860161424d565b61381a8161443b565b840191505092915050565b6000613832603483614092565b915061383d82614459565b604082019050919050565b6000613855602883614092565b9150613860826144a8565b604082019050919050565b6000613878601f83614092565b9150613883826144f7565b602082019050919050565b600061389b602b83614092565b91506138a682614520565b604082019050919050565b60006138be602683614092565b91506138c98261456f565b604082019050919050565b60006138e1602983614092565b91506138ec826145be565b604082019050919050565b6000613904602583614092565b915061390f8261460d565b604082019050919050565b6000613927603283614092565b91506139328261465c565b604082019050919050565b600061394a601983614092565b9150613955826146ab565b602082019050919050565b600061396d602a83614092565b9150613978826146d4565b604082019050919050565b6000613990601683614092565b915061399b82614723565b602082019050919050565b60006139b3602083614092565b91506139be8261474c565b602082019050919050565b60006139d6601a83614092565b91506139e182614775565b602082019050919050565b60006139f9601483614092565b9150613a048261479e565b602082019050919050565b6000613a1c602983614092565b9150613a27826147c7565b604082019050919050565b6000613a3f602983614092565b9150613a4a82614816565b604082019050919050565b6000613a62602883614092565b9150613a6d82614865565b604082019050919050565b6000613a85602183614092565b9150613a90826148b4565b604082019050919050565b6000613aa8601b83614092565b9150613ab382614903565b602082019050919050565b613ac781614234565b82525050565b613ad681614234565b82525050565b6000602082019050613af16000830184613737565b92915050565b6000604082019050613b0c6000830185613737565b613b196020830184613737565b9392505050565b600060a082019050613b356000830188613737565b613b426020830187613737565b8181036040830152613b548186613746565b90508181036060830152613b688185613746565b90508181036080830152613b7c81846137b3565b90509695505050505050565b6000606082019050613b9d6000830186613737565b613baa6020830185613737565b613bb76040830184613acd565b949350505050565b600060a082019050613bd46000830188613737565b613be16020830187613737565b613bee6040830186613acd565b613bfb6060830185613acd565b8181036080830152613c0d81846137b3565b90509695505050505050565b60006020820190508181036000830152613c338184613746565b905092915050565b60006040820190508181036000830152613c558185613746565b90508181036020830152613c698184613746565b90509392505050565b6000602082019050613c8760008301846137a4565b92915050565b60006020820190508181036000830152613ca781846137ec565b905092915050565b60006020820190508181036000830152613cc881613825565b9050919050565b60006020820190508181036000830152613ce881613848565b9050919050565b60006020820190508181036000830152613d088161386b565b9050919050565b60006020820190508181036000830152613d288161388e565b9050919050565b60006020820190508181036000830152613d48816138b1565b9050919050565b60006020820190508181036000830152613d68816138d4565b9050919050565b60006020820190508181036000830152613d88816138f7565b9050919050565b60006020820190508181036000830152613da88161391a565b9050919050565b60006020820190508181036000830152613dc88161393d565b9050919050565b60006020820190508181036000830152613de881613960565b9050919050565b60006020820190508181036000830152613e0881613983565b9050919050565b60006020820190508181036000830152613e28816139a6565b9050919050565b60006020820190508181036000830152613e48816139c9565b9050919050565b60006020820190508181036000830152613e68816139ec565b9050919050565b60006020820190508181036000830152613e8881613a0f565b9050919050565b60006020820190508181036000830152613ea881613a32565b9050919050565b60006020820190508181036000830152613ec881613a55565b9050919050565b60006020820190508181036000830152613ee881613a78565b9050919050565b60006020820190508181036000830152613f0881613a9b565b9050919050565b6000602082019050613f246000830184613acd565b92915050565b6000604082019050613f3f6000830185613acd565b613f4c6020830184613acd565b9392505050565b6000613f5d613f6e565b9050613f6982826142b2565b919050565b6000604051905090565b600067ffffffffffffffff821115613f9357613f926143ea565b5b602082029050602081019050919050565b600067ffffffffffffffff821115613fbf57613fbe6143ea565b5b602082029050602081019050919050565b600067ffffffffffffffff821115613feb57613fea6143ea565b5b613ff48261443b565b9050602081019050919050565b600067ffffffffffffffff82111561401c5761401b6143ea565b5b6140258261443b565b9050602081019050919050565b6000819050602082019050919050565b600081519050919050565b600081519050919050565b600081519050919050565b6000602082019050919050565b600082825260208201905092915050565b600082825260208201905092915050565b600082825260208201905092915050565b60006140ae82614234565b91506140b983614234565b9250827fffffffffffffffffffffffffffffffffffffffffffffffffffffffffffffffff038211156140ee576140ed61435d565b5b828201905092915050565b600061410482614234565b915061410f83614234565b92508261411f5761411e61438c565b5b828204905092915050565b600061413582614234565b915061414083614234565b9250817fffffffffffffffffffffffffffffffffffffffffffffffffffffffffffffffff04831182151516156141795761417861435d565b5b828202905092915050565b600061418f82614234565b915061419a83614234565b9250828210156141ad576141ac61435d565b5b828203905092915050565b60006141c382614214565b9050919050565b60008115159050919050565b60007fffffffff0000000000000000000000000000000000000000000000000000000082169050919050565b600061420d826141b8565b9050919050565b600073ffffffffffffffffffffffffffffffffffffffff82169050919050565b6000819050919050565b82818337600083830152505050565b60005b8381101561426b578082015181840152602081019050614250565b8381111561427a576000848401525b50505050565b6000600282049050600182168061429857607f821691505b602082108114156142ac576142ab6143bb565b5b50919050565b6142bb8261443b565b810181811067ffffffffffffffff821117156142da576142d96143ea565b5b80604052505050565b60006142ee82614234565b91507fffffffffffffffffffffffffffffffffffffffffffffffffffffffffffffffff8214156143215761432061435d565b5b600182019050919050565b600061433782614234565b915061434283614234565b9250826143525761435161438c565b5b828206905092915050565b7f4e487b7100000000000000000000000000000000000000000000000000000000600052601160045260246000fd5b7f4e487b7100000000000000000000000000000000000000000000000000000000600052601260045260246000fd5b7f4e487b7100000000000000000000000000000000000000000000000000000000600052602260045260246000fd5b7f4e487b7100000000000000000000000000000000000000000000000000000000600052604160045260246000fd5b600060033d11156144385760046000803e61443560005161444c565b90505b90565b6000601f19601f8301169050919050565b60008160e01c9050919050565b7f455243313135353a207472616e7366657220746f206e6f6e204552433131353560008201527f526563656976657220696d706c656d656e746572000000000000000000000000602082015250565b7f455243313135353a204552433131353552656365697665722072656a6563746560008201527f6420746f6b656e73000000000000000000000000000000000000000000000000602082015250565b7f55524920717565727920666f72206e6f6e6578697374656e7420746f6b656e00600082015250565b7f455243313135353a2062616c616e636520717565727920666f7220746865207a60008201527f65726f2061646472657373000000000000000000000000000000000000000000602082015250565b7f4f776e61626c653a206e6577206f776e657220697320746865207a65726f206160008201527f6464726573730000000000000000000000000000000000000000000000000000602082015250565b7f455243313135353a2063616c6c6572206973206e6f74206f776e6572206e6f7260008201527f20617070726f7665640000000000000000000000000000000000000000000000602082015250565b7f455243313135353a207472616e7366657220746f20746865207a65726f20616460008201527f6472657373000000000000000000000000000000000000000000000000000000602082015250565b7f455243313135353a207472616e736665722063616c6c6572206973206e6f742060008201527f6f776e6572206e6f7220617070726f7665640000000000000000000000000000602082015250565b7f436865636b2074686520746f6b656e20616c6c6f77616e636500000000000000600082015250565b7f455243313135353a20696e73756666696369656e742062616c616e636520666f60008201527f72207472616e7366657200000000000000000000000000000000000000000000602082015250565b7f4578636565642073616c6573206d6178206c696d697400000000000000000000600082015250565b7f4f776e61626c653a2063616c6c6572206973206e6f7420746865206f776e6572600082015250565b7f457863656564206d6178206d696e7420706572206d696e746572000000000000600082015250565b7f496e73756666696369656e742042616c616e6365000000000000000000000000600082015250565b7f455243313135353a2073657474696e6720617070726f76616c2073746174757360008201527f20666f722073656c660000000000000000000000000000000000000000000000602082015250565b7f455243313135353a206163636f756e747320616e6420696473206c656e67746860008201527f206d69736d617463680000000000000000000000000000000000000000000000602082015250565b7f455243313135353a2069647320616e6420616d6f756e7473206c656e6774682060008201527f6d69736d61746368000000000000000000000000000000000000000000000000602082015250565b7f455243313135353a206d696e7420746f20746865207a65726f2061646472657360008201527f7300000000000000000000000000000000000000000000000000000000000000602082015250565b7f53616c65207374616765206973206e6f74206163746976617465640000000000600082015250565b600060443d101561493c576149bf565b614944613f6e565b60043d036004823e80513d602482011167ffffffffffffffff8211171561496c5750506149bf565b808201805167ffffffffffffffff81111561498a57505050506149bf565b80602083010160043d0385018111156149a75750505050506149bf565b6149b6826020018501866142b2565b82955050505050505b90565b6149cb816141b8565b81146149d657600080fd5b50565b6149e2816141ca565b81146149ed57600080fd5b50565b6149f9816141d6565b8114614a0457600080fd5b50565b614a1081614202565b8114614a1b57600080fd5b50565b614a2781614234565b8114614a3257600080fd5b5056fea26469706673582212202ca370999d4613f6538a96b9d8a61d5ccdbfe78ee413e67baadc4fc8bde9fe0d64736f6c63430008040033",
  "linkReferences": {},
  "deployedLinkReferences": {}
}