{
  "_format": "hh-sol-artifact-1",
  "contractName": "LBSFragment",
  "sourceName": "contracts/LBSFragment.sol",
  "abi": [
    {
      "inputs": [
        {
          "internalType": "address",
          "name": "usdcContractAddress_",
          "type": "address"
        },
        {
          "internalType": "string",
          "name": "uri_",
          "type": "string"
        }
      ],
      "stateMutability": "nonpayable",
      "type": "constructor"
    },
    {
      "anonymous": false,
      "inputs": [
        {
          "indexed": false,
          "internalType": "address",
          "name": "operator",
          "type": "address"
        },
        {
          "indexed": false,
          "internalType": "uint256",
          "name": "stage",
          "type": "uint256"
        }
      ],
      "name": "AciveStage",
      "type": "event"
    },
    {
      "anonymous": false,
      "inputs": [
        {
          "indexed": true,
          "internalType": "address",
          "name": "account",
          "type": "address"
        },
        {
          "indexed": true,
          "internalType": "address",
          "name": "operator",
          "type": "address"
        },
        {
          "indexed": false,
          "internalType": "bool",
          "name": "approved",
          "type": "bool"
        }
      ],
      "name": "ApprovalForAll",
      "type": "event"
    },
    {
      "anonymous": false,
      "inputs": [
        {
          "indexed": true,
          "internalType": "address",
          "name": "previousOwner",
          "type": "address"
        },
        {
          "indexed": true,
          "internalType": "address",
          "name": "newOwner",
          "type": "address"
        }
      ],
      "name": "OwnershipTransferred",
      "type": "event"
    },
    {
      "anonymous": false,
      "inputs": [
        {
          "indexed": false,
          "internalType": "address",
          "name": "account",
          "type": "address"
        }
      ],
      "name": "Paused",
      "type": "event"
    },
    {
      "anonymous": false,
      "inputs": [
        {
          "indexed": false,
          "internalType": "address",
          "name": "operator",
          "type": "address"
        },
        {
          "indexed": false,
          "internalType": "uint256",
          "name": "tokenId",
          "type": "uint256"
        },
        {
          "indexed": false,
          "internalType": "uint256",
          "name": "value",
          "type": "uint256"
        }
      ],
      "name": "Price",
      "type": "event"
    },
    {
      "anonymous": false,
      "inputs": [
        {
          "indexed": true,
          "internalType": "address",
          "name": "operator",
          "type": "address"
        },
        {
          "indexed": true,
          "internalType": "address",
          "name": "from",
          "type": "address"
        },
        {
          "indexed": true,
          "internalType": "address",
          "name": "to",
          "type": "address"
        },
        {
          "indexed": false,
          "internalType": "uint256[]",
          "name": "ids",
          "type": "uint256[]"
        },
        {
          "indexed": false,
          "internalType": "uint256[]",
          "name": "values",
          "type": "uint256[]"
        }
      ],
      "name": "TransferBatch",
      "type": "event"
    },
    {
      "anonymous": false,
      "inputs": [
        {
          "indexed": true,
          "internalType": "address",
          "name": "operator",
          "type": "address"
        },
        {
          "indexed": true,
          "internalType": "address",
          "name": "from",
          "type": "address"
        },
        {
          "indexed": true,
          "internalType": "address",
          "name": "to",
          "type": "address"
        },
        {
          "indexed": false,
          "internalType": "uint256",
          "name": "id",
          "type": "uint256"
        },
        {
          "indexed": false,
          "internalType": "uint256",
          "name": "value",
          "type": "uint256"
        }
      ],
      "name": "TransferSingle",
      "type": "event"
    },
    {
      "anonymous": false,
      "inputs": [
        {
          "indexed": false,
          "internalType": "string",
          "name": "value",
          "type": "string"
        },
        {
          "indexed": true,
          "internalType": "uint256",
          "name": "id",
          "type": "uint256"
        }
      ],
      "name": "URI",
      "type": "event"
    },
    {
      "anonymous": false,
      "inputs": [
        {
          "indexed": false,
          "internalType": "address",
          "name": "account",
          "type": "address"
        }
      ],
      "name": "Unpaused",
      "type": "event"
    },
    {
      "inputs": [],
      "name": "STAGE_1_SALE_MAX_SUPPLY",
      "outputs": [
        {
          "internalType": "uint256",
          "name": "",
          "type": "uint256"
        }
      ],
      "stateMutability": "view",
      "type": "function"
    },
    {
      "inputs": [],
      "name": "STAGE_1_TOKEN_ID",
      "outputs": [
        {
          "internalType": "uint256",
          "name": "",
          "type": "uint256"
        }
      ],
      "stateMutability": "view",
      "type": "function"
    },
    {
      "inputs": [],
      "name": "STAGE_2_SALE_MAX_SUPPLY",
      "outputs": [
        {
          "internalType": "uint256",
          "name": "",
          "type": "uint256"
        }
      ],
      "stateMutability": "view",
      "type": "function"
    },
    {
      "inputs": [],
      "name": "STAGE_2_TOKEN_ID",
      "outputs": [
        {
          "internalType": "uint256",
          "name": "",
          "type": "uint256"
        }
      ],
      "stateMutability": "view",
      "type": "function"
    },
    {
      "inputs": [],
      "name": "STAGE_3_SALE_MAX_SUPPLY",
      "outputs": [
        {
          "internalType": "uint256",
          "name": "",
          "type": "uint256"
        }
      ],
      "stateMutability": "view",
      "type": "function"
    },
    {
      "inputs": [],
      "name": "STAGE_3_TOKEN_ID",
      "outputs": [
        {
          "internalType": "uint256",
          "name": "",
          "type": "uint256"
        }
      ],
      "stateMutability": "view",
      "type": "function"
    },
    {
      "inputs": [],
      "name": "STAGE_4_SALE_MAX_SUPPLY",
      "outputs": [
        {
          "internalType": "uint256",
          "name": "",
          "type": "uint256"
        }
      ],
      "stateMutability": "view",
      "type": "function"
    },
    {
      "inputs": [],
      "name": "STAGE_4_TOKEN_ID",
      "outputs": [
        {
          "internalType": "uint256",
          "name": "",
          "type": "uint256"
        }
      ],
      "stateMutability": "view",
      "type": "function"
    },
    {
      "inputs": [],
      "name": "STAGE_4_TREASURY_MAX_SUPPLY",
      "outputs": [
        {
          "internalType": "uint256",
          "name": "",
          "type": "uint256"
        }
      ],
      "stateMutability": "view",
      "type": "function"
    },
    {
      "inputs": [],
      "name": "TOTAL_MAX_SUPPLY",
      "outputs": [
        {
          "internalType": "uint256",
          "name": "",
          "type": "uint256"
        }
      ],
      "stateMutability": "view",
      "type": "function"
    },
    {
      "inputs": [],
      "name": "TOTAL_MAX_TOKEN",
      "outputs": [
        {
          "internalType": "uint256",
          "name": "",
          "type": "uint256"
        }
      ],
      "stateMutability": "view",
      "type": "function"
    },
    {
      "inputs": [],
      "name": "activeStage",
      "outputs": [
        {
          "internalType": "uint256",
          "name": "",
          "type": "uint256"
        }
      ],
      "stateMutability": "view",
      "type": "function"
    },
    {
      "inputs": [
        {
          "internalType": "address",
          "name": "account",
          "type": "address"
        },
        {
          "internalType": "uint256",
          "name": "id",
          "type": "uint256"
        }
      ],
      "name": "balanceOf",
      "outputs": [
        {
          "internalType": "uint256",
          "name": "",
          "type": "uint256"
        }
      ],
      "stateMutability": "view",
      "type": "function"
    },
    {
      "inputs": [
        {
          "internalType": "address[]",
          "name": "accounts",
          "type": "address[]"
        },
        {
          "internalType": "uint256[]",
          "name": "ids",
          "type": "uint256[]"
        }
      ],
      "name": "balanceOfBatch",
      "outputs": [
        {
          "internalType": "uint256[]",
          "name": "",
          "type": "uint256[]"
        }
      ],
      "stateMutability": "view",
      "type": "function"
    },
    {
      "inputs": [
        {
          "internalType": "address",
          "name": "account",
          "type": "address"
        },
        {
          "internalType": "uint256",
          "name": "id",
          "type": "uint256"
        },
        {
          "internalType": "uint256",
          "name": "value",
          "type": "uint256"
        }
      ],
      "name": "burn",
      "outputs": [],
      "stateMutability": "nonpayable",
      "type": "function"
    },
    {
      "inputs": [
        {
          "internalType": "address",
          "name": "account",
          "type": "address"
        },
        {
          "internalType": "uint256[]",
          "name": "ids",
          "type": "uint256[]"
        },
        {
          "internalType": "uint256[]",
          "name": "values",
          "type": "uint256[]"
        }
      ],
      "name": "burnBatch",
      "outputs": [],
      "stateMutability": "nonpayable",
      "type": "function"
    },
    {
      "inputs": [],
      "name": "contractURI",
      "outputs": [
        {
          "internalType": "string",
          "name": "",
          "type": "string"
        }
      ],
      "stateMutability": "view",
      "type": "function"
    },
    {
      "inputs": [
        {
          "internalType": "uint256",
          "name": "id",
          "type": "uint256"
        }
      ],
      "name": "exists",
      "outputs": [
        {
          "internalType": "bool",
          "name": "",
          "type": "bool"
        }
      ],
      "stateMutability": "view",
      "type": "function"
    },
    {
      "inputs": [
        {
          "internalType": "address",
          "name": "account",
          "type": "address"
        },
        {
          "internalType": "address",
          "name": "operator",
          "type": "address"
        }
      ],
      "name": "isApprovedForAll",
      "outputs": [
        {
          "internalType": "bool",
          "name": "",
          "type": "bool"
        }
      ],
      "stateMutability": "view",
      "type": "function"
    },
    {
      "inputs": [
        {
          "internalType": "uint256",
          "name": "tokenId",
          "type": "uint256"
        }
      ],
      "name": "maxSaleSupply",
      "outputs": [
        {
          "internalType": "uint256",
          "name": "",
          "type": "uint256"
        }
      ],
      "stateMutability": "pure",
      "type": "function"
    },
    {
      "inputs": [
        {
          "internalType": "uint256",
          "name": "tokenId",
          "type": "uint256"
        },
        {
          "internalType": "uint256",
          "name": "quantity",
          "type": "uint256"
        },
        {
          "internalType": "bytes",
          "name": "data",
          "type": "bytes"
        }
      ],
      "name": "mint",
      "outputs": [],
      "stateMutability": "nonpayable",
      "type": "function"
    },
    {
      "inputs": [],
      "name": "mintTreasury",
      "outputs": [],
      "stateMutability": "nonpayable",
      "type": "function"
    },
    {
      "inputs": [],
      "name": "name",
      "outputs": [
        {
          "internalType": "string",
          "name": "",
          "type": "string"
        }
      ],
      "stateMutability": "pure",
      "type": "function"
    },
    {
      "inputs": [],
      "name": "owner",
      "outputs": [
        {
          "internalType": "address",
          "name": "",
          "type": "address"
        }
      ],
      "stateMutability": "view",
      "type": "function"
    },
    {
      "inputs": [],
      "name": "pause",
      "outputs": [],
      "stateMutability": "nonpayable",
      "type": "function"
    },
    {
      "inputs": [],
      "name": "paused",
      "outputs": [
        {
          "internalType": "bool",
          "name": "",
          "type": "bool"
        }
      ],
      "stateMutability": "view",
      "type": "function"
    },
    {
      "inputs": [
        {
          "internalType": "uint256",
          "name": "tokenId",
          "type": "uint256"
        }
      ],
      "name": "price",
      "outputs": [
        {
          "internalType": "uint256",
          "name": "",
          "type": "uint256"
        }
      ],
      "stateMutability": "view",
      "type": "function"
    },
    {
      "inputs": [],
      "name": "renounceOwnership",
      "outputs": [],
      "stateMutability": "nonpayable",
      "type": "function"
    },
    {
      "inputs": [
        {
          "internalType": "uint256",
          "name": "tokenId",
          "type": "uint256"
        },
        {
          "internalType": "uint256",
          "name": "salePrice",
          "type": "uint256"
        }
      ],
      "name": "royaltyInfo",
      "outputs": [
        {
          "internalType": "address",
          "name": "receiver",
          "type": "address"
        },
        {
          "internalType": "uint256",
          "name": "royaltyAmount",
          "type": "uint256"
        }
      ],
      "stateMutability": "view",
      "type": "function"
    },
    {
      "inputs": [
        {
          "internalType": "address",
          "name": "from",
          "type": "address"
        },
        {
          "internalType": "address",
          "name": "to",
          "type": "address"
        },
        {
          "internalType": "uint256[]",
          "name": "ids",
          "type": "uint256[]"
        },
        {
          "internalType": "uint256[]",
          "name": "amounts",
          "type": "uint256[]"
        },
        {
          "internalType": "bytes",
          "name": "data",
          "type": "bytes"
        }
      ],
      "name": "safeBatchTransferFrom",
      "outputs": [],
      "stateMutability": "nonpayable",
      "type": "function"
    },
    {
      "inputs": [
        {
          "internalType": "address",
          "name": "from",
          "type": "address"
        },
        {
          "internalType": "address",
          "name": "to",
          "type": "address"
        },
        {
          "internalType": "uint256",
          "name": "id",
          "type": "uint256"
        },
        {
          "internalType": "uint256",
          "name": "amount",
          "type": "uint256"
        },
        {
          "internalType": "bytes",
          "name": "data",
          "type": "bytes"
        }
      ],
      "name": "safeTransferFrom",
      "outputs": [],
      "stateMutability": "nonpayable",
      "type": "function"
    },
    {
      "inputs": [
        {
          "internalType": "uint256",
          "name": "stage",
          "type": "uint256"
        }
      ],
      "name": "setActiveStage",
      "outputs": [],
      "stateMutability": "nonpayable",
      "type": "function"
    },
    {
      "inputs": [
        {
          "internalType": "address",
          "name": "operator",
          "type": "address"
        },
        {
          "internalType": "bool",
          "name": "approved",
          "type": "bool"
        }
      ],
      "name": "setApprovalForAll",
      "outputs": [],
      "stateMutability": "nonpayable",
      "type": "function"
    },
    {
      "inputs": [
        {
          "internalType": "uint256",
          "name": "tokenId",
          "type": "uint256"
        },
        {
          "internalType": "uint256",
          "name": "tokenPrice",
          "type": "uint256"
        }
      ],
      "name": "setPrice",
      "outputs": [],
      "stateMutability": "nonpayable",
      "type": "function"
    },
    {
      "inputs": [
        {
          "internalType": "string",
          "name": "newuri",
          "type": "string"
        }
      ],
      "name": "setURI",
      "outputs": [],
      "stateMutability": "nonpayable",
      "type": "function"
    },
    {
      "inputs": [
        {
          "internalType": "bytes4",
          "name": "interfaceId",
          "type": "bytes4"
        }
      ],
      "name": "supportsInterface",
      "outputs": [
        {
          "internalType": "bool",
          "name": "",
          "type": "bool"
        }
      ],
      "stateMutability": "view",
      "type": "function"
    },
    {
      "inputs": [],
      "name": "symbol",
      "outputs": [
        {
          "internalType": "string",
          "name": "",
          "type": "string"
        }
      ],
      "stateMutability": "pure",
      "type": "function"
    },
    {
      "inputs": [
        {
          "internalType": "uint256",
          "name": "id",
          "type": "uint256"
        }
      ],
      "name": "totalSupply",
      "outputs": [
        {
          "internalType": "uint256",
          "name": "",
          "type": "uint256"
        }
      ],
      "stateMutability": "view",
      "type": "function"
    },
    {
      "inputs": [
        {
          "internalType": "address",
          "name": "newOwner",
          "type": "address"
        }
      ],
      "name": "transferOwnership",
      "outputs": [],
      "stateMutability": "nonpayable",
      "type": "function"
    },
    {
      "inputs": [],
      "name": "unpause",
      "outputs": [],
      "stateMutability": "nonpayable",
      "type": "function"
    },
    {
      "inputs": [
        {
          "internalType": "uint256",
          "name": "tokenId",
          "type": "uint256"
        }
      ],
      "name": "uri",
      "outputs": [
        {
          "internalType": "string",
          "name": "",
          "type": "string"
        }
      ],
      "stateMutability": "view",
      "type": "function"
    },
    {
      "inputs": [],
      "name": "withdraw",
      "outputs": [
        {
          "internalType": "bool",
          "name": "",
          "type": "bool"
        }
      ],
      "stateMutability": "nonpayable",
      "type": "function"
    }
  ],
  "bytecode": "0x60806040523480156200001157600080fd5b50604051620031f2380380620031f283398101604081905262000034916200023b565b8062000040816200012a565b506200004c3362000143565b506003805460ff60a01b19169055600580546001600160a01b0319166001600160a01b039290921691909117905560066020526402540be4007f3e5fec24aa4dc4e5aee2e025e51e1392c72a2500577559fae9665c6d52bd6a3155640324a9a7007f8819ef417987f8ae7a81f42cdfb18815282fe989326fbff903d13cf0e03ace295564041314cf007f75f96ab15d697e93042dc45b5c896c4b27e89bb6eaf39475c5c371cb2513f7d255600460005264053d1ac1007fc5069e24aaadb2addc3e52e868fcf3f4f8acf5a87e24300992fd4540c2a87eed5562000387565b80516200013f90600290602084019062000195565b5050565b600380546001600160a01b038381166001600160a01b0319831681179093556040519116919082907f8be0079c531659141344cd1fd0a4f28419497f9722a3daafe3b4186f6b6457e090600090a35050565b828054620001a39062000334565b90600052602060002090601f016020900481019282620001c7576000855562000212565b82601f10620001e257805160ff191683800117855562000212565b8280016001018555821562000212579182015b8281111562000212578251825591602001919060010190620001f5565b506200022092915062000224565b5090565b5b8082111562000220576000815560010162000225565b600080604083850312156200024e578182fd5b82516001600160a01b038116811462000265578283fd5b602084810151919350906001600160401b038082111562000284578384fd5b818601915086601f83011262000298578384fd5b815181811115620002ad57620002ad62000371565b604051601f8201601f19908116603f01168101908382118183101715620002d857620002d862000371565b816040528281528986848701011115620002f0578687fd5b8693505b82841015620003135784840186015181850187015292850192620002f4565b828411156200032457868684830101525b8096505050505050509250929050565b600181811c908216806200034957607f821691505b602082108114156200036b57634e487b7160e01b600052602260045260246000fd5b50919050565b634e487b7160e01b600052604160045260246000fd5b612e5b80620003976000396000f3fe608060405234801561001057600080fd5b506004361061025d5760003560e01c806365b1de2011610146578063a22cb465116100c3578063e8a3d48511610087578063e8a3d485146104ec578063e985e9c5146104f4578063f242432a14610530578063f2fde38b14610543578063f5298aca14610556578063f7d975771461056957600080fd5b8063a22cb465146104a9578063bd85b039146104bc578063c5cdff8c146104dc578063c65e126c146103f1578063e3e35062146104e457600080fd5b806382e92f271161010a57806382e92f271461044b5780638456cb5914610453578063896086de1461045b5780638da5cb5b1461046e57806395d89b411461048957600080fd5b806365b1de201461040b5780636b20c45414610414578063715018a6146104275780637377577e1461042f5780637710d1ad1461043857600080fd5b80632a55205a116101df57806346350581116101a3578063463505811461039f5780634864d8d9146103a75780634e1273f4146103af5780634f558e79146103cf57806351debc44146103f15780635c975abb146103f957600080fd5b80632a55205a146103425780632b66d7cf146103745780632eb2c2d61461037c5780633ccfd60b1461038f5780633f4ba83a1461039757600080fd5b806308dc9f421161022657806308dc9f42146102f95780630e89341c1461030c5780630f55be0c1461031f5780631a5bc9b11461032757806326a49e371461032f57600080fd5b8062fdd58e1461026257806301ffc9a71461028857806302fe5305146102ab57806305bd4ef8146102c057806306fdde03146102c9575b600080fd5b6102756102703660046125d3565b61057c565b6040519081526020015b60405180910390f35b61029b610296366004612715565b610612565b604051901515815260200161027f565b6102be6102b936600461274d565b61063d565b005b6102756103d481565b60408051808201909152600b81526a131094d19c9859db595b9d60aa1b60208201525b60405161027f9190612a03565b6102be6103073660046127ec565b610651565b6102ec61031a36600461279b565b6109af565b610275600381565b61027560c481565b61027561033d36600461279b565b610a18565b6103556103503660046127cb565b610a36565b604080516001600160a01b03909316835260208301919091520161027f565b610275600281565b6102be61038a366004612423565b610a71565b61029b610abd565b6102be610c34565b610275607881565b600754610275565b6103c26103bd36600461262e565b610c46565b60405161027f91906129c2565b61029b6103dd36600461279b565b600090815260046020526040902054151590565b610275600481565b600354600160a01b900460ff1661029b565b6102756106eb81565b6102be61042236600461252c565b610da8565b6102be610df0565b61027561010881565b61027561044636600461279b565b610e02565b61027560d381565b6102be610e4e565b6102be61046936600461279b565b610e5e565b6003546040516001600160a01b03909116815260200161027f565b604080518082019091526004815263262129a360e11b60208201526102ec565b6102be6104b736600461259d565b610ee8565b6102756104ca36600461279b565b60009081526004602052604090205490565b610275600181565b6102be610ef7565b6102ec610f8e565b61029b6105023660046123f1565b6001600160a01b03918216600090815260016020908152604080832093909416825291909152205460ff1690565b6102be61053e3660046124c9565b610fbe565b6102be6105513660046123d7565b611003565b6102be6105643660046125fc565b611079565b6102be6105773660046127cb565b6110bc565b60006001600160a01b0383166105ec5760405162461bcd60e51b815260206004820152602a60248201527f455243313135353a2061646472657373207a65726f206973206e6f742061207660448201526930b634b21037bbb732b960b11b60648201526084015b60405180910390fd5b506000908152602081815260408083206001600160a01b03949094168352929052205490565b60006001600160e01b0319821663152a902d60e11b1480610637575061063782611164565b92915050565b6106456111b4565b61064e8161120e565b50565b610659611221565b6106628361126e565b8261066c60075490565b146106af5760405162461bcd60e51b81526020600482015260136024820152721cdd1859d9481b9bdd081858dd1a5d985d1959606a1b60448201526064016105e3565b6106b883610e02565b6000848152600460205260409020546106d2908490612c2e565b11156107145760405162461bcd60e51b8152602060048201526011602482015270657863656564206d617820737570706c7960781b60448201526064016105e3565b60008261072085610a18565b61072a9190612c66565b6005546040516370a0823160e01b815233600482015291925082916001600160a01b03909116906370a082319060240160206040518083038186803b15801561077257600080fd5b505afa158015610786573d6000803e3d6000fd5b505050506040513d601f19601f820116820180604052508101906107aa91906127b3565b10156107f85760405162461bcd60e51b815260206004820152601960248201527f696e73756666696369656e7420555344432062616c616e63650000000000000060448201526064016105e3565b600554604051636eb1769f60e11b815233600482015230602482015282916001600160a01b03169063dd62ed3e9060440160206040518083038186803b15801561084157600080fd5b505afa158015610855573d6000803e3d6000fd5b505050506040513d601f19601f8201168201806040525081019061087991906127b3565b10156108c75760405162461bcd60e51b815260206004820152601860248201527f636865636b20746865205553444320616c6c6f77616e6365000000000000000060448201526064016105e3565b6005546040516323b872dd60e01b8152336004820152306024820152604481018390526001600160a01b03909116906323b872dd90606401602060405180830381600087803b15801561091957600080fd5b505af115801561092d573d6000803e3d6000fd5b505050506040513d601f19601f8201168201806040525081019061095191906126f9565b61099d5760405162461bcd60e51b815260206004820152601760248201527f6661696c656420746f207472616e73666572205553444300000000000000000060448201526064016105e3565b6109a9338585856112bf565b50505050565b60606109ba8261126e565b60006109c5836113e2565b6040516020016109d591906128f6565b60405160208183030381529060405290506109ef83611485565b81604051602001610a01929190612896565b604051602081830303815290604052915050919050565b6000610a238261126e565b5060009081526006602052604090205490565b600080610a428461126e565b6003546001600160a01b0316612710610a5c8560fa612c66565b610a669190612c46565b915091509250929050565b6001600160a01b038516331480610a8d5750610a8d8533610502565b610aa95760405162461bcd60e51b81526004016105e390612aa2565b610ab68585858585611519565b5050505050565b6000610ac76111b4565b6005546040516370a0823160e01b81523060048201526000916001600160a01b0316906370a082319060240160206040518083038186803b158015610b0b57600080fd5b505afa158015610b1f573d6000803e3d6000fd5b505050506040513d601f19601f82011682018060405250810190610b4391906127b3565b905060008111610b8a5760405162461bcd60e51b8152602060048201526012602482015271656d70747920555344432062616c616e636560701b60448201526064016105e3565b6005546001600160a01b031663a9059cbb610bad6003546001600160a01b031690565b6040516001600160e01b031960e084901b1681526001600160a01b03909116600482015260248101849052604401602060405180830381600087803b158015610bf557600080fd5b505af1158015610c09573d6000803e3d6000fd5b505050506040513d601f19601f82011682018060405250810190610c2d91906126f9565b9150505b90565b610c3c6111b4565b610c446116df565b565b60608151835114610cab5760405162461bcd60e51b815260206004820152602960248201527f455243313135353a206163636f756e747320616e6420696473206c656e677468604482015268040dad2e6dac2e8c6d60bb1b60648201526084016105e3565b6000835167ffffffffffffffff811115610cd557634e487b7160e01b600052604160045260246000fd5b604051908082528060200260200182016040528015610cfe578160200160208202803683370190505b50905060005b8451811015610da057610d65858281518110610d3057634e487b7160e01b600052603260045260246000fd5b6020026020010151858381518110610d5857634e487b7160e01b600052603260045260246000fd5b602002602001015161057c565b828281518110610d8557634e487b7160e01b600052603260045260246000fd5b6020908102919091010152610d9981612d19565b9050610d04565b509392505050565b6001600160a01b038316331480610dc45750610dc48333610502565b610de05760405162461bcd60e51b81526004016105e390612aa2565b610deb838383611734565b505050565b610df86111b4565b610c4460006118ec565b6000610e0d8261126e565b6001821415610e1e57506078919050565b6002821415610e2f575060c4919050565b6003821415610e415750610108919050565b5060d3919050565b919050565b610e566111b4565b610c4461193e565b610e666111b4565b6004811115610ea75760405162461bcd60e51b815260206004820152600d60248201526c696e76616c696420737461676560981b60448201526064016105e3565b600781905560408051338152602081018390527f416d1c1fddf19651c96d4c480438b2d6eba37dacfaf26dd310f80426898027cc910160405180910390a150565b610ef3338383611981565b5050565b610eff6111b4565b60085460ff1615610f525760405162461bcd60e51b815260206004820152601760248201527f747265617375727920616c7265616479206d696e74656400000000000000000060448201526064016105e3565b6008805460ff19166001179055610c44610f746003546001600160a01b031690565b60046103d4604051806020016040528060008152506112bf565b6060610f9a6000611485565b604051602001610faa91906128c5565b604051602081830303815290604052905090565b6001600160a01b038516331480610fda5750610fda8533610502565b610ff65760405162461bcd60e51b81526004016105e390612aa2565b610ab68585858585611a62565b61100b6111b4565b6001600160a01b0381166110705760405162461bcd60e51b815260206004820152602660248201527f4f776e61626c653a206e6577206f776e657220697320746865207a65726f206160448201526564647265737360d01b60648201526084016105e3565b61064e816118ec565b6001600160a01b03831633148061109557506110958333610502565b6110b15760405162461bcd60e51b81526004016105e390612aa2565b610deb838383611b9a565b6110c46111b4565b6110cd8261126e565b6000811161110d5760405162461bcd60e51b815260206004820152600d60248201526c696e76616c696420707269636560981b60448201526064016105e3565b60008281526006602090815260409182902083905581513381529081018490529081018290527f3decdd41f8fface8a69a57a0f2575de99320741dfc7855eb4bd1b88a1dfa2b629060600160405180910390a15050565b60006001600160e01b03198216636cdb3d1360e11b148061119557506001600160e01b031982166303a24d0760e21b145b8061063757506301ffc9a760e01b6001600160e01b0319831614610637565b6003546001600160a01b03163314610c445760405162461bcd60e51b815260206004820181905260248201527f4f776e61626c653a2063616c6c6572206973206e6f7420746865206f776e657260448201526064016105e3565b8051610ef390600290602084019061222f565b600354600160a01b900460ff1615610c445760405162461bcd60e51b815260206004820152601060248201526f14185d5cd8589b194e881c185d5cd95960821b60448201526064016105e3565b60018110158015611280575060048111155b61064e5760405162461bcd60e51b815260206004820152601060248201526f1a5b9d985b1a59081d1bdad95b881a5960821b60448201526064016105e3565b6001600160a01b03841661131f5760405162461bcd60e51b815260206004820152602160248201527f455243313135353a206d696e7420746f20746865207a65726f206164647265736044820152607360f81b60648201526084016105e3565b33600061132b85611cb2565b9050600061133885611cb2565b905061134983600089858589611d0b565b6000868152602081815260408083206001600160a01b038b16845290915281208054879290611379908490612c2e565b909155505060408051878152602081018790526001600160a01b03808a1692600092918716917fc3d58168c5ae7397731d063d5bbf3d657854427343f4c083240f7aacaa2d0f62910160405180910390a46113d983600089898989611d21565b50505050505050565b606060006113ef83611e8c565b600101905060008167ffffffffffffffff81111561141d57634e487b7160e01b600052604160045260246000fd5b6040519080825280601f01601f191660200182016040528015611447576020820181803683370190505b5090508181016020015b600019016f181899199a1a9b1b9c1cb0b131b232b360811b600a86061a8153600a850494508461148057610da0565b611451565b60606002805461149490612cb1565b80601f01602080910402602001604051908101604052809291908181526020018280546114c090612cb1565b801561150d5780601f106114e25761010080835404028352916020019161150d565b820191906000526020600020905b8154815290600101906020018083116114f057829003601f168201915b50505050509050919050565b815183511461153a5760405162461bcd60e51b81526004016105e390612bc2565b6001600160a01b0384166115605760405162461bcd60e51b81526004016105e390612af0565b3361156f818787878787611d0b565b60005b845181101561167157600085828151811061159d57634e487b7160e01b600052603260045260246000fd5b6020026020010151905060008583815181106115c957634e487b7160e01b600052603260045260246000fd5b602090810291909101810151600084815280835260408082206001600160a01b038e1683529093529190912054909150818110156116195760405162461bcd60e51b81526004016105e390612b78565b6000838152602081815260408083206001600160a01b038e8116855292528083208585039055908b16825281208054849290611656908490612c2e565b925050819055505050508061166a90612d19565b9050611572565b50846001600160a01b0316866001600160a01b0316826001600160a01b03167f4a39dc06d4c0dbc64b70af90fd698a233a518aa5d07e595d983b8c0526c8f7fb87876040516116c19291906129d5565b60405180910390a46116d7818787878787611f64565b505050505050565b6116e761202e565b6003805460ff60a01b191690557f5db9ee0a495bf2e6ff9c91a7834c1ba4fdd244a5e8aa4e537bd38aeae4b073aa335b6040516001600160a01b03909116815260200160405180910390a1565b6001600160a01b03831661175a5760405162461bcd60e51b81526004016105e390612b35565b805182511461177b5760405162461bcd60e51b81526004016105e390612bc2565b600033905061179e81856000868660405180602001604052806000815250611d0b565b60005b835181101561187f5760008482815181106117cc57634e487b7160e01b600052603260045260246000fd5b6020026020010151905060008483815181106117f857634e487b7160e01b600052603260045260246000fd5b602090810291909101810151600084815280835260408082206001600160a01b038c1683529093529190912054909150818110156118485760405162461bcd60e51b81526004016105e390612a5e565b6000928352602083815260408085206001600160a01b038b168652909152909220910390558061187781612d19565b9150506117a1565b5060006001600160a01b0316846001600160a01b0316826001600160a01b03167f4a39dc06d4c0dbc64b70af90fd698a233a518aa5d07e595d983b8c0526c8f7fb86866040516118d09291906129d5565b60405180910390a46040805160208101909152600090526109a9565b600380546001600160a01b038381166001600160a01b0319831681179093556040519116919082907f8be0079c531659141344cd1fd0a4f28419497f9722a3daafe3b4186f6b6457e090600090a35050565b611946611221565b6003805460ff60a01b1916600160a01b1790557f62e78cea01bee320cd4e420270b5ea74000d11b0c9f74754ebdbfc544b05a2586117173390565b816001600160a01b0316836001600160a01b031614156119f55760405162461bcd60e51b815260206004820152602960248201527f455243313135353a2073657474696e6720617070726f76616c20737461747573604482015268103337b91039b2b63360b91b60648201526084016105e3565b6001600160a01b03838116600081815260016020908152604080832094871680845294825291829020805460ff191686151590811790915591519182527f17307eab39ab6107e8899845ad3d59bd9653f200f220920489ca2b5937696c31910160405180910390a3505050565b6001600160a01b038416611a885760405162461bcd60e51b81526004016105e390612af0565b336000611a9485611cb2565b90506000611aa185611cb2565b9050611ab1838989858589611d0b565b6000868152602081815260408083206001600160a01b038c16845290915290205485811015611af25760405162461bcd60e51b81526004016105e390612b78565b6000878152602081815260408083206001600160a01b038d8116855292528083208985039055908a16825281208054889290611b2f908490612c2e565b909155505060408051888152602081018890526001600160a01b03808b16928c821692918816917fc3d58168c5ae7397731d063d5bbf3d657854427343f4c083240f7aacaa2d0f62910160405180910390a4611b8f848a8a8a8a8a611d21565b505050505050505050565b6001600160a01b038316611bc05760405162461bcd60e51b81526004016105e390612b35565b336000611bcc84611cb2565b90506000611bd984611cb2565b9050611bf983876000858560405180602001604052806000815250611d0b565b6000858152602081815260408083206001600160a01b038a16845290915290205484811015611c3a5760405162461bcd60e51b81526004016105e390612a5e565b6000868152602081815260408083206001600160a01b038b81168086529184528285208a8703905582518b81529384018a90529092908816917fc3d58168c5ae7397731d063d5bbf3d657854427343f4c083240f7aacaa2d0f62910160405180910390a46040805160208101909152600090526113d9565b60408051600180825281830190925260609160009190602080830190803683370190505090508281600081518110611cfa57634e487b7160e01b600052603260045260246000fd5b602090810291909101015292915050565b611d13611221565b6116d786868686868661207e565b6001600160a01b0384163b156116d75760405163f23a6e6160e01b81526001600160a01b0385169063f23a6e6190611d65908990899088908890889060040161297d565b602060405180830381600087803b158015611d7f57600080fd5b505af1925050508015611daf575060408051601f3d908101601f19168201909252611dac91810190612731565b60015b611e5c57611dbb612d60565b806308c379a01415611df55750611dd0612d77565b80611ddb5750611df7565b8060405162461bcd60e51b81526004016105e39190612a03565b505b60405162461bcd60e51b815260206004820152603460248201527f455243313135353a207472616e7366657220746f206e6f6e2d455243313135356044820152732932b1b2b4bb32b91034b6b83632b6b2b73a32b960611b60648201526084016105e3565b6001600160e01b0319811663f23a6e6160e01b146113d95760405162461bcd60e51b81526004016105e390612a16565b60008072184f03e93ff9f4daa797ed6e38ed64bf6a1f0160401b8310611ecb5772184f03e93ff9f4daa797ed6e38ed64bf6a1f0160401b830492506040015b6d04ee2d6d415b85acef81000000008310611ef7576d04ee2d6d415b85acef8100000000830492506020015b662386f26fc100008310611f1557662386f26fc10000830492506010015b6305f5e1008310611f2d576305f5e100830492506008015b6127108310611f4157612710830492506004015b60648310611f53576064830492506002015b600a83106106375760010192915050565b6001600160a01b0384163b156116d75760405163bc197c8160e01b81526001600160a01b0385169063bc197c8190611fa8908990899088908890889060040161291f565b602060405180830381600087803b158015611fc257600080fd5b505af1925050508015611ff2575060408051601f3d908101601f19168201909252611fef91810190612731565b60015b611ffe57611dbb612d60565b6001600160e01b0319811663bc197c8160e01b146113d95760405162461bcd60e51b81526004016105e390612a16565b600354600160a01b900460ff16610c445760405162461bcd60e51b815260206004820152601460248201527314185d5cd8589b194e881b9bdd081c185d5cd95960621b60448201526064016105e3565b6001600160a01b0385166121215760005b835181101561211f578281815181106120b857634e487b7160e01b600052603260045260246000fd5b6020026020010151600460008684815181106120e457634e487b7160e01b600052603260045260246000fd5b6020026020010151815260200190815260200160002060008282546121099190612c2e565b90915550612118905081612d19565b905061208f565b505b6001600160a01b0384166116d75760005b83518110156113d957600084828151811061215d57634e487b7160e01b600052603260045260246000fd5b60200260200101519050600084838151811061218957634e487b7160e01b600052603260045260246000fd5b602002602001015190506000600460008481526020019081526020016000205490508181101561220c5760405162461bcd60e51b815260206004820152602860248201527f455243313135353a206275726e20616d6f756e74206578636565647320746f74604482015267616c537570706c7960c01b60648201526084016105e3565b6000928352600460205260409092209103905561222881612d19565b9050612132565b82805461223b90612cb1565b90600052602060002090601f01602090048101928261225d57600085556122a3565b82601f1061227657805160ff19168380011785556122a3565b828001600101855582156122a3579182015b828111156122a3578251825591602001919060010190612288565b506122af9291506122b3565b5090565b5b808211156122af57600081556001016122b4565b600067ffffffffffffffff8311156122e2576122e2612d4a565b6040516122f9601f8501601f191660200182612cec565b80915083815284848401111561230e57600080fd5b83836020830137600060208583010152509392505050565b80356001600160a01b0381168114610e4957600080fd5b600082601f83011261234d578081fd5b8135602061235a82612c0a565b6040516123678282612cec565b8381528281019150858301600585901b87018401881015612386578586fd5b855b858110156123a457813584529284019290840190600101612388565b5090979650505050505050565b600082601f8301126123c1578081fd5b6123d0838335602085016122c8565b9392505050565b6000602082840312156123e8578081fd5b6123d082612326565b60008060408385031215612403578081fd5b61240c83612326565b915061241a60208401612326565b90509250929050565b600080600080600060a0868803121561243a578081fd5b61244386612326565b945061245160208701612326565b9350604086013567ffffffffffffffff8082111561246d578283fd5b61247989838a0161233d565b9450606088013591508082111561248e578283fd5b61249a89838a0161233d565b935060808801359150808211156124af578283fd5b506124bc888289016123b1565b9150509295509295909350565b600080600080600060a086880312156124e0578081fd5b6124e986612326565b94506124f760208701612326565b93506040860135925060608601359150608086013567ffffffffffffffff811115612520578182fd5b6124bc888289016123b1565b600080600060608486031215612540578283fd5b61254984612326565b9250602084013567ffffffffffffffff80821115612565578384fd5b6125718783880161233d565b93506040860135915080821115612586578283fd5b506125938682870161233d565b9150509250925092565b600080604083850312156125af578182fd5b6125b883612326565b915060208301356125c881612e01565b809150509250929050565b600080604083850312156125e5578182fd5b6125ee83612326565b946020939093013593505050565b600080600060608486031215612610578081fd5b61261984612326565b95602085013595506040909401359392505050565b60008060408385031215612640578182fd5b823567ffffffffffffffff80821115612657578384fd5b818501915085601f83011261266a578384fd5b8135602061267782612c0a565b6040516126848282612cec565b8381528281019150858301600585901b870184018b10156126a3578889fd5b8896505b848710156126cc576126b881612326565b8352600196909601959183019183016126a7565b50965050860135925050808211156126e2578283fd5b506126ef8582860161233d565b9150509250929050565b60006020828403121561270a578081fd5b81516123d081612e01565b600060208284031215612726578081fd5b81356123d081612e0f565b600060208284031215612742578081fd5b81516123d081612e0f565b60006020828403121561275e578081fd5b813567ffffffffffffffff811115612774578182fd5b8201601f81018413612784578182fd5b612793848235602084016122c8565b949350505050565b6000602082840312156127ac578081fd5b5035919050565b6000602082840312156127c4578081fd5b5051919050565b600080604083850312156127dd578182fd5b50508035926020909101359150565b600080600060608486031215612800578081fd5b8335925060208401359150604084013567ffffffffffffffff811115612824578182fd5b612593868287016123b1565b6000815180845260208085019450808401835b8381101561285f57815187529582019590820190600101612843565b509495945050505050565b60008151808452612882816020860160208601612c85565b601f01601f19169290920160200192915050565b600083516128a8818460208801612c85565b8351908301906128bc818360208801612c85565b01949350505050565b600082516128d7818460208701612c85565b6c31b7b73a3930b1ba173539b7b760991b920191825250600d01919050565b60008251612908818460208701612c85565b64173539b7b760d91b920191825250600501919050565b6001600160a01b0386811682528516602082015260a06040820181905260009061294b90830186612830565b828103606084015261295d8186612830565b90508281036080840152612971818561286a565b98975050505050505050565b6001600160a01b03868116825285166020820152604081018490526060810183905260a0608082018190526000906129b79083018461286a565b979650505050505050565b6020815260006123d06020830184612830565b6040815260006129e86040830185612830565b82810360208401526129fa8185612830565b95945050505050565b6020815260006123d0602083018461286a565b60208082526028908201527f455243313135353a204552433131353552656365697665722072656a656374656040820152676420746f6b656e7360c01b606082015260800190565b60208082526024908201527f455243313135353a206275726e20616d6f756e7420657863656564732062616c604082015263616e636560e01b606082015260800190565b6020808252602e908201527f455243313135353a2063616c6c6572206973206e6f7420746f6b656e206f776e60408201526d195c881bdc88185c1c1c9bdd995960921b606082015260800190565b60208082526025908201527f455243313135353a207472616e7366657220746f20746865207a65726f206164604082015264647265737360d81b606082015260800190565b60208082526023908201527f455243313135353a206275726e2066726f6d20746865207a65726f206164647260408201526265737360e81b606082015260800190565b6020808252602a908201527f455243313135353a20696e73756666696369656e742062616c616e636520666f60408201526939103a3930b739b332b960b11b606082015260800190565b60208082526028908201527f455243313135353a2069647320616e6420616d6f756e7473206c656e677468206040820152670dad2e6dac2e8c6d60c31b606082015260800190565b600067ffffffffffffffff821115612c2457612c24612d4a565b5060051b60200190565b60008219821115612c4157612c41612d34565b500190565b600082612c6157634e487b7160e01b81526012600452602481fd5b500490565b6000816000190483118215151615612c8057612c80612d34565b500290565b60005b83811015612ca0578181015183820152602001612c88565b838111156109a95750506000910152565b600181811c90821680612cc557607f821691505b60208210811415612ce657634e487b7160e01b600052602260045260246000fd5b50919050565b601f8201601f1916810167ffffffffffffffff81118282101715612d1257612d12612d4a565b6040525050565b6000600019821415612d2d57612d2d612d34565b5060010190565b634e487b7160e01b600052601160045260246000fd5b634e487b7160e01b600052604160045260246000fd5b600060033d1115610c3157600481823e5160e01c90565b600060443d1015612d855790565b6040516003193d81016004833e81513d67ffffffffffffffff8160248401118184111715612db557505050505090565b8285019150815181811115612dcd5750505050505090565b843d8701016020828501011115612de75750505050505090565b612df660208286010187612cec565b509095945050505050565b801515811461064e57600080fd5b6001600160e01b03198116811461064e57600080fdfea2646970667358221220bbecd756643b7ea4b70a3b9853f927d13182a303b8c1a2af7557e3d78d69c01b64736f6c63430008040033",
  "linkReferences": {},
  "deployedLinkReferences": {}
}