{
  "_format": "hh-sol-artifact-1",
  "contractName": "LBSFragment",
  "sourceName": "contracts/LBSFragment.sol",
  "abi": [
    {
      "inputs": [
        {
          "internalType": "string",
          "name": "_name",
          "type": "string"
        },
        {
          "internalType": "string",
          "name": "_symbol",
          "type": "string"
        },
        {
          "internalType": "string",
          "name": "_baseUri",
          "type": "string"
        },
        {
          "internalType": "address",
          "name": "_usdcAddress",
          "type": "address"
        }
      ],
      "stateMutability": "nonpayable",
      "type": "constructor"
    },
    {
      "anonymous": false,
      "inputs": [
        {
          "indexed": true,
          "internalType": "address",
          "name": "account",
          "type": "address"
        },
        {
          "indexed": true,
          "internalType": "address",
          "name": "operator",
          "type": "address"
        },
        {
          "indexed": false,
          "internalType": "bool",
          "name": "approved",
          "type": "bool"
        }
      ],
      "name": "ApprovalForAll",
      "type": "event"
    },
    {
      "anonymous": false,
      "inputs": [
        {
          "indexed": true,
          "internalType": "address",
          "name": "previousOwner",
          "type": "address"
        },
        {
          "indexed": true,
          "internalType": "address",
          "name": "newOwner",
          "type": "address"
        }
      ],
      "name": "OwnershipTransferred",
      "type": "event"
    },
    {
      "anonymous": false,
      "inputs": [
        {
          "indexed": true,
          "internalType": "address",
          "name": "operator",
          "type": "address"
        },
        {
          "indexed": true,
          "internalType": "address",
          "name": "from",
          "type": "address"
        },
        {
          "indexed": true,
          "internalType": "address",
          "name": "to",
          "type": "address"
        },
        {
          "indexed": false,
          "internalType": "uint256[]",
          "name": "ids",
          "type": "uint256[]"
        },
        {
          "indexed": false,
          "internalType": "uint256[]",
          "name": "values",
          "type": "uint256[]"
        }
      ],
      "name": "TransferBatch",
      "type": "event"
    },
    {
      "anonymous": false,
      "inputs": [
        {
          "indexed": true,
          "internalType": "address",
          "name": "operator",
          "type": "address"
        },
        {
          "indexed": true,
          "internalType": "address",
          "name": "from",
          "type": "address"
        },
        {
          "indexed": true,
          "internalType": "address",
          "name": "to",
          "type": "address"
        },
        {
          "indexed": false,
          "internalType": "uint256",
          "name": "id",
          "type": "uint256"
        },
        {
          "indexed": false,
          "internalType": "uint256",
          "name": "value",
          "type": "uint256"
        }
      ],
      "name": "TransferSingle",
      "type": "event"
    },
    {
      "anonymous": false,
      "inputs": [
        {
          "indexed": false,
          "internalType": "string",
          "name": "value",
          "type": "string"
        },
        {
          "indexed": true,
          "internalType": "uint256",
          "name": "id",
          "type": "uint256"
        }
      ],
      "name": "URI",
      "type": "event"
    },
    {
      "inputs": [],
      "name": "STAGE_1_MAX_SUPPLY",
      "outputs": [
        {
          "internalType": "uint256",
          "name": "",
          "type": "uint256"
        }
      ],
      "stateMutability": "view",
      "type": "function"
    },
    {
      "inputs": [],
      "name": "STAGE_1_TOKEN_ID",
      "outputs": [
        {
          "internalType": "uint256",
          "name": "",
          "type": "uint256"
        }
      ],
      "stateMutability": "view",
      "type": "function"
    },
    {
      "inputs": [],
      "name": "STAGE_2_MAX_SUPPLY",
      "outputs": [
        {
          "internalType": "uint256",
          "name": "",
          "type": "uint256"
        }
      ],
      "stateMutability": "view",
      "type": "function"
    },
    {
      "inputs": [],
      "name": "STAGE_2_TOKEN_ID",
      "outputs": [
        {
          "internalType": "uint256",
          "name": "",
          "type": "uint256"
        }
      ],
      "stateMutability": "view",
      "type": "function"
    },
    {
      "inputs": [],
      "name": "STAGE_3_MAX_SUPPLY",
      "outputs": [
        {
          "internalType": "uint256",
          "name": "",
          "type": "uint256"
        }
      ],
      "stateMutability": "view",
      "type": "function"
    },
    {
      "inputs": [],
      "name": "STAGE_3_TOKEN_ID",
      "outputs": [
        {
          "internalType": "uint256",
          "name": "",
          "type": "uint256"
        }
      ],
      "stateMutability": "view",
      "type": "function"
    },
    {
      "inputs": [],
      "name": "STAGE_4_MAX_SUPPLY",
      "outputs": [
        {
          "internalType": "uint256",
          "name": "",
          "type": "uint256"
        }
      ],
      "stateMutability": "view",
      "type": "function"
    },
    {
      "inputs": [],
      "name": "STAGE_4_SALE_MAX_QTY",
      "outputs": [
        {
          "internalType": "uint256",
          "name": "",
          "type": "uint256"
        }
      ],
      "stateMutability": "view",
      "type": "function"
    },
    {
      "inputs": [],
      "name": "STAGE_4_TOKEN_ID",
      "outputs": [
        {
          "internalType": "uint256",
          "name": "",
          "type": "uint256"
        }
      ],
      "stateMutability": "view",
      "type": "function"
    },
    {
      "inputs": [],
      "name": "STAGE_4_TREASURY_MAX_QTY",
      "outputs": [
        {
          "internalType": "uint256",
          "name": "",
          "type": "uint256"
        }
      ],
      "stateMutability": "view",
      "type": "function"
    },
    {
      "inputs": [],
      "name": "TOTAL_MAX_SUPPLY",
      "outputs": [
        {
          "internalType": "uint256",
          "name": "",
          "type": "uint256"
        }
      ],
      "stateMutability": "view",
      "type": "function"
    },
    {
      "inputs": [],
      "name": "TOTAL_MAX_TOKEN",
      "outputs": [
        {
          "internalType": "uint256",
          "name": "",
          "type": "uint256"
        }
      ],
      "stateMutability": "view",
      "type": "function"
    },
    {
      "inputs": [],
      "name": "activeStage",
      "outputs": [
        {
          "internalType": "uint256",
          "name": "",
          "type": "uint256"
        }
      ],
      "stateMutability": "view",
      "type": "function"
    },
    {
      "inputs": [
        {
          "internalType": "address",
          "name": "account",
          "type": "address"
        },
        {
          "internalType": "uint256",
          "name": "id",
          "type": "uint256"
        }
      ],
      "name": "balanceOf",
      "outputs": [
        {
          "internalType": "uint256",
          "name": "",
          "type": "uint256"
        }
      ],
      "stateMutability": "view",
      "type": "function"
    },
    {
      "inputs": [
        {
          "internalType": "address[]",
          "name": "accounts",
          "type": "address[]"
        },
        {
          "internalType": "uint256[]",
          "name": "ids",
          "type": "uint256[]"
        }
      ],
      "name": "balanceOfBatch",
      "outputs": [
        {
          "internalType": "uint256[]",
          "name": "",
          "type": "uint256[]"
        }
      ],
      "stateMutability": "view",
      "type": "function"
    },
    {
      "inputs": [],
      "name": "baseUri",
      "outputs": [
        {
          "internalType": "string",
          "name": "",
          "type": "string"
        }
      ],
      "stateMutability": "view",
      "type": "function"
    },
    {
      "inputs": [
        {
          "internalType": "uint256",
          "name": "_tokenId",
          "type": "uint256"
        },
        {
          "internalType": "uint256",
          "name": "_quantity",
          "type": "uint256"
        }
      ],
      "name": "burn",
      "outputs": [],
      "stateMutability": "nonpayable",
      "type": "function"
    },
    {
      "inputs": [
        {
          "internalType": "uint256[]",
          "name": "_tokenIds",
          "type": "uint256[]"
        },
        {
          "internalType": "uint256[]",
          "name": "_quantities",
          "type": "uint256[]"
        }
      ],
      "name": "burnBatch",
      "outputs": [],
      "stateMutability": "nonpayable",
      "type": "function"
    },
    {
      "inputs": [],
      "name": "contractURI",
      "outputs": [
        {
          "internalType": "string",
          "name": "",
          "type": "string"
        }
      ],
      "stateMutability": "view",
      "type": "function"
    },
    {
      "inputs": [
        {
          "internalType": "uint256",
          "name": "_tokenId",
          "type": "uint256"
        }
      ],
      "name": "getMaxSaleSupply",
      "outputs": [
        {
          "internalType": "uint256",
          "name": "",
          "type": "uint256"
        }
      ],
      "stateMutability": "pure",
      "type": "function"
    },
    {
      "inputs": [
        {
          "internalType": "uint256",
          "name": "_tokenId",
          "type": "uint256"
        }
      ],
      "name": "getPrice",
      "outputs": [
        {
          "internalType": "uint256",
          "name": "",
          "type": "uint256"
        }
      ],
      "stateMutability": "view",
      "type": "function"
    },
    {
      "inputs": [
        {
          "internalType": "address",
          "name": "account",
          "type": "address"
        },
        {
          "internalType": "address",
          "name": "operator",
          "type": "address"
        }
      ],
      "name": "isApprovedForAll",
      "outputs": [
        {
          "internalType": "bool",
          "name": "",
          "type": "bool"
        }
      ],
      "stateMutability": "view",
      "type": "function"
    },
    {
      "inputs": [
        {
          "internalType": "uint256",
          "name": "_tokenId",
          "type": "uint256"
        },
        {
          "internalType": "uint256",
          "name": "_quantity",
          "type": "uint256"
        },
        {
          "internalType": "bytes",
          "name": "_data",
          "type": "bytes"
        }
      ],
      "name": "mint",
      "outputs": [],
      "stateMutability": "nonpayable",
      "type": "function"
    },
    {
      "inputs": [],
      "name": "mintTreasury",
      "outputs": [],
      "stateMutability": "nonpayable",
      "type": "function"
    },
    {
      "inputs": [],
      "name": "name",
      "outputs": [
        {
          "internalType": "string",
          "name": "",
          "type": "string"
        }
      ],
      "stateMutability": "view",
      "type": "function"
    },
    {
      "inputs": [],
      "name": "owner",
      "outputs": [
        {
          "internalType": "address",
          "name": "",
          "type": "address"
        }
      ],
      "stateMutability": "view",
      "type": "function"
    },
    {
      "inputs": [],
      "name": "renounceOwnership",
      "outputs": [],
      "stateMutability": "nonpayable",
      "type": "function"
    },
    {
      "inputs": [
        {
          "internalType": "uint256",
          "name": "_tokenId",
          "type": "uint256"
        },
        {
          "internalType": "uint256",
          "name": "_price",
          "type": "uint256"
        }
      ],
      "name": "royaltyInfo",
      "outputs": [
        {
          "internalType": "address",
          "name": "receiver",
          "type": "address"
        },
        {
          "internalType": "uint256",
          "name": "amount",
          "type": "uint256"
        }
      ],
      "stateMutability": "view",
      "type": "function"
    },
    {
      "inputs": [
        {
          "internalType": "address",
          "name": "from",
          "type": "address"
        },
        {
          "internalType": "address",
          "name": "to",
          "type": "address"
        },
        {
          "internalType": "uint256[]",
          "name": "ids",
          "type": "uint256[]"
        },
        {
          "internalType": "uint256[]",
          "name": "amounts",
          "type": "uint256[]"
        },
        {
          "internalType": "bytes",
          "name": "data",
          "type": "bytes"
        }
      ],
      "name": "safeBatchTransferFrom",
      "outputs": [],
      "stateMutability": "nonpayable",
      "type": "function"
    },
    {
      "inputs": [
        {
          "internalType": "address",
          "name": "from",
          "type": "address"
        },
        {
          "internalType": "address",
          "name": "to",
          "type": "address"
        },
        {
          "internalType": "uint256",
          "name": "id",
          "type": "uint256"
        },
        {
          "internalType": "uint256",
          "name": "amount",
          "type": "uint256"
        },
        {
          "internalType": "bytes",
          "name": "data",
          "type": "bytes"
        }
      ],
      "name": "safeTransferFrom",
      "outputs": [],
      "stateMutability": "nonpayable",
      "type": "function"
    },
    {
      "inputs": [
        {
          "internalType": "uint256",
          "name": "_tokenId",
          "type": "uint256"
        }
      ],
      "name": "setActiveStage",
      "outputs": [],
      "stateMutability": "nonpayable",
      "type": "function"
    },
    {
      "inputs": [
        {
          "internalType": "address",
          "name": "operator",
          "type": "address"
        },
        {
          "internalType": "bool",
          "name": "approved",
          "type": "bool"
        }
      ],
      "name": "setApprovalForAll",
      "outputs": [],
      "stateMutability": "nonpayable",
      "type": "function"
    },
    {
      "inputs": [
        {
          "internalType": "string",
          "name": "_newContractURI",
          "type": "string"
        }
      ],
      "name": "setContractURI",
      "outputs": [],
      "stateMutability": "nonpayable",
      "type": "function"
    },
    {
      "inputs": [
        {
          "internalType": "uint256",
          "name": "_tokenId",
          "type": "uint256"
        },
        {
          "internalType": "string",
          "name": "_uri",
          "type": "string"
        }
      ],
      "name": "setCustomURI",
      "outputs": [],
      "stateMutability": "nonpayable",
      "type": "function"
    },
    {
      "inputs": [
        {
          "internalType": "uint256",
          "name": "_tokenId",
          "type": "uint256"
        },
        {
          "internalType": "uint256",
          "name": "_price",
          "type": "uint256"
        }
      ],
      "name": "setPrice",
      "outputs": [],
      "stateMutability": "nonpayable",
      "type": "function"
    },
    {
      "inputs": [
        {
          "internalType": "string",
          "name": "_uri",
          "type": "string"
        }
      ],
      "name": "setURI",
      "outputs": [],
      "stateMutability": "nonpayable",
      "type": "function"
    },
    {
      "inputs": [
        {
          "internalType": "bytes4",
          "name": "interfaceId",
          "type": "bytes4"
        }
      ],
      "name": "supportsInterface",
      "outputs": [
        {
          "internalType": "bool",
          "name": "",
          "type": "bool"
        }
      ],
      "stateMutability": "view",
      "type": "function"
    },
    {
      "inputs": [],
      "name": "symbol",
      "outputs": [
        {
          "internalType": "string",
          "name": "",
          "type": "string"
        }
      ],
      "stateMutability": "view",
      "type": "function"
    },
    {
      "inputs": [
        {
          "internalType": "uint256",
          "name": "",
          "type": "uint256"
        }
      ],
      "name": "tokenToBurnedQty",
      "outputs": [
        {
          "internalType": "uint256",
          "name": "",
          "type": "uint256"
        }
      ],
      "stateMutability": "view",
      "type": "function"
    },
    {
      "inputs": [
        {
          "internalType": "uint256",
          "name": "",
          "type": "uint256"
        }
      ],
      "name": "tokenToCurtomUri",
      "outputs": [
        {
          "internalType": "string",
          "name": "",
          "type": "string"
        }
      ],
      "stateMutability": "view",
      "type": "function"
    },
    {
      "inputs": [
        {
          "internalType": "uint256",
          "name": "",
          "type": "uint256"
        }
      ],
      "name": "tokenToMintedQty",
      "outputs": [
        {
          "internalType": "uint256",
          "name": "",
          "type": "uint256"
        }
      ],
      "stateMutability": "view",
      "type": "function"
    },
    {
      "inputs": [
        {
          "internalType": "uint256",
          "name": "",
          "type": "uint256"
        }
      ],
      "name": "tokenToPrice",
      "outputs": [
        {
          "internalType": "uint256",
          "name": "",
          "type": "uint256"
        }
      ],
      "stateMutability": "view",
      "type": "function"
    },
    {
      "inputs": [
        {
          "internalType": "address",
          "name": "newOwner",
          "type": "address"
        }
      ],
      "name": "transferOwnership",
      "outputs": [],
      "stateMutability": "nonpayable",
      "type": "function"
    },
    {
      "inputs": [],
      "name": "treasuryMinted",
      "outputs": [
        {
          "internalType": "bool",
          "name": "",
          "type": "bool"
        }
      ],
      "stateMutability": "view",
      "type": "function"
    },
    {
      "inputs": [
        {
          "internalType": "uint256",
          "name": "_tokenId",
          "type": "uint256"
        }
      ],
      "name": "uri",
      "outputs": [
        {
          "internalType": "string",
          "name": "",
          "type": "string"
        }
      ],
      "stateMutability": "view",
      "type": "function"
    },
    {
      "inputs": [],
      "name": "usdc",
      "outputs": [
        {
          "internalType": "contract IERC20",
          "name": "",
          "type": "address"
        }
      ],
      "stateMutability": "view",
      "type": "function"
    },
    {
      "inputs": [],
      "name": "withdraw",
      "outputs": [],
      "stateMutability": "nonpayable",
      "type": "function"
    }
  ],
  "bytecode": "0x60806040523480156200001157600080fd5b50604051620067e8380380620067e88339818101604052810190620000379190620009a3565b604051806020016040528060008152506200005881620002fa60201b60201c565b50620000796200006d6200031660201b60201c565b6200031e60201b60201c565b620000ab8260405160200162000090919062000be2565b604051602081830303815290604052620003e460201b60201c565b8360059080519060200190620000c39291906200086a565b508260069080519060200190620000dc9291906200086a565b506200010f82604051602001620000f4919062000bbc565b6040516020818303038152906040526200048f60201b60201c565b6200015b6001836200012d60016200053260201b620023af1760201c565b6040516020016200014092919062000c08565b604051602081830303815290604052620006f460201b60201c565b620001a76002836200017960026200053260201b620023af1760201c565b6040516020016200018c92919062000c08565b604051602081830303815290604052620006f460201b60201c565b620001f3600383620001c560036200053260201b620023af1760201c565b604051602001620001d892919062000c08565b604051602081830303815290604052620006f460201b60201c565b6200023f6004836200021160046200053260201b620023af1760201c565b6040516020016200022492919062000c08565b604051602081830303815290604052620006f460201b60201c565b80600860006101000a81548173ffffffffffffffffffffffffffffffffffffffff021916908373ffffffffffffffffffffffffffffffffffffffff160217905550620f4240600c60006001815260200190815260200160002081905550621e8480600c60006002815260200190815260200160002081905550622dc6c0600c60006003815260200190815260200160002081905550623d0900600c60006004815260200190815260200160002081905550505050506200114b565b8060029080519060200190620003129291906200086a565b5050565b600033905090565b6000600360009054906101000a900473ffffffffffffffffffffffffffffffffffffffff16905081600360006101000a81548173ffffffffffffffffffffffffffffffffffffffff021916908373ffffffffffffffffffffffffffffffffffffffff1602179055508173ffffffffffffffffffffffffffffffffffffffff168173ffffffffffffffffffffffffffffffffffffffff167f8be0079c531659141344cd1fd0a4f28419497f9722a3daafe3b4186f6b6457e060405160405180910390a35050565b620003f46200031660201b60201c565b73ffffffffffffffffffffffffffffffffffffffff166200041a6200084060201b60201c565b73ffffffffffffffffffffffffffffffffffffffff161462000473576040517f08c379a00000000000000000000000000000000000000000000000000000000081526004016200046a9062000c90565b60405180910390fd5b80600490805190602001906200048b9291906200086a565b5050565b6200049f6200031660201b60201c565b73ffffffffffffffffffffffffffffffffffffffff16620004c56200084060201b60201c565b73ffffffffffffffffffffffffffffffffffffffff16146200051e576040517f08c379a0000000000000000000000000000000000000000000000000000000008152600401620005159062000c90565b60405180910390fd5b6200052f81620002fa60201b60201c565b50565b606060008214156200057c576040518060400160405280600181526020017f30000000000000000000000000000000000000000000000000000000000000008152509050620006ef565b600082905060005b60008214620005b45780806200059a9062000ee8565b915050600a82620005ac919062000d95565b915062000584565b60008167ffffffffffffffff811115620005f7577f4e487b7100000000000000000000000000000000000000000000000000000000600052604160045260246000fd5b6040519080825280601f01601f1916602001820160405280156200062a5781602001600182028036833780820191505090505b5090505b60008514620006e85760018262000646919062000dcd565b9150600a8562000657919062000f36565b603062000665919062000d38565b60f81b818381518110620006a2577f4e487b7100000000000000000000000000000000000000000000000000000000600052603260045260246000fd5b60200101907effffffffffffffffffffffffffffffffffffffffffffffffffffffffffffff1916908160001a905350600a85620006e0919062000d95565b94506200062e565b8093505050505b919050565b620007046200031660201b60201c565b73ffffffffffffffffffffffffffffffffffffffff166200072a6200084060201b60201c565b73ffffffffffffffffffffffffffffffffffffffff161462000783576040517f08c379a00000000000000000000000000000000000000000000000000000000081526004016200077a9062000c90565b60405180910390fd5b6001821015801562000796575060048211155b620007d8576040517f08c379a0000000000000000000000000000000000000000000000000000000008152600401620007cf9062000c6e565b60405180910390fd5b80600b60008481526020019081526020016000209080519060200190620008019291906200086a565b50817f6bb7ff708619ba0610cba295a58592e0451dee2622938c8755667688daf3529b8260405162000834919062000c4a565b60405180910390a25050565b6000600360009054906101000a900473ffffffffffffffffffffffffffffffffffffffff16905090565b828054620008789062000e7c565b90600052602060002090601f0160209004810192826200089c5760008555620008e8565b82601f10620008b757805160ff1916838001178555620008e8565b82800160010185558215620008e8579182015b82811115620008e7578251825591602001919060010190620008ca565b5b509050620008f79190620008fb565b5090565b5b8082111562000916576000816000905550600101620008fc565b5090565b6000620009316200092b8462000cdb565b62000cb2565b9050828152602081018484840111156200094a57600080fd5b6200095784828562000e46565b509392505050565b600081519050620009708162001131565b92915050565b600082601f8301126200098857600080fd5b81516200099a8482602086016200091a565b91505092915050565b60008060008060808587031215620009ba57600080fd5b600085015167ffffffffffffffff811115620009d557600080fd5b620009e38782880162000976565b945050602085015167ffffffffffffffff81111562000a0157600080fd5b62000a0f8782880162000976565b935050604085015167ffffffffffffffff81111562000a2d57600080fd5b62000a3b8782880162000976565b925050606062000a4e878288016200095f565b91505092959194509250565b600062000a678262000d11565b62000a73818562000d1c565b935062000a8581856020860162000e46565b62000a90816200102a565b840191505092915050565b600062000aa88262000d11565b62000ab4818562000d2d565b935062000ac681856020860162000e46565b80840191505092915050565b600062000ae1600a8362000d2d565b915062000aee826200103b565b600a82019050919050565b600062000b0860118362000d1c565b915062000b158262001064565b602082019050919050565b600062000b2f60058362000d2d565b915062000b3c826200108d565b600582019050919050565b600062000b5660208362000d1c565b915062000b6382620010b6565b602082019050919050565b600062000b7d600e8362000d2d565b915062000b8a82620010df565b600e82019050919050565b600062000ba460018362000d2d565b915062000bb18262001108565b600182019050919050565b600062000bca828462000a9b565b915062000bd78262000ad2565b915081905092915050565b600062000bf0828462000a9b565b915062000bfd8262000b6e565b915081905092915050565b600062000c16828562000a9b565b915062000c238262000b95565b915062000c31828462000a9b565b915062000c3e8262000b20565b91508190509392505050565b6000602082019050818103600083015262000c66818462000a5a565b905092915050565b6000602082019050818103600083015262000c898162000af9565b9050919050565b6000602082019050818103600083015262000cab8162000b47565b9050919050565b600062000cbe62000cd1565b905062000ccc828262000eb2565b919050565b6000604051905090565b600067ffffffffffffffff82111562000cf95762000cf862000ffb565b5b62000d04826200102a565b9050602081019050919050565b600081519050919050565b600082825260208201905092915050565b600081905092915050565b600062000d458262000e3c565b915062000d528362000e3c565b9250827fffffffffffffffffffffffffffffffffffffffffffffffffffffffffffffffff0382111562000d8a5762000d8962000f6e565b5b828201905092915050565b600062000da28262000e3c565b915062000daf8362000e3c565b92508262000dc25762000dc162000f9d565b5b828204905092915050565b600062000dda8262000e3c565b915062000de78362000e3c565b92508282101562000dfd5762000dfc62000f6e565b5b828203905092915050565b600062000e158262000e1c565b9050919050565b600073ffffffffffffffffffffffffffffffffffffffff82169050919050565b6000819050919050565b60005b8381101562000e6657808201518184015260208101905062000e49565b8381111562000e76576000848401525b50505050565b6000600282049050600182168062000e9557607f821691505b6020821081141562000eac5762000eab62000fcc565b5b50919050565b62000ebd826200102a565b810181811067ffffffffffffffff8211171562000edf5762000ede62000ffb565b5b80604052505050565b600062000ef58262000e3c565b91507fffffffffffffffffffffffffffffffffffffffffffffffffffffffffffffffff82141562000f2b5762000f2a62000f6e565b5b600182019050919050565b600062000f438262000e3c565b915062000f508362000e3c565b92508262000f635762000f6262000f9d565b5b828206905092915050565b7f4e487b7100000000000000000000000000000000000000000000000000000000600052601160045260246000fd5b7f4e487b7100000000000000000000000000000000000000000000000000000000600052601260045260246000fd5b7f4e487b7100000000000000000000000000000000000000000000000000000000600052602260045260246000fd5b7f4e487b7100000000000000000000000000000000000000000000000000000000600052604160045260246000fd5b6000601f19601f8301169050919050565b7f2f7b69647d2e6a736f6e00000000000000000000000000000000000000000000600082015250565b7f4e6f6e6578697374656e7420746f6b656e000000000000000000000000000000600082015250565b7f2e6a736f6e000000000000000000000000000000000000000000000000000000600082015250565b7f4f776e61626c653a2063616c6c6572206973206e6f7420746865206f776e6572600082015250565b7f2f636f6e74726163742e6a736f6e000000000000000000000000000000000000600082015250565b7f2f00000000000000000000000000000000000000000000000000000000000000600082015250565b6200113c8162000e08565b81146200114857600080fd5b50565b61568d806200115b6000396000f3fe608060405234801561001057600080fd5b50600436106102945760003560e01c8063843dde2011610167578063c5cdff8c116100ce578063eb642c8e11610087578063eb642c8e146107e0578063f242432a146107fe578063f2fde38b1461081a578063f6465c5214610836578063f7d9757714610866578063fdd0f3ca1461088257610294565b8063c5cdff8c1461071c578063c65e126c1461073a578063e3e3506214610758578063e757223014610762578063e8a3d48514610792578063e985e9c5146107b057610294565b806395d89b411161012057806395d89b411461065a5780639949fb84146106785780639abc832014610696578063a22cb465146106b4578063a726f59b146106d0578063b390c0ab1461070057610294565b8063843dde201461059857806388da457e146105c8578063896086de146105e65780638cd6976e146106025780638da5cb5b14610620578063938e3d7b1461063e57610294565b80632eb2c2d61161020b5780634864d8d9116101c45780634864d8d9146104e85780634e1273f41461050657806351debc441461053657806365b1de2014610554578063715018a61461057257806383ca4b6f1461057c57610294565b80632eb2c2d61461043a57806331271f96146104565780633adf80b4146104745780633ccfd60b146104905780633e413bee1461049a578063458db8b7146104b857610294565b80630e89341c1161025d5780630e89341c1461034f5780630f55be0c1461037f5780630f7d26151461039d57806328f0d90a146103cd5780632a55205a146103eb5780632b66d7cf1461041c57610294565b8062fdd58e1461029957806301ffc9a7146102c957806302fe5305146102f957806306fdde031461031557806308dc9f4214610333575b600080fd5b6102b360048036038101906102ae9190613d06565b6108a0565b6040516102c091906149f4565b60405180910390f35b6102e360048036038101906102de9190613e43565b610969565b6040516102f0919061467c565b60405180910390f35b610313600480360381019061030e9190613e95565b6109e3565b005b61031d610a6b565b60405161032a91906146b2565b60405180910390f35b61034d60048036038101906103489190613fb8565b610af9565b005b61036960048036038101906103649190613ed6565b610f29565b60405161037691906146b2565b60405180910390f35b6103876110dc565b60405161039491906149f4565b60405180910390f35b6103b760048036038101906103b29190613ed6565b6110e1565b6040516103c491906146b2565b60405180910390f35b6103d5611181565b6040516103e291906149f4565b60405180910390f35b61040560048036038101906104009190613f7c565b611186565b6040516104139291906145fa565b60405180910390f35b610424611207565b60405161043191906149f4565b60405180910390f35b610454600480360381019061044f9190613b7c565b61120c565b005b61045e6112ad565b60405161046b91906149f4565b60405180910390f35b61048e60048036038101906104899190613f28565b6112b3565b005b6104986113e4565b005b6104a26115c9565b6040516104af9190614697565b60405180910390f35b6104d260048036038101906104cd9190613ed6565b6115ef565b6040516104df91906149f4565b60405180910390f35b6104f0611607565b6040516104fd91906149f4565b60405180910390f35b610520600480360381019061051b9190613d42565b61160d565b60405161052d9190614623565b60405180910390f35b61053e6117be565b60405161054b91906149f4565b60405180910390f35b61055c6117c3565b60405161056991906149f4565b60405180910390f35b61057a6117fa565b005b61059660048036038101906105919190613dae565b611882565b005b6105b260048036038101906105ad9190613ed6565b611980565b6040516105bf91906149f4565b60405180910390f35b6105d0611998565b6040516105dd91906149f4565b60405180910390f35b61060060048036038101906105fb9190613ed6565b6119aa565b005b61060a611a81565b60405161061791906149f4565b60405180910390f35b610628611a87565b60405161063591906144bd565b60405180910390f35b61065860048036038101906106539190613e95565b611ab1565b005b610662611b47565b60405161066f91906146b2565b60405180910390f35b610680611bd5565b60405161068d91906149f4565b60405180910390f35b61069e611bda565b6040516106ab91906146b2565b60405180910390f35b6106ce60048036038101906106c99190613cca565b611c68565b005b6106ea60048036038101906106e59190613ed6565b611c7e565b6040516106f791906149f4565b60405180910390f35b61071a60048036038101906107159190613f7c565b611d12565b005b610724611d9c565b60405161073191906149f4565b60405180910390f35b610742611da1565b60405161074f91906149f4565b60405180910390f35b610760611da6565b005b61077c60048036038101906107779190613ed6565b611f26565b60405161078991906149f4565b60405180910390f35b61079a611f94565b6040516107a791906146b2565b60405180910390f35b6107ca60048036038101906107c59190613b40565b612026565b6040516107d7919061467c565b60405180910390f35b6107e86120ba565b6040516107f591906149f4565b60405180910390f35b61081860048036038101906108139190613c3b565b6120bf565b005b610834600480360381019061082f9190613b17565b612160565b005b610850600480360381019061084b9190613ed6565b612258565b60405161085d91906149f4565b60405180910390f35b610880600480360381019061087b9190613f7c565b612270565b005b61088a61239c565b604051610897919061467c565b60405180910390f35b60008073ffffffffffffffffffffffffffffffffffffffff168373ffffffffffffffffffffffffffffffffffffffff161415610911576040517f08c379a000000000000000000000000000000000000000000000000000000000815260040161090890614714565b60405180910390fd5b60008083815260200190815260200160002060008473ffffffffffffffffffffffffffffffffffffffff1673ffffffffffffffffffffffffffffffffffffffff16815260200190815260200160002054905092915050565b60007f2a55205a000000000000000000000000000000000000000000000000000000007bffffffffffffffffffffffffffffffffffffffffffffffffffffffff1916827bffffffffffffffffffffffffffffffffffffffffffffffffffffffff191614806109dc57506109db8261255c565b5b9050919050565b6109eb61263e565b73ffffffffffffffffffffffffffffffffffffffff16610a09611a87565b73ffffffffffffffffffffffffffffffffffffffff1614610a5f576040517f08c379a0000000000000000000000000000000000000000000000000000000008152600401610a56906148b4565b60405180910390fd5b610a6881612646565b50565b60058054610a7890614d77565b80601f0160208091040260200160405190810160405280929190818152602001828054610aa490614d77565b8015610af15780601f10610ac657610100808354040283529160200191610af1565b820191906000526020600020905b815481529060010190602001808311610ad457829003601f168201915b505050505081565b60018310158015610b0b575060048311155b610b4a576040517f08c379a0000000000000000000000000000000000000000000000000000000008152600401610b41906147f4565b60405180910390fd5b8260095414610b8e576040517f08c379a0000000000000000000000000000000000000000000000000000000008152600401610b85906149b4565b60405180910390fd5b610b9783611c7e565b82600d600086815260200190815260200160002054610bb69190614b88565b1115610bf7576040517f08c379a0000000000000000000000000000000000000000000000000000000008152600401610bee906149d4565b60405180910390fd5b600082610c0385611f26565b610c0d9190614c0f565b90506000600860009054906101000a900473ffffffffffffffffffffffffffffffffffffffff1673ffffffffffffffffffffffffffffffffffffffff166370a08231336040518263ffffffff1660e01b8152600401610c6c91906144bd565b60206040518083038186803b158015610c8457600080fd5b505afa158015610c98573d6000803e3d6000fd5b505050506040513d601f19601f82011682018060405250810190610cbc9190613eff565b905081811015610d01576040517f08c379a0000000000000000000000000000000000000000000000000000000008152600401610cf890614794565b60405180910390fd5b6000600860009054906101000a900473ffffffffffffffffffffffffffffffffffffffff1673ffffffffffffffffffffffffffffffffffffffff1663dd62ed3e33306040518363ffffffff1660e01b8152600401610d609291906144d8565b60206040518083038186803b158015610d7857600080fd5b505afa158015610d8c573d6000803e3d6000fd5b505050506040513d601f19601f82011682018060405250810190610db09190613eff565b905082811015610df5576040517f08c379a0000000000000000000000000000000000000000000000000000000008152600401610dec90614834565b60405180910390fd5b6000600860009054906101000a900473ffffffffffffffffffffffffffffffffffffffff1673ffffffffffffffffffffffffffffffffffffffff166323b872dd3330876040518463ffffffff1660e01b8152600401610e5693929190614569565b602060405180830381600087803b158015610e7057600080fd5b505af1158015610e84573d6000803e3d6000fd5b505050506040513d601f19601f82011682018060405250810190610ea89190613e1a565b905080610eea576040517f08c379a0000000000000000000000000000000000000000000000000000000008152600401610ee190614854565b60405180910390fd5b610ef633888888612660565b85600d60008981526020019081526020016000206000828254610f199190614b88565b9250508190555050505050505050565b606060018210158015610f3d575060048211155b610f7c576040517f08c379a0000000000000000000000000000000000000000000000000000000008152600401610f73906147f4565b60405180910390fd5b6000600b60008481526020019081526020016000208054610f9c90614d77565b80601f0160208091040260200160405190810160405280929190818152602001828054610fc890614d77565b80156110155780601f10610fea57610100808354040283529160200191611015565b820191906000526020600020905b815481529060010190602001808311610ff857829003601f168201915b505050505090506000815111156110ca57600b6000848152602001908152602001600020805461104490614d77565b80601f016020809104026020016040519081016040528092919081815260200182805461107090614d77565b80156110bd5780601f10611092576101008083540402835291602001916110bd565b820191906000526020600020905b8154815290600101906020018083116110a057829003601f168201915b50505050509150506110d7565b6110d3836127f6565b9150505b919050565b600381565b600b602052806000526040600020600091509050805461110090614d77565b80601f016020809104026020016040519081016040528092919081815260200182805461112c90614d77565b80156111795780601f1061114e57610100808354040283529160200191611179565b820191906000526020600020905b81548152906001019060200180831161115c57829003601f168201915b505050505081565b60d381565b6000806001841015801561119b575060048411155b6111da576040517f08c379a00000000000000000000000000000000000000000000000000000000081526004016111d1906147f4565b60405180910390fd5b6111e2611a87565b61271060fa856111f29190614c0f565b6111fc9190614bde565b915091509250929050565b600281565b61121461263e565b73ffffffffffffffffffffffffffffffffffffffff168573ffffffffffffffffffffffffffffffffffffffff16148061125a57506112598561125461263e565b612026565b5b611299576040517f08c379a000000000000000000000000000000000000000000000000000000000815260040161129090614814565b60405180910390fd5b6112a6858585858561288a565b5050505050565b6103d481565b6112bb61263e565b73ffffffffffffffffffffffffffffffffffffffff166112d9611a87565b73ffffffffffffffffffffffffffffffffffffffff161461132f576040517f08c379a0000000000000000000000000000000000000000000000000000000008152600401611326906148b4565b60405180910390fd5b60018210158015611341575060048211155b611380576040517f08c379a0000000000000000000000000000000000000000000000000000000008152600401611377906147f4565b60405180910390fd5b80600b600084815260200190815260200160002090805190602001906113a79291906137e5565b50817f6bb7ff708619ba0610cba295a58592e0451dee2622938c8755667688daf3529b826040516113d891906146b2565b60405180910390a25050565b6113ec61263e565b73ffffffffffffffffffffffffffffffffffffffff1661140a611a87565b73ffffffffffffffffffffffffffffffffffffffff1614611460576040517f08c379a0000000000000000000000000000000000000000000000000000000008152600401611457906148b4565b60405180910390fd5b6000600860009054906101000a900473ffffffffffffffffffffffffffffffffffffffff1673ffffffffffffffffffffffffffffffffffffffff166370a08231306040518263ffffffff1660e01b81526004016114bd91906144bd565b60206040518083038186803b1580156114d557600080fd5b505afa1580156114e9573d6000803e3d6000fd5b505050506040513d601f19601f8201168201806040525081019061150d9190613eff565b9050600860009054906101000a900473ffffffffffffffffffffffffffffffffffffffff1673ffffffffffffffffffffffffffffffffffffffff1663a9059cbb611555611a87565b836040518363ffffffff1660e01b81526004016115739291906145fa565b602060405180830381600087803b15801561158d57600080fd5b505af11580156115a1573d6000803e3d6000fd5b505050506040513d601f19601f820116820180604052508101906115c59190613e1a565b5050565b600860009054906101000a900473ffffffffffffffffffffffffffffffffffffffff1681565b600d6020528060005260406000206000915090505481565b60095481565b60608151835114611653576040517f08c379a000000000000000000000000000000000000000000000000000000000815260040161164a90614934565b60405180910390fd5b6000835167ffffffffffffffff811115611696577f4e487b7100000000000000000000000000000000000000000000000000000000600052604160045260246000fd5b6040519080825280602002602001820160405280156116c45781602001602082028036833780820191505090505b50905060005b84518110156117b35761175d85828151811061170f577f4e487b7100000000000000000000000000000000000000000000000000000000600052603260045260246000fd5b6020026020010151858381518110611750577f4e487b7100000000000000000000000000000000000000000000000000000000600052603260045260246000fd5b60200260200101516108a0565b828281518110611796577f4e487b7100000000000000000000000000000000000000000000000000000000600052603260045260246000fd5b602002602001018181525050806117ac90614dda565b90506116ca565b508091505092915050565b600481565b6103d460d36117d29190614b88565b61010860c460786117e39190614b88565b6117ed9190614b88565b6117f79190614b88565b81565b61180261263e565b73ffffffffffffffffffffffffffffffffffffffff16611820611a87565b73ffffffffffffffffffffffffffffffffffffffff1614611876576040517f08c379a000000000000000000000000000000000000000000000000000000000815260040161186d906148b4565b60405180910390fd5b6118806000612bea565b565b80518251146118c6576040517f08c379a00000000000000000000000000000000000000000000000000000000081526004016118bd906147b4565b60405180910390fd5b60005b825181101561197b57600083828151811061190d577f4e487b7100000000000000000000000000000000000000000000000000000000600052603260045260246000fd5b602002602001015190506000838381518110611952577f4e487b7100000000000000000000000000000000000000000000000000000000600052603260045260246000fd5b602002602001015190506119668282611d12565b5050808061197390614dda565b9150506118c9565b505050565b600c6020528060005260406000206000915090505481565b6103d460d36119a79190614b88565b81565b6119b261263e565b73ffffffffffffffffffffffffffffffffffffffff166119d0611a87565b73ffffffffffffffffffffffffffffffffffffffff1614611a26576040517f08c379a0000000000000000000000000000000000000000000000000000000008152600401611a1d906148b4565b60405180910390fd5b60018110158015611a38575060048111155b611a77576040517f08c379a0000000000000000000000000000000000000000000000000000000008152600401611a6e906147f4565b60405180910390fd5b8060098190555050565b61010881565b6000600360009054906101000a900473ffffffffffffffffffffffffffffffffffffffff16905090565b611ab961263e565b73ffffffffffffffffffffffffffffffffffffffff16611ad7611a87565b73ffffffffffffffffffffffffffffffffffffffff1614611b2d576040517f08c379a0000000000000000000000000000000000000000000000000000000008152600401611b24906148b4565b60405180910390fd5b8060049080519060200190611b439291906137e5565b5050565b60068054611b5490614d77565b80601f0160208091040260200160405190810160405280929190818152602001828054611b8090614d77565b8015611bcd5780601f10611ba257610100808354040283529160200191611bcd565b820191906000526020600020905b815481529060010190602001808311611bb057829003601f168201915b505050505081565b60c481565b60078054611be790614d77565b80601f0160208091040260200160405190810160405280929190818152602001828054611c1390614d77565b8015611c605780601f10611c3557610100808354040283529160200191611c60565b820191906000526020600020905b815481529060010190602001808311611c4357829003601f168201915b505050505081565b611c7a611c7361263e565b8383612cb0565b5050565b600060018210158015611c92575060048211155b611cd1576040517f08c379a0000000000000000000000000000000000000000000000000000000008152600401611cc8906147f4565b60405180910390fd5b6001821415611ce35760789050611d0d565b6002821415611cf55760c49050611d0d565b6003821415611d08576101089050611d0d565b60d390505b919050565b60018210158015611d24575060048211155b611d63576040517f08c379a0000000000000000000000000000000000000000000000000000000008152600401611d5a906147f4565b60405180910390fd5b611d6e338383612e1d565b80600e60008481526020019081526020016000206000828254611d919190614b88565b925050819055505050565b600181565b600481565b611dae61263e565b73ffffffffffffffffffffffffffffffffffffffff16611dcc611a87565b73ffffffffffffffffffffffffffffffffffffffff1614611e22576040517f08c379a0000000000000000000000000000000000000000000000000000000008152600401611e19906148b4565b60405180910390fd5b600460095414611e67576040517f08c379a0000000000000000000000000000000000000000000000000000000008152600401611e5e906148d4565b60405180910390fd5b600a60009054906101000a900460ff1615611eb7576040517f08c379a0000000000000000000000000000000000000000000000000000000008152600401611eae90614954565b60405180910390fd5b611edc611ec2611a87565b60046103d460405180602001604052806000815250612660565b6103d4600d6000600481526020019081526020016000206000828254611f029190614b88565b925050819055506001600a60006101000a81548160ff021916908315150217905550565b600060018210158015611f3a575060048211155b611f79576040517f08c379a0000000000000000000000000000000000000000000000000000000008152600401611f70906147f4565b60405180910390fd5b600c6000838152602001908152602001600020549050919050565b606060048054611fa390614d77565b80601f0160208091040260200160405190810160405280929190818152602001828054611fcf90614d77565b801561201c5780601f10611ff15761010080835404028352916020019161201c565b820191906000526020600020905b815481529060010190602001808311611fff57829003601f168201915b5050505050905090565b6000600160008473ffffffffffffffffffffffffffffffffffffffff1673ffffffffffffffffffffffffffffffffffffffff16815260200190815260200160002060008373ffffffffffffffffffffffffffffffffffffffff1673ffffffffffffffffffffffffffffffffffffffff16815260200190815260200160002060009054906101000a900460ff16905092915050565b607881565b6120c761263e565b73ffffffffffffffffffffffffffffffffffffffff168573ffffffffffffffffffffffffffffffffffffffff16148061210d575061210c8561210761263e565b612026565b5b61214c576040517f08c379a000000000000000000000000000000000000000000000000000000000815260040161214390614774565b60405180910390fd5b612159858585858561303a565b5050505050565b61216861263e565b73ffffffffffffffffffffffffffffffffffffffff16612186611a87565b73ffffffffffffffffffffffffffffffffffffffff16146121dc576040517f08c379a00000000000000000000000000000000000000000000000000000000081526004016121d3906148b4565b60405180910390fd5b600073ffffffffffffffffffffffffffffffffffffffff168173ffffffffffffffffffffffffffffffffffffffff16141561224c576040517f08c379a000000000000000000000000000000000000000000000000000000000815260040161224390614734565b60405180910390fd5b61225581612bea565b50565b600e6020528060005260406000206000915090505481565b61227861263e565b73ffffffffffffffffffffffffffffffffffffffff16612296611a87565b73ffffffffffffffffffffffffffffffffffffffff16146122ec576040517f08c379a00000000000000000000000000000000000000000000000000000000081526004016122e3906148b4565b60405180910390fd5b600182101580156122fe575060048211155b61233d576040517f08c379a0000000000000000000000000000000000000000000000000000000008152600401612334906147f4565b60405180910390fd5b60008111612380576040517f08c379a0000000000000000000000000000000000000000000000000000000008152600401612377906148f4565b60405180910390fd5b80600c6000848152602001908152602001600020819055505050565b600a60009054906101000a900460ff1681565b606060008214156123f7576040518060400160405280600181526020017f30000000000000000000000000000000000000000000000000000000000000008152509050612557565b600082905060005b6000821461242957808061241290614dda565b915050600a826124229190614bde565b91506123ff565b60008167ffffffffffffffff81111561246b577f4e487b7100000000000000000000000000000000000000000000000000000000600052604160045260246000fd5b6040519080825280601f01601f19166020018201604052801561249d5781602001600182028036833780820191505090505b5090505b60008514612550576001826124b69190614c69565b9150600a856124c59190614e23565b60306124d19190614b88565b60f81b81838151811061250d577f4e487b7100000000000000000000000000000000000000000000000000000000600052603260045260246000fd5b60200101907effffffffffffffffffffffffffffffffffffffffffffffffffffffffffffff1916908160001a905350600a856125499190614bde565b94506124a1565b8093505050505b919050565b60007fd9b67a26000000000000000000000000000000000000000000000000000000007bffffffffffffffffffffffffffffffffffffffffffffffffffffffff1916827bffffffffffffffffffffffffffffffffffffffffffffffffffffffff1916148061262757507f0e89341c000000000000000000000000000000000000000000000000000000007bffffffffffffffffffffffffffffffffffffffffffffffffffffffff1916827bffffffffffffffffffffffffffffffffffffffffffffffffffffffff1916145b806126375750612636826132bc565b5b9050919050565b600033905090565b806002908051906020019061265c9291906137e5565b5050565b600073ffffffffffffffffffffffffffffffffffffffff168473ffffffffffffffffffffffffffffffffffffffff1614156126d0576040517f08c379a00000000000000000000000000000000000000000000000000000000081526004016126c790614994565b60405180910390fd5b60006126da61263e565b90506126fb816000876126ec88613326565b6126f588613326565b876133ec565b8260008086815260200190815260200160002060008773ffffffffffffffffffffffffffffffffffffffff1673ffffffffffffffffffffffffffffffffffffffff168152602001908152602001600020600082825461275a9190614b88565b925050819055508473ffffffffffffffffffffffffffffffffffffffff16600073ffffffffffffffffffffffffffffffffffffffff168273ffffffffffffffffffffffffffffffffffffffff167fc3d58168c5ae7397731d063d5bbf3d657854427343f4c083240f7aacaa2d0f6287876040516127d8929190614a0f565b60405180910390a46127ef816000878787876133f4565b5050505050565b60606002805461280590614d77565b80601f016020809104026020016040519081016040528092919081815260200182805461283190614d77565b801561287e5780601f106128535761010080835404028352916020019161287e565b820191906000526020600020905b81548152906001019060200180831161286157829003601f168201915b50505050509050919050565b81518351146128ce576040517f08c379a00000000000000000000000000000000000000000000000000000000081526004016128c590614974565b60405180910390fd5b600073ffffffffffffffffffffffffffffffffffffffff168473ffffffffffffffffffffffffffffffffffffffff16141561293e576040517f08c379a0000000000000000000000000000000000000000000000000000000008152600401612935906147d4565b60405180910390fd5b600061294861263e565b90506129588187878787876133ec565b60005b8451811015612b5557600085828151811061299f577f4e487b7100000000000000000000000000000000000000000000000000000000600052603260045260246000fd5b6020026020010151905060008583815181106129e4577f4e487b7100000000000000000000000000000000000000000000000000000000600052603260045260246000fd5b60200260200101519050600080600084815260200190815260200160002060008b73ffffffffffffffffffffffffffffffffffffffff1673ffffffffffffffffffffffffffffffffffffffff16815260200190815260200160002054905081811015612a85576040517f08c379a0000000000000000000000000000000000000000000000000000000008152600401612a7c90614894565b60405180910390fd5b81810360008085815260200190815260200160002060008c73ffffffffffffffffffffffffffffffffffffffff1673ffffffffffffffffffffffffffffffffffffffff168152602001908152602001600020819055508160008085815260200190815260200160002060008b73ffffffffffffffffffffffffffffffffffffffff1673ffffffffffffffffffffffffffffffffffffffff1681526020019081526020016000206000828254612b3a9190614b88565b9250508190555050505080612b4e90614dda565b905061295b565b508473ffffffffffffffffffffffffffffffffffffffff168673ffffffffffffffffffffffffffffffffffffffff168273ffffffffffffffffffffffffffffffffffffffff167f4a39dc06d4c0dbc64b70af90fd698a233a518aa5d07e595d983b8c0526c8f7fb8787604051612bcc929190614645565b60405180910390a4612be28187878787876135db565b505050505050565b6000600360009054906101000a900473ffffffffffffffffffffffffffffffffffffffff16905081600360006101000a81548173ffffffffffffffffffffffffffffffffffffffff021916908373ffffffffffffffffffffffffffffffffffffffff1602179055508173ffffffffffffffffffffffffffffffffffffffff168173ffffffffffffffffffffffffffffffffffffffff167f8be0079c531659141344cd1fd0a4f28419497f9722a3daafe3b4186f6b6457e060405160405180910390a35050565b8173ffffffffffffffffffffffffffffffffffffffff168373ffffffffffffffffffffffffffffffffffffffff161415612d1f576040517f08c379a0000000000000000000000000000000000000000000000000000000008152600401612d1690614914565b60405180910390fd5b80600160008573ffffffffffffffffffffffffffffffffffffffff1673ffffffffffffffffffffffffffffffffffffffff16815260200190815260200160002060008473ffffffffffffffffffffffffffffffffffffffff1673ffffffffffffffffffffffffffffffffffffffff16815260200190815260200160002060006101000a81548160ff0219169083151502179055508173ffffffffffffffffffffffffffffffffffffffff168373ffffffffffffffffffffffffffffffffffffffff167f17307eab39ab6107e8899845ad3d59bd9653f200f220920489ca2b5937696c3183604051612e10919061467c565b60405180910390a3505050565b600073ffffffffffffffffffffffffffffffffffffffff168373ffffffffffffffffffffffffffffffffffffffff161415612e8d576040517f08c379a0000000000000000000000000000000000000000000000000000000008152600401612e8490614874565b60405180910390fd5b6000612e9761263e565b9050612ec781856000612ea987613326565b612eb287613326565b604051806020016040528060008152506133ec565b600080600085815260200190815260200160002060008673ffffffffffffffffffffffffffffffffffffffff1673ffffffffffffffffffffffffffffffffffffffff16815260200190815260200160002054905082811015612f5e576040517f08c379a0000000000000000000000000000000000000000000000000000000008152600401612f5590614754565b60405180910390fd5b82810360008086815260200190815260200160002060008773ffffffffffffffffffffffffffffffffffffffff1673ffffffffffffffffffffffffffffffffffffffff16815260200190815260200160002081905550600073ffffffffffffffffffffffffffffffffffffffff168573ffffffffffffffffffffffffffffffffffffffff168373ffffffffffffffffffffffffffffffffffffffff167fc3d58168c5ae7397731d063d5bbf3d657854427343f4c083240f7aacaa2d0f62878760405161302b929190614a0f565b60405180910390a45050505050565b600073ffffffffffffffffffffffffffffffffffffffff168473ffffffffffffffffffffffffffffffffffffffff1614156130aa576040517f08c379a00000000000000000000000000000000000000000000000000000000081526004016130a1906147d4565b60405180910390fd5b60006130b461263e565b90506130d48187876130c588613326565b6130ce88613326565b876133ec565b600080600086815260200190815260200160002060008873ffffffffffffffffffffffffffffffffffffffff1673ffffffffffffffffffffffffffffffffffffffff1681526020019081526020016000205490508381101561316b576040517f08c379a000000000000000000000000000000000000000000000000000000000815260040161316290614894565b60405180910390fd5b83810360008087815260200190815260200160002060008973ffffffffffffffffffffffffffffffffffffffff1673ffffffffffffffffffffffffffffffffffffffff168152602001908152602001600020819055508360008087815260200190815260200160002060008873ffffffffffffffffffffffffffffffffffffffff1673ffffffffffffffffffffffffffffffffffffffff16815260200190815260200160002060008282546132209190614b88565b925050819055508573ffffffffffffffffffffffffffffffffffffffff168773ffffffffffffffffffffffffffffffffffffffff168373ffffffffffffffffffffffffffffffffffffffff167fc3d58168c5ae7397731d063d5bbf3d657854427343f4c083240f7aacaa2d0f62888860405161329d929190614a0f565b60405180910390a46132b38288888888886133f4565b50505050505050565b60007f01ffc9a7000000000000000000000000000000000000000000000000000000007bffffffffffffffffffffffffffffffffffffffffffffffffffffffff1916827bffffffffffffffffffffffffffffffffffffffffffffffffffffffff1916149050919050565b60606000600167ffffffffffffffff81111561336b577f4e487b7100000000000000000000000000000000000000000000000000000000600052604160045260246000fd5b6040519080825280602002602001820160405280156133995781602001602082028036833780820191505090505b50905082816000815181106133d7577f4e487b7100000000000000000000000000000000000000000000000000000000600052603260045260246000fd5b60200260200101818152505080915050919050565b505050505050565b6134138473ffffffffffffffffffffffffffffffffffffffff166137c2565b156135d3578373ffffffffffffffffffffffffffffffffffffffff1663f23a6e6187878686866040518663ffffffff1660e01b81526004016134599594939291906145a0565b602060405180830381600087803b15801561347357600080fd5b505af19250505080156134a457506040513d601f19601f820116820180604052508101906134a19190613e6c565b60015b61354a576134b0614f10565b806308c379a0141561350d57506134c5615565565b806134d0575061350f565b806040517f08c379a000000000000000000000000000000000000000000000000000000000815260040161350491906146b2565b60405180910390fd5b505b6040517f08c379a0000000000000000000000000000000000000000000000000000000008152600401613541906146d4565b60405180910390fd5b63f23a6e6160e01b7bffffffffffffffffffffffffffffffffffffffffffffffffffffffff1916817bffffffffffffffffffffffffffffffffffffffffffffffffffffffff1916146135d1576040517f08c379a00000000000000000000000000000000000000000000000000000000081526004016135c8906146f4565b60405180910390fd5b505b505050505050565b6135fa8473ffffffffffffffffffffffffffffffffffffffff166137c2565b156137ba578373ffffffffffffffffffffffffffffffffffffffff1663bc197c8187878686866040518663ffffffff1660e01b8152600401613640959493929190614501565b602060405180830381600087803b15801561365a57600080fd5b505af192505050801561368b57506040513d601f19601f820116820180604052508101906136889190613e6c565b60015b61373157613697614f10565b806308c379a014156136f457506136ac615565565b806136b757506136f6565b806040517f08c379a00000000000000000000000000000000000000000000000000000000081526004016136eb91906146b2565b60405180910390fd5b505b6040517f08c379a0000000000000000000000000000000000000000000000000000000008152600401613728906146d4565b60405180910390fd5b63bc197c8160e01b7bffffffffffffffffffffffffffffffffffffffffffffffffffffffff1916817bffffffffffffffffffffffffffffffffffffffffffffffffffffffff1916146137b8576040517f08c379a00000000000000000000000000000000000000000000000000000000081526004016137af906146f4565b60405180910390fd5b505b505050505050565b6000808273ffffffffffffffffffffffffffffffffffffffff163b119050919050565b8280546137f190614d77565b90600052602060002090601f016020900481019282613813576000855561385a565b82601f1061382c57805160ff191683800117855561385a565b8280016001018555821561385a579182015b8281111561385957825182559160200191906001019061383e565b5b509050613867919061386b565b5090565b5b8082111561388457600081600090555060010161386c565b5090565b600061389b61389684614a5d565b614a38565b905080838252602082019050828560208602820111156138ba57600080fd5b60005b858110156138ea57816138d088826139dc565b8452602084019350602083019250506001810190506138bd565b5050509392505050565b600061390761390284614a89565b614a38565b9050808382526020820190508285602086028201111561392657600080fd5b60005b85811015613956578161393c8882613aed565b845260208401935060208301925050600181019050613929565b5050509392505050565b600061397361396e84614ab5565b614a38565b90508281526020810184848401111561398b57600080fd5b613996848285614d35565b509392505050565b60006139b16139ac84614ae6565b614a38565b9050828152602081018484840111156139c957600080fd5b6139d4848285614d35565b509392505050565b6000813590506139eb816155fb565b92915050565b600082601f830112613a0257600080fd5b8135613a12848260208601613888565b91505092915050565b600082601f830112613a2c57600080fd5b8135613a3c8482602086016138f4565b91505092915050565b600081359050613a5481615612565b92915050565b600081519050613a6981615612565b92915050565b600081359050613a7e81615629565b92915050565b600081519050613a9381615629565b92915050565b600082601f830112613aaa57600080fd5b8135613aba848260208601613960565b91505092915050565b600082601f830112613ad457600080fd5b8135613ae484826020860161399e565b91505092915050565b600081359050613afc81615640565b92915050565b600081519050613b1181615640565b92915050565b600060208284031215613b2957600080fd5b6000613b37848285016139dc565b91505092915050565b60008060408385031215613b5357600080fd5b6000613b61858286016139dc565b9250506020613b72858286016139dc565b9150509250929050565b600080600080600060a08688031215613b9457600080fd5b6000613ba2888289016139dc565b9550506020613bb3888289016139dc565b945050604086013567ffffffffffffffff811115613bd057600080fd5b613bdc88828901613a1b565b935050606086013567ffffffffffffffff811115613bf957600080fd5b613c0588828901613a1b565b925050608086013567ffffffffffffffff811115613c2257600080fd5b613c2e88828901613a99565b9150509295509295909350565b600080600080600060a08688031215613c5357600080fd5b6000613c61888289016139dc565b9550506020613c72888289016139dc565b9450506040613c8388828901613aed565b9350506060613c9488828901613aed565b925050608086013567ffffffffffffffff811115613cb157600080fd5b613cbd88828901613a99565b9150509295509295909350565b60008060408385031215613cdd57600080fd5b6000613ceb858286016139dc565b9250506020613cfc85828601613a45565b9150509250929050565b60008060408385031215613d1957600080fd5b6000613d27858286016139dc565b9250506020613d3885828601613aed565b9150509250929050565b60008060408385031215613d5557600080fd5b600083013567ffffffffffffffff811115613d6f57600080fd5b613d7b858286016139f1565b925050602083013567ffffffffffffffff811115613d9857600080fd5b613da485828601613a1b565b9150509250929050565b60008060408385031215613dc157600080fd5b600083013567ffffffffffffffff811115613ddb57600080fd5b613de785828601613a1b565b925050602083013567ffffffffffffffff811115613e0457600080fd5b613e1085828601613a1b565b9150509250929050565b600060208284031215613e2c57600080fd5b6000613e3a84828501613a5a565b91505092915050565b600060208284031215613e5557600080fd5b6000613e6384828501613a6f565b91505092915050565b600060208284031215613e7e57600080fd5b6000613e8c84828501613a84565b91505092915050565b600060208284031215613ea757600080fd5b600082013567ffffffffffffffff811115613ec157600080fd5b613ecd84828501613ac3565b91505092915050565b600060208284031215613ee857600080fd5b6000613ef684828501613aed565b91505092915050565b600060208284031215613f1157600080fd5b6000613f1f84828501613b02565b91505092915050565b60008060408385031215613f3b57600080fd5b6000613f4985828601613aed565b925050602083013567ffffffffffffffff811115613f6657600080fd5b613f7285828601613ac3565b9150509250929050565b60008060408385031215613f8f57600080fd5b6000613f9d85828601613aed565b9250506020613fae85828601613aed565b9150509250929050565b600080600060608486031215613fcd57600080fd5b6000613fdb86828701613aed565b9350506020613fec86828701613aed565b925050604084013567ffffffffffffffff81111561400957600080fd5b61401586828701613a99565b9150509250925092565b600061402b838361449f565b60208301905092915050565b61404081614c9d565b82525050565b600061405182614b27565b61405b8185614b55565b935061406683614b17565b8060005b8381101561409757815161407e888261401f565b975061408983614b48565b92505060018101905061406a565b5085935050505092915050565b6140ad81614caf565b82525050565b60006140be82614b32565b6140c88185614b66565b93506140d8818560208601614d44565b6140e181614f32565b840191505092915050565b6140f581614d11565b82525050565b600061410682614b3d565b6141108185614b77565b9350614120818560208601614d44565b61412981614f32565b840191505092915050565b6000614141603483614b77565b915061414c82614f50565b604082019050919050565b6000614164602883614b77565b915061416f82614f9f565b604082019050919050565b6000614187602b83614b77565b915061419282614fee565b604082019050919050565b60006141aa602683614b77565b91506141b58261503d565b604082019050919050565b60006141cd602483614b77565b91506141d88261508c565b604082019050919050565b60006141f0602983614b77565b91506141fb826150db565b604082019050919050565b6000614213601483614b77565b915061421e8261512a565b602082019050919050565b6000614236600f83614b77565b915061424182615153565b602082019050919050565b6000614259602583614b77565b91506142648261517c565b604082019050919050565b600061427c601183614b77565b9150614287826151cb565b602082019050919050565b600061429f603283614b77565b91506142aa826151f4565b604082019050919050565b60006142c2601983614b77565b91506142cd82615243565b602082019050919050565b60006142e5601283614b77565b91506142f08261526c565b602082019050919050565b6000614308602383614b77565b915061431382615295565b604082019050919050565b600061432b602a83614b77565b9150614336826152e4565b604082019050919050565b600061434e602083614b77565b915061435982615333565b602082019050919050565b6000614371601f83614b77565b915061437c8261535c565b602082019050919050565b6000614394601a83614b77565b915061439f82615385565b602082019050919050565b60006143b7602983614b77565b91506143c2826153ae565b604082019050919050565b60006143da602983614b77565b91506143e5826153fd565b604082019050919050565b60006143fd601783614b77565b91506144088261544c565b602082019050919050565b6000614420602883614b77565b915061442b82615475565b604082019050919050565b6000614443602183614b77565b915061444e826154c4565b604082019050919050565b6000614466601b83614b77565b915061447182615513565b602082019050919050565b6000614489601783614b77565b91506144948261553c565b602082019050919050565b6144a881614d07565b82525050565b6144b781614d07565b82525050565b60006020820190506144d26000830184614037565b92915050565b60006040820190506144ed6000830185614037565b6144fa6020830184614037565b9392505050565b600060a0820190506145166000830188614037565b6145236020830187614037565b81810360408301526145358186614046565b905081810360608301526145498185614046565b9050818103608083015261455d81846140b3565b90509695505050505050565b600060608201905061457e6000830186614037565b61458b6020830185614037565b61459860408301846144ae565b949350505050565b600060a0820190506145b56000830188614037565b6145c26020830187614037565b6145cf60408301866144ae565b6145dc60608301856144ae565b81810360808301526145ee81846140b3565b90509695505050505050565b600060408201905061460f6000830185614037565b61461c60208301846144ae565b9392505050565b6000602082019050818103600083015261463d8184614046565b905092915050565b6000604082019050818103600083015261465f8185614046565b905081810360208301526146738184614046565b90509392505050565b600060208201905061469160008301846140a4565b92915050565b60006020820190506146ac60008301846140ec565b92915050565b600060208201905081810360008301526146cc81846140fb565b905092915050565b600060208201905081810360008301526146ed81614134565b9050919050565b6000602082019050818103600083015261470d81614157565b9050919050565b6000602082019050818103600083015261472d8161417a565b9050919050565b6000602082019050818103600083015261474d8161419d565b9050919050565b6000602082019050818103600083015261476d816141c0565b9050919050565b6000602082019050818103600083015261478d816141e3565b9050919050565b600060208201905081810360008301526147ad81614206565b9050919050565b600060208201905081810360008301526147cd81614229565b9050919050565b600060208201905081810360008301526147ed8161424c565b9050919050565b6000602082019050818103600083015261480d8161426f565b9050919050565b6000602082019050818103600083015261482d81614292565b9050919050565b6000602082019050818103600083015261484d816142b5565b9050919050565b6000602082019050818103600083015261486d816142d8565b9050919050565b6000602082019050818103600083015261488d816142fb565b9050919050565b600060208201905081810360008301526148ad8161431e565b9050919050565b600060208201905081810360008301526148cd81614341565b9050919050565b600060208201905081810360008301526148ed81614364565b9050919050565b6000602082019050818103600083015261490d81614387565b9050919050565b6000602082019050818103600083015261492d816143aa565b9050919050565b6000602082019050818103600083015261494d816143cd565b9050919050565b6000602082019050818103600083015261496d816143f0565b9050919050565b6000602082019050818103600083015261498d81614413565b9050919050565b600060208201905081810360008301526149ad81614436565b9050919050565b600060208201905081810360008301526149cd81614459565b9050919050565b600060208201905081810360008301526149ed8161447c565b9050919050565b6000602082019050614a0960008301846144ae565b92915050565b6000604082019050614a2460008301856144ae565b614a3160208301846144ae565b9392505050565b6000614a42614a53565b9050614a4e8282614da9565b919050565b6000604051905090565b600067ffffffffffffffff821115614a7857614a77614ee1565b5b602082029050602081019050919050565b600067ffffffffffffffff821115614aa457614aa3614ee1565b5b602082029050602081019050919050565b600067ffffffffffffffff821115614ad057614acf614ee1565b5b614ad982614f32565b9050602081019050919050565b600067ffffffffffffffff821115614b0157614b00614ee1565b5b614b0a82614f32565b9050602081019050919050565b6000819050602082019050919050565b600081519050919050565b600081519050919050565b600081519050919050565b6000602082019050919050565b600082825260208201905092915050565b600082825260208201905092915050565b600082825260208201905092915050565b6000614b9382614d07565b9150614b9e83614d07565b9250827fffffffffffffffffffffffffffffffffffffffffffffffffffffffffffffffff03821115614bd357614bd2614e54565b5b828201905092915050565b6000614be982614d07565b9150614bf483614d07565b925082614c0457614c03614e83565b5b828204905092915050565b6000614c1a82614d07565b9150614c2583614d07565b9250817fffffffffffffffffffffffffffffffffffffffffffffffffffffffffffffffff0483118215151615614c5e57614c5d614e54565b5b828202905092915050565b6000614c7482614d07565b9150614c7f83614d07565b925082821015614c9257614c91614e54565b5b828203905092915050565b6000614ca882614ce7565b9050919050565b60008115159050919050565b60007fffffffff0000000000000000000000000000000000000000000000000000000082169050919050565b600073ffffffffffffffffffffffffffffffffffffffff82169050919050565b6000819050919050565b6000614d1c82614d23565b9050919050565b6000614d2e82614ce7565b9050919050565b82818337600083830152505050565b60005b83811015614d62578082015181840152602081019050614d47565b83811115614d71576000848401525b50505050565b60006002820490506001821680614d8f57607f821691505b60208210811415614da357614da2614eb2565b5b50919050565b614db282614f32565b810181811067ffffffffffffffff82111715614dd157614dd0614ee1565b5b80604052505050565b6000614de582614d07565b91507fffffffffffffffffffffffffffffffffffffffffffffffffffffffffffffffff821415614e1857614e17614e54565b5b600182019050919050565b6000614e2e82614d07565b9150614e3983614d07565b925082614e4957614e48614e83565b5b828206905092915050565b7f4e487b7100000000000000000000000000000000000000000000000000000000600052601160045260246000fd5b7f4e487b7100000000000000000000000000000000000000000000000000000000600052601260045260246000fd5b7f4e487b7100000000000000000000000000000000000000000000000000000000600052602260045260246000fd5b7f4e487b7100000000000000000000000000000000000000000000000000000000600052604160045260246000fd5b600060033d1115614f2f5760046000803e614f2c600051614f43565b90505b90565b6000601f19601f8301169050919050565b60008160e01c9050919050565b7f455243313135353a207472616e7366657220746f206e6f6e204552433131353560008201527f526563656976657220696d706c656d656e746572000000000000000000000000602082015250565b7f455243313135353a204552433131353552656365697665722072656a6563746560008201527f6420746f6b656e73000000000000000000000000000000000000000000000000602082015250565b7f455243313135353a2062616c616e636520717565727920666f7220746865207a60008201527f65726f2061646472657373000000000000000000000000000000000000000000602082015250565b7f4f776e61626c653a206e6577206f776e657220697320746865207a65726f206160008201527f6464726573730000000000000000000000000000000000000000000000000000602082015250565b7f455243313135353a206275726e20616d6f756e7420657863656564732062616c60008201527f616e636500000000000000000000000000000000000000000000000000000000602082015250565b7f455243313135353a2063616c6c6572206973206e6f74206f776e6572206e6f7260008201527f20617070726f7665640000000000000000000000000000000000000000000000602082015250565b7f496e73756666696369656e742062616c616e6365000000000000000000000000600082015250565b7f4d69736d61746368204c656e6774680000000000000000000000000000000000600082015250565b7f455243313135353a207472616e7366657220746f20746865207a65726f20616460008201527f6472657373000000000000000000000000000000000000000000000000000000602082015250565b7f4e6f6e6578697374656e7420746f6b656e000000000000000000000000000000600082015250565b7f455243313135353a207472616e736665722063616c6c6572206973206e6f742060008201527f6f776e6572206e6f7220617070726f7665640000000000000000000000000000602082015250565b7f436865636b2074686520746f6b656e20616c6c6f77616e636500000000000000600082015250565b7f4661696c656420746f207472616e736665720000000000000000000000000000600082015250565b7f455243313135353a206275726e2066726f6d20746865207a65726f206164647260008201527f6573730000000000000000000000000000000000000000000000000000000000602082015250565b7f455243313135353a20696e73756666696369656e742062616c616e636520666f60008201527f72207472616e7366657200000000000000000000000000000000000000000000602082015250565b7f4f776e61626c653a2063616c6c6572206973206e6f7420746865206f776e6572600082015250565b7f5472656173757279207374616765206973206e6f742061637469766174656400600082015250565b7f546f6b656e2070726963652063616e6e6f74206265207a65726f000000000000600082015250565b7f455243313135353a2073657474696e6720617070726f76616c2073746174757360008201527f20666f722073656c660000000000000000000000000000000000000000000000602082015250565b7f455243313135353a206163636f756e747320616e6420696473206c656e67746860008201527f206d69736d617463680000000000000000000000000000000000000000000000602082015250565b7f547265617375727920616c7265616479206d696e746564000000000000000000600082015250565b7f455243313135353a2069647320616e6420616d6f756e7473206c656e6774682060008201527f6d69736d61746368000000000000000000000000000000000000000000000000602082015250565b7f455243313135353a206d696e7420746f20746865207a65726f2061646472657360008201527f7300000000000000000000000000000000000000000000000000000000000000602082015250565b7f53616c65207374616765206973206e6f74206163746976617465640000000000600082015250565b7f4578636565642073616c6573206d617820737570706c79000000000000000000600082015250565b600060443d1015615575576155f8565b61557d614a53565b60043d036004823e80513d602482011167ffffffffffffffff821117156155a55750506155f8565b808201805167ffffffffffffffff8111156155c357505050506155f8565b80602083010160043d0385018111156155e05750505050506155f8565b6155ef82602001850186614da9565b82955050505050505b90565b61560481614c9d565b811461560f57600080fd5b50565b61561b81614caf565b811461562657600080fd5b50565b61563281614cbb565b811461563d57600080fd5b50565b61564981614d07565b811461565457600080fd5b5056fea2646970667358221220aa832d49cd0acee099e7c55b81d5347bb2d4d94c35c42cdee7aeef0ed30300fe64736f6c63430008040033",
  "linkReferences": {},
  "deployedLinkReferences": {}
}